{
  "address": "0x3381DA98274088C264A42889246E788Fe6743B19",
  "abi": [
    {
      "inputs": [
        {
          "internalType": "address",
          "name": "_vault",
          "type": "address"
        },
        {
          "internalType": "address",
          "name": "_signer",
          "type": "address"
        },
        {
          "internalType": "address",
          "name": "_vrfCoordinator",
          "type": "address"
        },
        {
          "internalType": "address",
          "name": "_linkToken",
          "type": "address"
        },
        {
          "internalType": "bytes32",
          "name": "_keyHash",
          "type": "bytes32"
        },
        {
          "internalType": "uint256",
          "name": "_fee",
          "type": "uint256"
        }
      ],
      "stateMutability": "nonpayable",
      "type": "constructor"
    },
    {
      "anonymous": false,
      "inputs": [
        {
          "indexed": true,
          "internalType": "bytes32",
          "name": "raffleId",
          "type": "bytes32"
        },
        {
          "indexed": false,
          "internalType": "uint256",
          "name": "amountRaised",
          "type": "uint256"
        }
      ],
      "name": "EarlyCashoutTriggered",
      "type": "event"
    },
    {
      "anonymous": false,
      "inputs": [
        {
          "indexed": true,
          "internalType": "bytes32",
          "name": "raffleId",
          "type": "bytes32"
        },
        {
          "indexed": true,
          "internalType": "address",
          "name": "buyer",
          "type": "address"
        },
        {
          "indexed": false,
          "internalType": "uint256",
          "name": "numTickets",
          "type": "uint256"
        },
        {
          "indexed": false,
          "internalType": "uint256",
          "name": "soldEntries",
          "type": "uint256"
        },
        {
          "indexed": false,
          "internalType": "uint256",
          "name": "price",
          "type": "uint256"
        }
      ],
      "name": "EntrySold",
      "type": "event"
    },
    {
      "anonymous": false,
      "inputs": [
        {
          "indexed": true,
          "internalType": "bytes32",
          "name": "raffleId",
          "type": "bytes32"
        },
        {
          "indexed": false,
          "internalType": "uint256",
          "name": "amountTransferred",
          "type": "uint256"
        }
      ],
      "name": "FeeTransferredToPlatform",
      "type": "event"
    },
    {
      "anonymous": false,
      "inputs": [
        {
          "indexed": true,
          "internalType": "bytes32",
          "name": "raffleId",
          "type": "bytes32"
        },
        {
          "indexed": false,
          "internalType": "address[]",
          "name": "buyer",
          "type": "address[]"
        },
        {
          "indexed": false,
          "internalType": "uint256",
          "name": "amount",
          "type": "uint256"
        },
        {
          "indexed": false,
          "internalType": "uint256",
          "name": "soldEntries",
          "type": "uint256"
        }
      ],
      "name": "FreeEntry",
      "type": "event"
    },
    {
      "anonymous": false,
      "inputs": [
        {
          "indexed": true,
          "internalType": "bytes32",
          "name": "raffleId",
          "type": "bytes32"
        },
        {
          "indexed": false,
          "internalType": "uint256",
          "name": "maxTicketAmountPerBuyer",
          "type": "uint256"
        }
      ],
      "name": "MaxTicketAmountPerBuyerUpdated",
      "type": "event"
    },
    {
      "anonymous": false,
      "inputs": [
        {
          "indexed": true,
          "internalType": "bytes32",
          "name": "raffleId",
          "type": "bytes32"
        },
        {
          "indexed": false,
          "internalType": "uint256",
          "name": "id",
          "type": "uint256"
        },
        {
          "indexed": false,
          "internalType": "uint256",
          "name": "numTickets",
          "type": "uint256"
        },
        {
          "indexed": false,
          "internalType": "uint256",
          "name": "price",
          "type": "uint256"
        }
      ],
      "name": "PriceStructureCreated",
      "type": "event"
    },
    {
      "anonymous": false,
      "inputs": [
        {
          "indexed": true,
          "internalType": "bytes32",
          "name": "raffleId",
          "type": "bytes32"
        },
        {
          "indexed": false,
          "internalType": "uint256",
          "name": "amountRaised",
          "type": "uint256"
        }
      ],
      "name": "RaffleCancelled",
      "type": "event"
    },
    {
      "anonymous": false,
      "inputs": [
        {
          "indexed": true,
          "internalType": "bytes32",
          "name": "raffleId",
          "type": "bytes32"
        },
        {
          "indexed": true,
          "internalType": "address",
          "name": "collateralAddress",
          "type": "address"
        },
        {
          "indexed": true,
          "internalType": "uint256",
          "name": "collateralParam",
          "type": "uint256"
        },
        {
          "indexed": false,
          "internalType": "uint256",
          "name": "endTime",
          "type": "uint256"
        },
        {
          "indexed": false,
          "internalType": "uint256",
          "name": "ticketSupply",
          "type": "uint256"
        },
        {
          "indexed": false,
          "internalType": "uint256",
          "name": "maxTicketAmountPerBuyer",
          "type": "uint256"
        },
        {
          "indexed": false,
          "internalType": "address",
          "name": "seller",
          "type": "address"
        },
        {
          "indexed": false,
          "internalType": "enum Manager.RAFFLETYPE",
          "name": "raffleType",
          "type": "uint8"
        },
        {
          "indexed": false,
          "internalType": "bool",
          "name": "operatorCreated",
          "type": "bool"
        }
      ],
      "name": "RaffleCreated",
      "type": "event"
    },
    {
      "anonymous": false,
      "inputs": [
        {
          "indexed": true,
          "internalType": "bytes32",
          "name": "raffleId",
          "type": "bytes32"
        },
        {
          "indexed": true,
          "internalType": "address",
          "name": "winner",
          "type": "address"
        },
        {
          "indexed": false,
          "internalType": "uint256",
          "name": "amountRaised",
          "type": "uint256"
        },
        {
          "indexed": false,
          "internalType": "uint256",
          "name": "randomNumber",
          "type": "uint256"
        }
      ],
      "name": "RaffleEnded",
      "type": "event"
    },
    {
      "anonymous": false,
      "inputs": [
        {
          "indexed": true,
          "internalType": "bytes32",
          "name": "id",
          "type": "bytes32"
        },
        {
          "indexed": false,
          "internalType": "uint256",
          "name": "randomNumber",
          "type": "uint256"
        },
        {
          "indexed": false,
          "internalType": "uint256",
          "name": "normalizedRandomNumber",
          "type": "uint256"
        }
      ],
      "name": "RandomNumberCreated",
      "type": "event"
    },
    {
      "anonymous": false,
      "inputs": [
        {
          "indexed": true,
          "internalType": "bytes32",
          "name": "raffleId",
          "type": "bytes32"
        },
        {
          "indexed": false,
          "internalType": "uint256",
          "name": "amountInWeis",
          "type": "uint256"
        },
        {
          "indexed": true,
          "internalType": "address",
          "name": "player",
          "type": "address"
        }
      ],
      "name": "Refund",
      "type": "event"
    },
    {
      "anonymous": false,
      "inputs": [
        {
          "indexed": true,
          "internalType": "bytes32",
          "name": "raffleId",
          "type": "bytes32"
        },
        {
          "indexed": false,
          "internalType": "uint256",
          "name": "amountInWeis",
          "type": "uint256"
        }
      ],
      "name": "RemainingFundsTransferred",
      "type": "event"
    },
    {
      "anonymous": false,
      "inputs": [
        {
          "indexed": true,
          "internalType": "bytes32",
          "name": "role",
          "type": "bytes32"
        },
        {
          "indexed": true,
          "internalType": "bytes32",
          "name": "previousAdminRole",
          "type": "bytes32"
        },
        {
          "indexed": true,
          "internalType": "bytes32",
          "name": "newAdminRole",
          "type": "bytes32"
        }
      ],
      "name": "RoleAdminChanged",
      "type": "event"
    },
    {
      "anonymous": false,
      "inputs": [
        {
          "indexed": true,
          "internalType": "bytes32",
          "name": "role",
          "type": "bytes32"
        },
        {
          "indexed": true,
          "internalType": "address",
          "name": "account",
          "type": "address"
        },
        {
          "indexed": true,
          "internalType": "address",
          "name": "sender",
          "type": "address"
        }
      ],
      "name": "RoleGranted",
      "type": "event"
    },
    {
      "anonymous": false,
      "inputs": [
        {
          "indexed": true,
          "internalType": "bytes32",
          "name": "role",
          "type": "bytes32"
        },
        {
          "indexed": true,
          "internalType": "address",
          "name": "account",
          "type": "address"
        },
        {
          "indexed": true,
          "internalType": "address",
          "name": "sender",
          "type": "address"
        }
      ],
      "name": "RoleRevoked",
      "type": "event"
    },
    {
      "anonymous": false,
      "inputs": [
        {
          "indexed": true,
          "internalType": "bytes32",
          "name": "raffleId",
          "type": "bytes32"
        },
        {
          "indexed": false,
          "internalType": "uint256",
          "name": "amountRaised",
          "type": "uint256"
        }
      ],
      "name": "SetWinnerTriggered",
      "type": "event"
    },
    {
      "inputs": [],
      "name": "DEFAULT_ADMIN_ROLE",
      "outputs": [
        {
          "internalType": "bytes32",
          "name": "",
          "type": "bytes32"
        }
      ],
      "stateMutability": "view",
      "type": "function"
    },
    {
      "inputs": [],
      "name": "OPERATOR_ROLE",
      "outputs": [
        {
          "internalType": "bytes32",
          "name": "",
          "type": "bytes32"
        }
      ],
      "stateMutability": "view",
      "type": "function"
    },
    {
      "inputs": [
        {
          "internalType": "bytes32",
          "name": "_raffleId",
          "type": "bytes32"
        },
        {
          "internalType": "uint256",
          "name": "_entryId",
          "type": "uint256"
        },
        {
          "internalType": "address",
          "name": "_collection",
          "type": "address"
        },
        {
          "internalType": "uint256",
          "name": "_tokenIdUsed",
          "type": "uint256"
        },
        {
          "internalType": "uint256",
          "name": "_discount",
          "type": "uint256"
        },
        {
          "internalType": "bytes",
          "name": "signature",
          "type": "bytes"
        }
      ],
      "name": "buyDiscountEntry",
      "outputs": [],
      "stateMutability": "payable",
      "type": "function"
    },
    {
      "inputs": [
        {
          "internalType": "bytes32",
          "name": "_raffleId",
          "type": "bytes32"
        },
        {
          "internalType": "uint256",
          "name": "_idOrTicketCount",
          "type": "uint256"
        },
        {
          "internalType": "address",
          "name": "_collection",
          "type": "address"
        },
        {
          "internalType": "uint256",
          "name": "_tokenIdUsed",
          "type": "uint256"
        }
      ],
      "name": "buyEntry",
      "outputs": [],
      "stateMutability": "payable",
      "type": "function"
    },
    {
      "inputs": [
        {
          "internalType": "bytes32",
          "name": "_raffleId",
          "type": "bytes32"
        },
        {
          "internalType": "uint256",
          "name": "_ticketCount",
          "type": "uint256"
        },
        {
          "internalType": "address",
          "name": "_collection",
          "type": "address"
        },
        {
          "internalType": "uint256",
          "name": "_tokenIdUsed",
          "type": "uint256"
        },
        {
          "internalType": "bytes",
          "name": "signature",
          "type": "bytes"
        }
      ],
      "name": "buyFreeEntry",
      "outputs": [],
      "stateMutability": "payable",
      "type": "function"
    },
    {
      "inputs": [
        {
          "internalType": "bytes32",
          "name": "_raffleId",
          "type": "bytes32"
        }
      ],
      "name": "cancelRaffle",
      "outputs": [],
      "stateMutability": "nonpayable",
      "type": "function"
    },
    {
      "inputs": [
        {
          "internalType": "bytes32",
          "name": "",
          "type": "bytes32"
        }
      ],
      "name": "chainlinkRaffleInfo",
      "outputs": [
        {
          "internalType": "bytes32",
          "name": "id",
          "type": "bytes32"
        },
        {
          "internalType": "uint256",
          "name": "size",
          "type": "uint256"
        }
      ],
      "stateMutability": "view",
      "type": "function"
    },
    {
      "inputs": [
        {
          "internalType": "bytes32",
          "name": "_raffleId",
          "type": "bytes32"
        }
      ],
      "name": "claimRefund",
      "outputs": [],
      "stateMutability": "nonpayable",
      "type": "function"
    },
    {
      "inputs": [
        {
          "internalType": "bytes32",
          "name": "",
          "type": "bytes32"
        }
      ],
      "name": "claimsData",
      "outputs": [
        {
          "internalType": "uint256",
          "name": "numTicketsPerUser",
          "type": "uint256"
        },
        {
          "internalType": "uint256",
          "name": "amountSpentInWeis",
          "type": "uint256"
        },
        {
          "internalType": "bool",
          "name": "claimed",
          "type": "bool"
        }
      ],
      "stateMutability": "view",
      "type": "function"
    },
    {
      "inputs": [
        {
          "internalType": "bytes32",
          "name": "",
          "type": "bytes32"
        },
        {
          "internalType": "uint256",
          "name": "",
          "type": "uint256"
        }
      ],
      "name": "entries",
      "outputs": [
        {
          "internalType": "uint256",
          "name": "currentEntriesLength",
          "type": "uint256"
        },
        {
          "internalType": "address",
          "name": "player",
          "type": "address"
        }
      ],
      "stateMutability": "view",
      "type": "function"
    },
    {
      "inputs": [
        {
          "internalType": "bytes32",
          "name": "",
          "type": "bytes32"
        }
      ],
      "name": "entriesCount",
      "outputs": [
        {
          "internalType": "uint256",
          "name": "",
          "type": "uint256"
        }
      ],
      "stateMutability": "view",
      "type": "function"
    },
    {
      "inputs": [
        {
          "internalType": "bytes32",
          "name": "",
          "type": "bytes32"
        }
      ],
      "name": "fundingList",
      "outputs": [
        {
          "internalType": "uint256",
          "name": "minTicketCount",
          "type": "uint256"
        },
        {
          "internalType": "uint256",
          "name": "maxTicketCount",
          "type": "uint256"
        }
      ],
      "stateMutability": "view",
      "type": "function"
    },
    {
      "inputs": [
        {
          "internalType": "bytes32",
          "name": "_raffleId",
          "type": "bytes32"
        },
        {
          "internalType": "address",
          "name": "_player",
          "type": "address"
        }
      ],
      "name": "getClaimData",
      "outputs": [
        {
          "components": [
            {
              "internalType": "uint256",
              "name": "numTicketsPerUser",
              "type": "uint256"
            },
            {
              "internalType": "uint256",
              "name": "amountSpentInWeis",
              "type": "uint256"
            },
            {
              "internalType": "bool",
              "name": "claimed",
              "type": "bool"
            }
          ],
          "internalType": "struct Manager.ClaimStruct",
          "name": "",
          "type": "tuple"
        }
      ],
      "stateMutability": "view",
      "type": "function"
    },
    {
      "inputs": [
        {
          "internalType": "bytes32",
          "name": "role",
          "type": "bytes32"
        }
      ],
      "name": "getRoleAdmin",
      "outputs": [
        {
          "internalType": "bytes32",
          "name": "",
          "type": "bytes32"
        }
      ],
      "stateMutability": "view",
      "type": "function"
    },
    {
      "inputs": [
        {
          "internalType": "bytes32",
          "name": "_raffleId",
          "type": "bytes32"
        },
        {
          "internalType": "uint256",
          "name": "_normalizedRandomNumber",
          "type": "uint256"
        }
      ],
      "name": "getWinnerAddressFromRandom",
      "outputs": [
        {
          "internalType": "address",
          "name": "",
          "type": "address"
        }
      ],
      "stateMutability": "view",
      "type": "function"
    },
    {
      "inputs": [
        {
          "internalType": "bytes32",
          "name": "role",
          "type": "bytes32"
        },
        {
          "internalType": "address",
          "name": "account",
          "type": "address"
        }
      ],
      "name": "grantRole",
      "outputs": [],
      "stateMutability": "nonpayable",
      "type": "function"
    },
    {
      "inputs": [
        {
          "internalType": "bytes32",
          "name": "role",
          "type": "bytes32"
        },
        {
          "internalType": "address",
          "name": "account",
          "type": "address"
        }
      ],
      "name": "hasRole",
      "outputs": [
        {
          "internalType": "bool",
          "name": "",
          "type": "bool"
        }
      ],
      "stateMutability": "view",
      "type": "function"
    },
    {
      "inputs": [
        {
          "internalType": "bytes32",
          "name": "",
          "type": "bytes32"
        }
      ],
      "name": "maxTicketCount",
      "outputs": [
        {
          "internalType": "uint256",
          "name": "",
          "type": "uint256"
        }
      ],
      "stateMutability": "view",
      "type": "function"
    },
    {
      "inputs": [
        {
          "components": [
            {
              "internalType": "enum Manager.RAFFLETYPE",
              "name": "raffleType",
              "type": "uint8"
            },
            {
              "internalType": "address",
              "name": "collateralAddress",
              "type": "address"
            },
            {
              "internalType": "uint256",
              "name": "collateralParam",
              "type": "uint256"
            },
            {
              "internalType": "uint256",
              "name": "minTicketCount",
              "type": "uint256"
            },
            {
              "internalType": "uint256",
              "name": "maxTicketCount",
              "type": "uint256"
            },
            {
              "internalType": "uint256",
              "name": "endTime",
              "type": "uint256"
            }
          ],
          "internalType": "struct Manager.OperatorCreateParam",
          "name": "_params",
          "type": "tuple"
        },
        {
          "components": [
            {
              "internalType": "uint256",
              "name": "id",
              "type": "uint256"
            },
            {
              "internalType": "uint256",
              "name": "numTickets",
              "type": "uint256"
            },
            {
              "internalType": "uint256",
              "name": "price",
              "type": "uint256"
            }
          ],
          "internalType": "struct Manager.PriceStructure[]",
          "name": "_prices",
          "type": "tuple[]"
        },
        {
          "internalType": "address[]",
          "name": "_collectionWhitelist",
          "type": "address[]"
        }
      ],
      "name": "operatorCreateRaffle",
      "outputs": [
        {
          "internalType": "bytes32",
          "name": "",
          "type": "bytes32"
        }
      ],
      "stateMutability": "payable",
      "type": "function"
    },
    {
      "inputs": [],
      "name": "platformFee",
      "outputs": [
        {
          "internalType": "uint256",
          "name": "",
          "type": "uint256"
        }
      ],
      "stateMutability": "view",
      "type": "function"
    },
    {
      "inputs": [
        {
          "internalType": "bytes32",
          "name": "",
          "type": "bytes32"
        },
        {
          "internalType": "uint256",
          "name": "",
          "type": "uint256"
        }
      ],
      "name": "prices",
      "outputs": [
        {
          "internalType": "uint256",
          "name": "id",
          "type": "uint256"
        },
        {
          "internalType": "uint256",
          "name": "numTickets",
          "type": "uint256"
        },
        {
          "internalType": "uint256",
          "name": "price",
          "type": "uint256"
        }
      ],
      "stateMutability": "view",
      "type": "function"
    },
    {
      "inputs": [
        {
          "internalType": "bytes32",
          "name": "",
          "type": "bytes32"
        }
      ],
      "name": "raffles",
      "outputs": [
        {
          "internalType": "enum Manager.RAFFLETYPE",
          "name": "raffleType",
          "type": "uint8"
        },
        {
          "internalType": "enum Manager.STATUS",
          "name": "status",
          "type": "uint8"
        },
        {
          "internalType": "bool",
          "name": "operatorCreated",
          "type": "bool"
        },
        {
          "internalType": "address",
          "name": "collateralAddress",
          "type": "address"
        },
        {
          "internalType": "uint256",
          "name": "collateralParam",
          "type": "uint256"
        },
        {
          "internalType": "address",
          "name": "winner",
          "type": "address"
        },
        {
          "internalType": "uint256",
          "name": "randomNumber",
          "type": "uint256"
        },
        {
          "internalType": "uint256",
          "name": "amountRaised",
          "type": "uint256"
        },
        {
          "internalType": "address",
          "name": "seller",
          "type": "address"
        },
        {
          "internalType": "uint256",
          "name": "endTime",
          "type": "uint256"
        },
        {
          "internalType": "uint256",
          "name": "cancellingDate",
          "type": "uint256"
        },
        {
          "internalType": "uint256",
          "name": "ticketPrice",
          "type": "uint256"
        }
      ],
      "stateMutability": "view",
      "type": "function"
    },
    {
      "inputs": [
        {
          "internalType": "bytes32",
          "name": "requestId",
          "type": "bytes32"
        },
        {
          "internalType": "uint256",
          "name": "randomness",
          "type": "uint256"
        }
      ],
      "name": "rawFulfillRandomness",
      "outputs": [],
      "stateMutability": "nonpayable",
      "type": "function"
    },
    {
      "inputs": [
        {
          "internalType": "bytes32",
          "name": "role",
          "type": "bytes32"
        },
        {
          "internalType": "address",
          "name": "account",
          "type": "address"
        }
      ],
      "name": "renounceRole",
      "outputs": [],
      "stateMutability": "nonpayable",
      "type": "function"
    },
    {
      "inputs": [
        {
          "internalType": "bytes32",
          "name": "",
          "type": "bytes32"
        }
      ],
      "name": "requests",
      "outputs": [
        {
          "internalType": "uint256",
          "name": "randomNumber",
          "type": "uint256"
        },
        {
          "internalType": "uint256",
          "name": "nomalizedRandomNumber",
          "type": "uint256"
        }
      ],
      "stateMutability": "view",
      "type": "function"
    },
    {
      "inputs": [
        {
          "internalType": "bytes32",
          "name": "",
          "type": "bytes32"
        }
      ],
      "name": "requiredNFTWallets",
      "outputs": [
        {
          "internalType": "address",
          "name": "",
          "type": "address"
        }
      ],
      "stateMutability": "view",
      "type": "function"
    },
    {
      "inputs": [
        {
          "internalType": "bytes32",
          "name": "role",
          "type": "bytes32"
        },
        {
          "internalType": "address",
          "name": "account",
          "type": "address"
        }
      ],
      "name": "revokeRole",
      "outputs": [],
      "stateMutability": "nonpayable",
      "type": "function"
    },
    {
      "inputs": [
        {
          "internalType": "bytes32",
          "name": "_raffleId",
          "type": "bytes32"
        },
        {
          "internalType": "uint256",
          "name": "_newMaxTicketCount",
          "type": "uint256"
        }
      ],
      "name": "setMaxTicketCount",
      "outputs": [],
      "stateMutability": "nonpayable",
      "type": "function"
    },
    {
      "inputs": [
        {
          "internalType": "uint256",
          "name": "_newFee",
          "type": "uint256"
        }
      ],
      "name": "setPlatformFee",
      "outputs": [],
      "stateMutability": "nonpayable",
      "type": "function"
    },
    {
      "inputs": [
        {
          "internalType": "address payable",
          "name": "_newAddress",
          "type": "address"
        }
      ],
      "name": "setSignerAddress",
      "outputs": [],
      "stateMutability": "nonpayable",
      "type": "function"
    },
    {
      "inputs": [
        {
          "internalType": "bytes32",
          "name": "_raffleId",
          "type": "bytes32"
        }
      ],
      "name": "setWinner",
      "outputs": [],
      "stateMutability": "nonpayable",
      "type": "function"
    },
    {
      "inputs": [],
      "name": "signer",
      "outputs": [
        {
          "internalType": "address",
          "name": "",
          "type": "address"
        }
      ],
      "stateMutability": "view",
      "type": "function"
    },
    {
      "inputs": [
        {
          "internalType": "bytes32",
          "name": "",
          "type": "bytes32"
        }
      ],
      "name": "soldTicketCount",
      "outputs": [
        {
          "internalType": "uint256",
          "name": "",
          "type": "uint256"
        }
      ],
      "stateMutability": "view",
      "type": "function"
    },
    {
      "inputs": [
        {
          "internalType": "bytes4",
          "name": "interfaceId",
          "type": "bytes4"
        }
      ],
      "name": "supportsInterface",
      "outputs": [
        {
          "internalType": "bool",
          "name": "",
          "type": "bool"
        }
      ],
      "stateMutability": "view",
      "type": "function"
    },
    {
      "inputs": [
        {
          "internalType": "address",
          "name": "to",
          "type": "address"
        }
      ],
      "name": "transferOwnership",
      "outputs": [],
      "stateMutability": "nonpayable",
      "type": "function"
    },
    {
      "inputs": [
        {
          "internalType": "bytes32",
          "name": "_raffleId",
          "type": "bytes32"
        }
      ],
      "name": "transferRemainingFunds",
      "outputs": [],
      "stateMutability": "nonpayable",
      "type": "function"
    },
    {
      "inputs": [
        {
          "components": [
            {
              "internalType": "enum Manager.RAFFLETYPE",
              "name": "raffleType",
              "type": "uint8"
            },
            {
              "internalType": "address",
              "name": "collateralAddress",
              "type": "address"
            },
            {
              "internalType": "uint256",
              "name": "collateralParam",
              "type": "uint256"
            },
            {
              "internalType": "uint256",
              "name": "ticketSupply",
              "type": "uint256"
            },
            {
              "internalType": "uint256",
              "name": "ticketPrice",
              "type": "uint256"
            },
            {
              "internalType": "uint256",
              "name": "endTime",
              "type": "uint256"
            }
          ],
          "internalType": "struct Manager.UserCreateParam",
          "name": "_params",
          "type": "tuple"
        },
        {
          "internalType": "address[]",
          "name": "_collectionWhitelist",
          "type": "address[]"
        },
        {
          "components": [
            {
              "internalType": "bytes32",
              "name": "r",
              "type": "bytes32"
            },
            {
              "internalType": "bytes32",
              "name": "s",
              "type": "bytes32"
            },
            {
              "internalType": "uint8",
              "name": "v",
              "type": "uint8"
            }
          ],
          "internalType": "struct Manager.Sig",
          "name": "_sig",
          "type": "tuple"
        }
      ],
      "name": "userCreateRaffle",
      "outputs": [
        {
          "internalType": "bytes32",
          "name": "",
          "type": "bytes32"
        }
      ],
      "stateMutability": "payable",
      "type": "function"
    },
    {
      "inputs": [],
      "name": "vault",
      "outputs": [
        {
          "internalType": "address",
          "name": "",
          "type": "address"
        }
      ],
      "stateMutability": "view",
      "type": "function"
    }
  ],
  "transactionHash": "0x22bee91ea736f20809698b2a4d6ab1bfa5c3c46b747816a770cdd59367ab160f",
  "args": [
    "0xacd603304Ec5a1Ee39c73aa974115Ef5f0f023b8",
    "0x70F8373e7da3fF7723cA997D5dA0ffb28452932B",
    "0x8C7382F9D8f56b33781fE506E897a4F1e2d17255",
    "0x326C977E6efc84E512bB9C30f76E30c160eD06FB",
    "0x6e75b569a01ef56d18cab6a8e71e6600d6ce853834d4a5748b720d06f878b3a4",
    "100000000000000"
  ],
  "numDeployments": 1,
  "solcInputHash": "03211f04084000f09bf40521cfe91428",
  "bytecode": "0x60e0346200016f57601f620051f138819003918201601f191683019291906001600160401b0384118385101762000174578160c092849260409687528339810103126200016f5762000051816200018a565b9062000060602082016200018a565b916200006e8483016200018a565b926200007d606084016200018a565b9160a06080850151940151946001805560a05260018060a01b03809316608052600560115560008080528060205286812033825260205260ff87822054161562000122575b5060c0521660018060a01b03196010541617601055600355600455516150519081620001a082396080518161364a015260a0518181816119ee01526136ca015260c0518181816101d80152818161053d01528181611e130152611ee10152f35b80805280602052868120338252602052868120600160ff19825416179055339033907f2f8788117e7eff1d82e926ec794901d17c78024a50270940304540a733656f0d8180a438620000c2565b600080fd5b634e487b7160e01b600052604160045260246000fd5b51906001600160a01b03821682036200016f5756fe608080604052600436101561001357600080fd5b600090813560e01c90816301ffc9a714613b4457508063046dc16614613aff57806312e8e2c314613adc5780631a0187f514613aa9578063238ac93314613a80578063248a9ca314613a5457806326232a2e14613a365780632a59680014613a025780632b39bc461461357d5780632f2ff15d146134cf57806336568abe1461343c57806342c8fa421461340857806353b0a9fc146132bf578063585acad414612cb45780635e320e0814612c1257806365f8d3af14612bb357806371ace689146127e457806371de2ffc146125f15780637d0c7bba146125c757806388e48035146121a057806391d1485414612155578063934907351461212b57806394985ddd146119dc578063969be2331461199c5780639d86698514611968578063a217fddf1461194c578063aa1d8d771461148e578063b11ce57c14610f66578063b967ed4614610f22578063baf0290514610edb578063d4ea07c014610eb1578063d547741f14610e71578063dbb19e2114610814578063de72b5f2146103e3578063e31ef12c14610304578063f2fde38b14610245578063f5b541a61461020a5763fbfa77cf146101c357600080fd5b346102075780600319360112610207576040517f00000000000000000000000000000000000000000000000000000000000000006001600160a01b03168152602090f35b80fd5b503461020757806003193601126102075760206040517f523a704056dcd17bcf83bed8b68c59416dac1119be77755efe3bde0a64e46e0c8152f35b503461020757602080600319360112610300576004356001600160a01b03811691908290036102fb57610276613c85565b82805282815261028c6001604085200154613fc4565b8280528281526040832082600052815260ff60406000205416156102ae578280f35b828052828152604083209082600052526040600020600160ff198254161790553390827f2f8788117e7eff1d82e926ec794901d17c78024a50270940304540a733656f0d8180a438808280f35b600080fd5b5080fd5b5034610207576020366003190112610207576004358152600d60205260408120805460ff8160081c1691600181015460018060a01b0390816002840154166003840154600485015491846005870154169360068701549560086007890154980154986040519a6103778c60ff8416613c62565b60068110156103cf576101809c5060208c015260ff8160101c16151560408c015260181c1660608a0152608089015260a088015260c087015260e0860152610100850152610120840152610140830152610160820152f35b634e487b7160e01b8d52602160045260248dfd5b5034610207576020366003190112610207576103fd614a36565b610405613e7f565b6004358152600d6020526040812060096040519161042283614122565b805461043160ff8216856143b7565b61044460ff8260081c16602086016143c3565b601081901c60ff16151560408581019190915260189190911c6001600160a01b039081166060860152600183015460808601526002830154811660a0860152600383015460c0860152600483015460e086015260058301541661010085015260068201546101208501526007820154610140850152600882015461016085015251910180548083529084526020808520918391820190865b8181106107f25750506104f192500382614187565b610180820152602081015160068110156107de5760056105119114614ad9565b61014081015162278d0081018091116107ca5742111561079457600260208201528180808060e08501517f00000000000000000000000000000000000000000000000000000000000000005af16105666145f0565b50156107595760e08101516040519081527f32959d1c815772f6bcf658a6cb1f04a9f1a98e41efbe542d9ec590f5244b8bef602060043592a28160e08201526004358252600d60205260408220815160038110156107455760ff801983541691161781556020820151600681101561074557816105e860099261018094614435565b6040840151815460608601516301000000600160b81b0360189190911b1662ff000092151560101b9290921662010000600160b81b0319909116171781556080840151600182015560a08401516002820180546001600160a01b039283166001600160a01b03199182161790915560c0860151600384015560e086015160048401556101008601516005840180549190931691161790556101208401516006820155610140840151600782015561016084015160088201559190920151805192909101906001600160401b03831161073157600160401b831161073157815483835580841061070b575b5060200190835260208320835b8381106106ee57846001805580f35b82516001600160a01b0316818301556020909201916001016106df565b828552836020862091820191015b81811061072657506106d2565b858155600101610719565b634e487b7160e01b84526041600452602484fd5b634e487b7160e01b84526021600452602484fd5b60405162461bcd60e51b81526020600482015260136024820152724661696c2073656e642045746820746f204d5760681b6044820152606490fd5b60405162461bcd60e51b815260206004820152600e60248201526d31b630b4b6903a37b79039b7b7b760911b6044820152606490fd5b634e487b7160e01b83526011600452602483fd5b634e487b7160e01b83526021600452602483fd5b84546001600160a01b03168352600194850194869450602090930192016104dc565b50366003190161010081126103005760c013610207576001600160401b0360c435116102075736602360c435011215610207576001600160401b0360c435600401351161020757366024606060c435600401350260c4350101116102075760e4356001600160401b03811161030057610891903690600401613bdb565b9061089a613e7f565b4260a4351115610e395760036004351015610c005761092e906108bb6143a1565b92604051936108c985614122565b6108d5600435866143b7565b8560208601526001604086015260018060a01b0316606085015260443560808501528460a08501528460c08501528460e08501523361010085015260a435610120850152846101408501528461016085015236916143cf565b61018082015261093d81614cad565b90818352600d6020526040832081516003811015610e255760ff8019835416911617815560208201516006811015610e25576109799082614435565b6040820151815460608401516301000000600160b81b0360189190911b1662ff000092151560101b9290921662010000600160b81b0319909116171781556080820151600182015560a08201516002820180546001600160a01b039283166001600160a01b03199182161790915560c0840151600384015560e08401516004840155610100840151600584018054919093169116179055610120820151600682015561014082015160078201556101608201516008820155610180820151805191906001600160401b038311610e1157600160401b8311610e11576009820154836009840155808410610de7575b506020600991019101855260208520855b838110610dca575050505060c4356004013515610d9957825b60c435600401358110610c455750608435610ad9604051610ab1816140f1565b6064358152826020820152848652600860205260408620906020600191805184550151910155565b60096020526005810460408520558360009260043515600014610c04576060810151608090910151906001600160a01b0316803b15610c00576040516323b872dd60e01b8152336004820152306024820152604481019290925282908290606490829084905af18015610bf557610bdd575b50505b610b566143a1565b918385526009602052604085205490610bd957602094506040519160a4358352858301526040820152336060820152610b9460808201600435613c62565b600160a0820152604435916001600160a01b03169083907f6e5c0fa59953352706c48202c24c7018e5045325db5f2cdc1ba287a25dce24dd9060c090a4604051908152f35b8480fd5b610be69061413e565b610bf1578338610b4b565b8380fd5b6040513d84823e3d90fd5b8280fd5b9050600435600203610c36576060810151608090910151610c3191309033906001600160a01b03166144b8565b610b4e565b6080610c319101513414614473565b6020610c5d8260c43560040135602460c43501614463565b013515610d6257610c7a8160c43560040135602460c43501614463565b8385526007602052610c8f8260408720613c0b565b919091610d4e57906002604083610d499594358455602081013560018501550135910155837f1b786b27159375b16f23d5e3d0b1b225ce08c1f07a9f35d81b76a12f49ff9e6b610ceb8360c43560040135602460c43501614463565b356020610d048560c43560040135602460c43501614463565b013590610d416040610d228760c43560040135602460c43501614463565b0135604051938493846040919493926060820195825260208201520152565b0390a2614454565b610a91565b634e487b7160e01b86526004869052602486fd5b60405162461bcd60e51b815260206004820152600f60248201526e06e756d5469636b657473206973203608c1b6044820152606490fd5b60405162461bcd60e51b81526020600482015260096024820152684e6f2070726963657360b81b6044820152606490fd5b82516001600160a01b031681830155602090920191600101610a78565b60098301875260208720908482015b8183018110610e06575050610a67565b888155600101610df6565b634e487b7160e01b86526041600452602486fd5b634e487b7160e01b85526021600452602485fd5b60405162461bcd60e51b815260206004820152601060248201526f496e76616c696420656e642074696d6560801b6044820152606490fd5b503461020757604036600319011261020757610eae600435610e91613b99565b9080845283602052610ea96001604086200154613fc4565b6141cd565b80f35b50346102075760203660031901126102075760406020916004358152600a83522054604051908152f35b50346102075760203660031901126102075760406060916004358152600e6020522080549060ff600260018301549201541690604051928352602083015215156040820152f35b503461020757602090610f3f610f3736613bc5565b819291614bba565b908252600c835260408220908252825260016040818060a01b039220015416604051908152f35b5060c036600319011261020757600435610f7e613baf565b906064356084359260a4356001600160401b03811161148a57610fa5903690600401613c35565b610fad614a36565b848752600d91602093838552610fcc600660408b2001544211156146b9565b86895283855260ff60408a205460101c161561142a578689528385526009958660408b2001546112a7575b50611003331515614865565b86895283855260ff60408a205460081c1660068110156112935761107f92611071611087959361103661107994156148a6565b604051898101913360601b83526001600160601b03199060601b1660348201528c6048820152604881526110698161416c565b519020614fbe565b923691614dab565b90614ee6565b919091614de2565b6010546001600160a01b03916110a291831690831614614a8c565b6110ae60243586614d02565b9560408488016110c081511515614907565b5197015190606403906064821161127f5792600080516020614ffc83398151915295949261115b60646110f68c95600b98614241565b6040805133898201908152602081018e9052939092049992611149928e92919061112c818385015b03601f198101835282614187565b5190209761113b8c3414614946565b888152600e8a52205461426a565b908a8d52865260408c2054101561499e565b878a52600a84526111896111738a60408d205461426a565b898c5260088652600160408d20015410156149ea565b878a52600a845260408a2061119f8a825461426a565b9055878a5284845260408a206111b58154614454565b9055878a5284845260408a205490604051916111d0836140f1565b82526001858301923384528a8d52600c875260408d208888528d60408120549052875260408d2090518155019151166001600160601b0360a01b82541617905586895282526004604089200161122734825461426a565b9055808852600e82526040882061123f88825461426a565b90558752600e81526001604088200161125934825461426a565b905584875252604080862054815195865260208601528401523392606090a36001805580f35b634e487b7160e01b89526011600452602489fd5b634e487b7160e01b8a52602160045260248afd5b899897969594939291906001600160a01b03908183168b808a6040828e5b81528b8d522001805482101561140d57856112e183869361475b565b90549060031b1c16146113035760406112fa8c92614454565b91908f8e6112c5565b50508798999a9b50966024919293949596976113246001805b151514614773565b604051928380926331a9108f60e11b82528660048301525afa801561140257611358918d916113d5575b50831633146147de565b604080516001600160a01b038516898201908152602081018c90529182019290925290611388816060840161111e565b51902090818b52600f875260408b20541680156000146113c457508952600f85526040892080546001600160a01b031916331790555b38610ff7565b6113d09150331461482a565b6113be565b6113f59150893d8b116113fb575b6113ed8183614187565b8101906147bf565b3861134e565b503d6113e3565b6040513d8e823e3d90fd5b505088999a9b9c5090611324600160249495969798999a9361131c565b60405162461bcd60e51b815260048101869052603260248201527f4f6e6c79206f70657261746f72206372656174656420726166666c652063616e604482015271103ab9b2903a3434b990333ab731ba34b7b760711b6064820152608490fd5b8580fd5b5034610207576020366003190112610207576114a8614a36565b6114b0613e7f565b6004358152600d60205260408120906009604051926114ce84614122565b80546114dd60ff8216866143b7565b6114f060ff8260081c16602087016143c3565b601081901c60ff16151560408681019190915260189190911c6001600160a01b039081166060870152600183015460808701526002830154811660a0870152600383015460c0870152600483015460e087015260058301541661010086015260068201546101208601526007820154610140860152600882015461016086015251910180548083529083526020808420918391820190855b81811061192a57505061159d92500382614187565b61018083015260208201516006811015611851576004141580611912575b806118fa575b806118e2575b806118ca575b6115d690614ad9565b6010546001600160a01b03163303611865575b6020820151600681101561185157156117ca575b60056020830152426101408301526004358152600d60205260408120825160038110156107de5760ff80198354169116178155602083015160068110156107de579061164b60099282614435565b6040840151815460608601516301000000600160b81b0360189190911b1662ff000092151560101b9290921662010000600160b81b0319909116171781556080840151600182015560a08401516002820180546001600160a01b039283166001600160a01b03199182161790915560c0860151600384015560e086015160048401556101008601516005840180549190931691161790556101208401516006820155610140840151600782015561016084015160088201556101808401518051929091019391906001600160401b03821161073157600160401b82116107315784548286558083106117a4575b5060200193835260208320835b828110611787578460e08501516040519081527fb0d756bc39086b9284e5d4678f72c54bd62b72be9b54b6bd569268782ef513da602060043592a26001805580f35b85516001600160a01b031681830155602090950194600101611745565b858552826020862091820191015b8181106117bf5750611738565b8581556001016117b2565b60608201516101008301516080840151916001600160a01b039081169116813b15610bf1576040516323b872dd60e01b81523060048201526001600160a01b03919091166024820152604481019290925282908290606490829084905af18015610bf55790829161183d575b50506115fd565b6118469061413e565b610207578038611836565b634e487b7160e01b82526021600452602482fd5b6101008201516001600160a01b031633146115e95760405162461bcd60e51b815260206004820152602260248201527f596f7520617265206e6f742063726561746f72206f66207468697320726166666044820152616c6560f01b6064820152608490fd5b506020820151600681101561185157600514156115cd565b506020820151600681101561185157600314156115c7565b506020820151600681101561185157600114156115c1565b506020820151600681101561185157600214156115bb565b84546001600160a01b0316835260019485019486945060209093019201611588565b5034610207578060031936011261020757602090604051908152f35b5034610207576020366003190112610207576040809160043581526005602052206001815491015482519182526020820152f35b503461020757604080916119af36613bc5565b908252600c602052828220908252602052208054906001808060a01b039101541682519182526020820152f35b5034610207576119eb36613bc5565b907f00000000000000000000000000000000000000000000000000000000000000006001600160a01b031633036120e6578252600660205260408220600160405191611a36836140f1565b80548352015480602083015280156120d2578206916001830183116120be57611a8a604051611a64816140f1565b828152600185810160208084019182528651895260059052604088209251835551910155565b7fff486f05d067208b7216d632d19c54cb41186fe61068eaeeacfb06210805e01c60408351928151908152600186016020820152a251611ac8614a36565b808352600d6020526040832091600960405193611ae485614122565b8054611af360ff8216876143b7565b611b0660ff8260081c16602088016143c3565b601081901c60ff16151560408781019190915260189190911c6001600160a01b039081166060880152600183015460808801526002830154811660a0880152600383015460c0880152600483015460e088015260058301541661010087015260068201546101208701526007820154610140870152600882015461016087015251910180548083529086526020808720918391820190885b81811061209c575050611bb392500382614187565b61018084015260208301516006811015610e25576001148015612085575b15612047576001810160c0840152611bec6001820183614bba565b828552600c60209081526040808720928752918152818620600101546001600160a01b031660a0860152600485820152838652600d90528420835160038110156120335760ff801983541691161781556020840151600681101561203357611c549082614435565b6040840151815460608601516301000000600160b81b0360189190911b1662ff000092151560101b9290921662010000600160b81b0319909116171781556080840151600182015560a08401516002820180546001600160a01b039283166001600160a01b03199182161790915560c0860151600384015560e08601516004840155610100860151600584018054919093169116179055610120840151600682015561014084015160078201556101608401516008820155610180840151805191906001600160401b03831161201f57600160401b831161201f576009820154836009840155808410611ff5575b506020600991019101865260208620865b838110611fd8575050505082516003811015610e2557611f2957606083015160a0840151608085015186926001600160a01b03908116921690823b15610bf1576040516323b872dd60e01b81523060048201526001600160a01b0392909216602483015260448201529082908290606490829084905af18015610bf557611f15575b505060407fddef822e4f86942c2bd4737756efdcd1f22d2284eededd92b39955451df3dad7915b8482015115611e6957611e428680808060e08a01517f00000000000000000000000000000000000000000000000000000000000000005af1611e3c6145f0565b50614b76565b600160e0818060a01b0360a088015116960151918351928352016020820152a36001805580f35b837f3104eff20ec1a7cebcdc5b1ec674d0ce059761a56f6aab472652c327d9b61b5c60206064611ea060e08a015160115490614241565b04611ed78a8080808d611eb78760e0830151614acc565b610100909101516001600160a01b03165af1611ed16145f0565b50614b33565b611f0a8a808080857f00000000000000000000000000000000000000000000000000000000000000005af1611e3c6145f0565b8551908152a2611e42565b611f1e9061413e565b610bf1578338611dd5565b82516003811015610e25577fddef822e4f86942c2bd4737756efdcd1f22d2284eededd92b39955451df3dad791604091600203611fb457606085015160a08601516080870151845163a9059cbb60e01b60208201526001600160a01b039283166024820152604480820192909252908152611faf92909116611faa8261416c565b614516565b611dfc565b611faf8680808060018060a01b0360a08b01511660808b0151905af1611ed16145f0565b82516001600160a01b031681830155602090920191600101611d53565b60098301885260208820908482015b8183018110612014575050611d42565b898155600101612004565b634e487b7160e01b87526041600452602487fd5b634e487b7160e01b86526021600452602486fd5b60405162461bcd60e51b8152602060048201526016602482015275526166666c6520696e2077726f6e672073746174757360501b6044820152606490fd5b5060208301516006811015610e2557600314611bd1565b84546001600160a01b0316835260019485019486945060209093019201611b9e565b634e487b7160e01b84526011600452602484fd5b634e487b7160e01b84526012600452602484fd5b60405162461bcd60e51b815260206004820152601f60248201527f4f6e6c7920565246436f6f7264696e61746f722063616e2066756c66696c6c006044820152606490fd5b50346102075760203660031901126102075760406020916004358152600b83522054604051908152f35b5034610207576040366003190112610207576040612171613b99565b91600435815280602052209060018060a01b0316600052602052602060ff604060002054166040519015158152f35b5060a0366003190112610207576004356024356121bb613baf565b91606435926084356001600160401b03811161148a576121df903690600401613c35565b6121ea929192614a36565b838752600d90602093828552612209600660408b2001544211156146b9565b612214871515614705565b8589528285526009938460408b20015461244e575b50909192939495965061223d331515614865565b85885282855260ff604089205460081c16600681101561243a579161107961107f9261226c61229595156148a6565b611071604051898101903360601b82528b60348201528c6054820152605481526110698161416c565b6010546001600160a01b03916122b091831690831614614a8c565b604080513386820190815260208101889052612301929091906122d6908290840161111e565b51902093848952600e86526122ef8860408b205461426a565b90878a5286526040892054101561499e565b848752600a845261232f6123198760408a205461426a565b86895260088652600160408a20015410156149ea565b848752600a84526040872061234587825461426a565b9055848752600b84526040872061235c8154614454565b9055848752600b845260408720549060405191612378836140f1565b8252600185830192338452878a52600c875260408a20600b885260408b20548b52875260408a2090518155019151166001600160601b0360a01b8254161790558386528252600460408620016123cf34825461426a565b9055808552600e8252604085206123e785825461426a565b90558452600e81526001604085200161240134825461426a565b9055818452600b8152604084205490604051938452830152826040830152600080516020614ffc83398151915260603393a36001805580f35b634e487b7160e01b89526021600452602489fd5b85908a99888b8c896040828b60018060a01b03998a8a16975b835252200180548210156125aa578661248183869361475b565b90549060031b1c16146124a657604061249a8b92614454565b91908f8b8f8f90612467565b505088999a9b5097602491929394959697986124c6600180151514614773565b604051928380926331a9108f60e11b82528660048301525afa918c831561259e5761111e9361252d936125039291612581575b50861633146147de565b6040519283918c8c84019687604091949392606082019560018060a01b0316825260208201520152565b51902090818a52600f875260408a205416801560001461257057508852600f85526040882080546001600160a01b031916331790555b9086959493929138612229565b61257c9150331461482a565b612563565b61259891508c8d3d106113fb576113ed8183614187565b386124f9565b604051903d90823e3d90fd5b5050899a9b9c50906124c6600160249495969798999a9b9361131c565b50346102075760203660031901126102075760406020916004358152600983522054604051908152f35b5034610207576020806003193601126103005760043561260f614a36565b808352600d82526040832060ff815460081c166006811015610e25576005036127b057600781015462278d00810180911161279c574211612762576040805133858201908152602081018590529161266a908290840161111e565b5190208452600e83526040842090600282019060ff82541661272a5760040161269b60018254940193845490614acc565b9055600160ff19825416179055838080808454335af16126b96145f0565b50156126f2575460405190815233927f9fcdf5658d5b646297a256c6996784bb11a370781b3fcf998145c309588796a191a36001805580f35b60405162461bcd60e51b815260048101849052601060248201526f11985a5b081cd95b99081c99599d5b9960821b6044820152606490fd5b60405162461bcd60e51b815260048101869052601060248201526f185b1c9958591e481c99599d5b99195960821b6044820152606490fd5b60405162461bcd60e51b815260048101849052601260248201527118db185a5b481d1a5b5948195e1c1a5c995960721b6044820152606490fd5b634e487b7160e01b85526011600452602485fd5b60405162461bcd60e51b815260048101849052600c60248201526b77726f6e672073746174757360a01b6044820152606490fd5b506080366003190112610207576024356004356127ff613baf565b906064359261280c614a36565b818552600d9060209082825261282b60066040892001544211156146b9565b83875282825260ff604088205460101c168015612baa575b61284c90614705565b83875282825260099485604089200154612a50575b50909192939450612873331515614865565b83865282825260ff604087205460081c166006811015612a3c5761289790156148a6565b83865282825260408620805460101c60ff1615612a125750600080516020614ffc83398151915292916128cc600b9286614d02565b9560408288016128de81511515614907565b51970151935b6040805133858201908152602081018a90526129409290919061290a908290840161111e565b51902092612919873414614946565b838b52600e855261292e8a60408d205461426a565b90898c52855260408b2054101561499e565b868952600a835261296e6129588960408c205461426a565b888b5260088552600160408c20015410156149ea565b868952600a83526040892061298489825461426a565b90558689528383526040892061299a8154614454565b90558689528383526040892054604051906129b4826140f1565b8152600184820191338352898c52600c865260408c2087875260408d20548d52865260408c2090518155019060018060a01b039051166001600160601b0360a01b82541617905586895282526004604089200161122734825461426a565b9491600080516020614ffc8339815191529392612a36836008600b95990154614241565b936128e4565b634e487b7160e01b87526021600452602487fd5b87966001600160a01b039190828216895b888c528787528960408d20018054821015612b925785612a8283859361475b565b90549060031b1c1614612a9d57612a9890614454565b612a61565b5085969798995094602492939495612ab9600180151514614773565b604051938480926331a9108f60e11b82528560048301525afa908115612b8757612af4612b1e9261111e948d91612b705750861633146147de565b6040519283918a8984019687604091949392606082019560018060a01b0316825260208201520152565b51902090818852600f84526040882054168015600014612b5f57508652600f82526040862080546001600160a01b031916331790555b908493929138612861565b612b6b9150331461482a565b612b54565b6125989150893d8b116113fb576113ed8183614187565b6040513d8c823e3d90fd5b505094602492939495612ab9600183999a9b9c61131c565b50801515612843565b503461020757612bc236613bc5565b9082526007602052604082206005821015610c0057612be19250613c0b565b508054612c0e60026001840154930154604051938493846040919493926060820195825260208201520152565b0390f35b5034610207576040366003190112610207576040606091612c31613b99565b612c39614b14565b5082516001600160a01b0390911660208201908152600435604083015290612c64816060810161111e565b5190208152600e60205220604051612c7b81614151565b815491828252604060ff600260018401549360208601948552015416920191151582526040519283525160208301525115156040820152f35b50366003190161014081126103005760c0136102075760c4356001600160401b03811161030057612ce9903690600401613bdb565b9060603660e3190112610c00576201518042018042116120be5760a4351015806132a7575b1561324b57612d1b6143a1565b60405160208101913360601b83526001600160601b03199060601b16603482015260288152612d4981614151565b51902060405160208101917f19457468657265756d205369676e6564204d6573736167653a0a3332000000008352603c820152603c8152612d8981614151565b5190206010546001600160a01b031690846101243560ff8116810361030057602092612ddd604051928392610104359160e43591859094939260ff6060936080840197845216602083015260408201520152565b838052039060015afa156132405783516001600160a01b0316036131f05760036004351015610c0057612e8690612e126143a1565b9260405193612e2085614122565b612e2c600435866143b7565b85602086015285604086015260018060a01b0316606085015260443560808501528460a08501528460c08501528460e08501523361010085015260a4356101208501528461014085015260843561016085015236916143cf565b610180820152612e9581614cad565b90818352600d6020526040832081516003811015610e255760ff8019835416911617815560208201516006811015610e2557612ed19082614435565b6040820151815460608401516301000000600160b81b0360189190911b1662ff000092151560101b9290921662010000600160b81b0319909116171781556080820151600182015560a08201516002820180546001600160a01b039283166001600160a01b03199182161790915560c0840151600384015560e08401516004840155610100840151600584018054919093169116179055610120820151600682015561014082015160078201556101608201516008820155610180820151805191906001600160401b038311610e1157600160401b8311610e115760098201548360098401558084106131c6575b506020600991019101855260208520855b8381106131a95750505050606435613013604051612fed816140f1565b858152826020820152848652600860205260408620906020600191805184550151910155565b60096020526005810460408520558380926004351560001461316757608060018060a01b03606083015116910151813b15610c00576040516323b872dd60e01b8152336004820152306024820152604481019190915291908290606490829084905af1801561315c57613149575b505b827f1b786b27159375b16f23d5e3d0b1b225ce08c1f07a9f35d81b76a12f49ff9e6b606060405160018152600160208201526084356040820152a26130c66143a1565b918385526009602052604085205490610bd957602094506040519160a435835285830152604082015233606082015261310460808201600435613c62565b600060a0820152604435916001600160a01b03169083907f6e5c0fa59953352706c48202c24c7018e5045325db5f2cdc1ba287a25dce24dd9060c090a4604051908152f35b6131559094919461413e565b9238613081565b6040513d87823e3d90fd5b90925060043560020361319a57606081015160809091015161319591309033906001600160a01b03166144b8565b613083565b60806131959101513414614473565b82516001600160a01b031681830155602090920191600101612fd0565b60098301875260208720908482015b81830181106131e5575050612fbf565b8881556001016131d5565b60405162461bcd60e51b815260206004820152602260248201527f5468697320636f6c6c656374696f6e206973206e6f742077686974656c697374604482015261195960f21b6064820152608490fd5b6040513d85823e3d90fd5b60405162461bcd60e51b815260206004820152602e60248201527f496e76616c696420656e642074696d65202d204d696e3a20323420686f75727360448201526d2c204d61783a203134206461797360901b6064820152608490fd5b506212750042018042116120be5760a4351115612d0e565b5034610207576132ce36613bc5565b6132d6613c85565b80156133b35781835260086020526001604084200154811161332d5760207fce73a3d8ee8618d2036857819ba18b5adcf3c36c73c3e76b483bdc75b705709b9183855260098252806040862055604051908152a280f35b60405162461bcd60e51b815260206004820152605260248201527f4d6178207469636b657420636f756e74206d757374206265206c65737320746860448201527f616e206f7220657175616c20746f20746865206d6178207469636b657420636f606482015271756e74206f66207468652066756e64696e6760701b608482015260a490fd5b60405162461bcd60e51b815260206004820152602760248201527f4d6178207469636b657420636f756e74206d75737420626520677265617465726044820152660207468616e20360cc1b6064820152608490fd5b5034610207576020366003190112610207576040809160043581526008602052206001815491015482519182526020820152f35b503461020757604036600319011261020757613456613b99565b336001600160a01b0382160361347257610eae906004356141cd565b60405162461bcd60e51b815260206004820152602f60248201527f416363657373436f6e74726f6c3a2063616e206f6e6c792072656e6f756e636560448201526e103937b632b9903337b91039b2b63360891b6064820152608490fd5b5034610207576040366003190112610207576004356134ec613b99565b818352826020526135036001604085200154613fc4565b818352602083815260408085206001600160a01b039093168086529290915283205460ff1615613531578280f35b818352826020526040832081845260205260408320600160ff1982541617905533917f2f8788117e7eff1d82e926ec794901d17c78024a50270940304540a733656f0d8480a438808280f35b503461020757602080600319360112610300576004359061359c614a36565b818352600d81526040832060088252604084206001604051916135be836140f1565b805483520154838201526010546001600160a01b039190821633036139b157600683015442111561396c5782549060ff8260081c1660068110156139585761360690156148a6565b60ff8260101c1615908115613940575b50156138fb5761ff001916610300178255838552600b835260408086205490516370a0823160e01b815230600482015290917f000000000000000000000000000000000000000000000000000000000000000081168583602481845afa9283156138f05788936138bd575b506004548093111561386457613705918691600354948a604051938786860152816040860152604085526136b485614151565b60405196879586948593630200057560e51b85527f000000000000000000000000000000000000000000000000000000000000000016600485015260248401526060604484015260648301906141a8565b03925af180156138595761382c575b508086526002845260408620546040518581019183835288604083015230606083015260808201526080815260a08101918183106001600160401b038411176138185782604052815190209083895260028752604089205460018101809111613804579260019260e086936004989660408e7f83862d9f9127159f912dd9234a8048bca91595db69928e52e7f9c07d66b1edfa9d9c9a815260028d52205560c081019485520152604081526137c881614151565b51902091604051926137d9846140f1565b8884528684019182528952600686526040892092518355519101550154604051908152a26001805580f35b634e487b7160e01b8a52601160045260248afd5b634e487b7160e01b89526041600452602489fd5b61384b90853d8711613852575b6138438183614187565b8101906144fe565b5038613714565b503d613839565b6040513d89823e3d90fd5b60405162461bcd60e51b815260048101879052602b60248201527f4e6f7420656e6f756768204c494e4b202d2066696c6c20636f6e74726163742060448201526a1dda5d1a0819985d58d95d60aa1b6064820152608490fd5b9092508581813d83116138e9575b6138d58183614187565b810103126138e557519138613681565b8780fd5b503d6138cb565b6040513d8a823e3d90fd5b60405162461bcd60e51b815260048101859052601760248201527f4e6f7420656e6f7567682066756e6473207261697365640000000000000000006044820152606490fd5b9050858752600a855260408720549051111538613616565b634e487b7160e01b88526021600452602488fd5b60405162461bcd60e51b815260048101859052601a60248201527f526166666c65206973206e6f742066696e6973686564207965740000000000006044820152606490fd5b60405162461bcd60e51b8152600481018590526024808201527f596f7520617265206e6f74207369676e6572206f66207468697320636f6e747260448201526330b1ba1760e11b6064820152608490fd5b5034610207576020366003190112610207576040809160043581526006602052206001815491015482519182526020820152f35b50346102075780600319360112610207576020601154604051908152f35b503461020757602036600319011261020757600160406020926004358152808452200154604051908152f35b50346102075780600319360112610207576010546040516001600160a01b039091168152602090f35b5034610207576020366003190112610207576020906004358152600f8252604060018060a01b0391205416604051908152f35b503461020757602036600319011261020757613af6613c85565b60043560115580f35b5034610207576020366003190112610207576004356001600160a01b0381169081900361030057613b2e613c85565b6001600160601b0360a01b601054161760105580f35b9050346103005760203660031901126103005760043563ffffffff60e01b8116809103610c005760209250637965db0b60e01b8114908115613b88575b5015158152f35b6301ffc9a760e01b14905038613b81565b602435906001600160a01b03821682036102fb57565b604435906001600160a01b03821682036102fb57565b60409060031901126102fb576004359060243590565b9181601f840112156102fb578235916001600160401b0383116102fb576020808501948460051b0101116102fb57565b906005811015613c1f576003020190600090565b634e487b7160e01b600052603260045260246000fd5b9181601f840112156102fb578235916001600160401b0383116102fb57602083818601950101116102fb57565b906003821015613c6f5752565b634e487b7160e01b600052602160045260246000fd5b3360009081527fad3228b676f7d3cd4284a5443f17f1962b36e491b30a40b2405849e597ba5fb5602090815260408083205490929060ff1615613cc757505050565b613cd0336142a3565b9080845190613cde8261416c565b60428252848201926060368537825115613e6b5760308453825190600191821015613e6b5790607860218501536041915b818311613dfd57505050613dbb576048613db7938693613d9b93613d8c985198899376020b1b1b2b9b9a1b7b73a3937b61d1030b1b1b7bab73a1604d1b8a860152613d63815180928c6037890191016140ce565b8401917001034b99036b4b9b9b4b733903937b6329607d1b6037840152518093868401906140ce565b01036028810187520185614187565b5192839262461bcd60e51b8452600484015260248301906141a8565b0390fd5b60648486519062461bcd60e51b825280600483015260248201527f537472696e67733a20686578206c656e67746820696e73756666696369656e746044820152fd5b909192600f81166010811015613e57576f181899199a1a9b1b9c1cb0b131b232b360811b901a613e2d8587614292565b5360041c928015613e4357600019019190613d0f565b634e487b7160e01b82526011600452602482fd5b634e487b7160e01b83526032600452602483fd5b634e487b7160e01b81526032600452602490fd5b3360009081527f84779ab8c2db004a3e75bfe114d2b98838cc68288e8e29039ab1b1e132f853bc602090815260408083205490927f523a704056dcd17bcf83bed8b68c59416dac1119be77755efe3bde0a64e46e0c9160ff1615613ee35750505050565b613eec336142a3565b91845190613ef98261416c565b60428252848201926060368537825115613e6b5760308453825190600191821015613e6b5790607860218501536041915b818311613f7e57505050613dbb576048613db7938693613d9b93613d8c985198899376020b1b1b2b9b9a1b7b73a3937b61d1030b1b1b7bab73a1604d1b8a860152613d63815180928c6037890191016140ce565b909192600f81166010811015613e57576f181899199a1a9b1b9c1cb0b131b232b360811b901a613fae8587614292565b5360041c928015613e4357600019019190613f2a565b600090808252602090828252604092838120338252835260ff848220541615613fed5750505050565b613ff6336142a3565b918451906140038261416c565b60428252848201926060368537825115613e6b5760308453825190600191821015613e6b5790607860218501536041915b81831161408857505050613dbb576048613db7938693613d9b93613d8c985198899376020b1b1b2b9b9a1b7b73a3937b61d1030b1b1b7bab73a1604d1b8a860152613d63815180928c6037890191016140ce565b909192600f81166010811015613e57576f181899199a1a9b1b9c1cb0b131b232b360811b901a6140b88587614292565b5360041c928015613e4357600019019190614034565b60005b8381106140e15750506000910152565b81810151838201526020016140d1565b604081019081106001600160401b0382111761410c57604052565b634e487b7160e01b600052604160045260246000fd5b6101a081019081106001600160401b0382111761410c57604052565b6001600160401b03811161410c57604052565b606081019081106001600160401b0382111761410c57604052565b608081019081106001600160401b0382111761410c57604052565b90601f801991011681019081106001600160401b0382111761410c57604052565b906020916141c1815180928185528580860191016140ce565b601f01601f1916010190565b9060009180835282602052604083209160018060a01b03169182845260205260ff6040842054166141fd57505050565b80835282602052604083208284526020526040832060ff1981541690557ff6391f5c32d9c69d2a47ea670b442974b53935d1edc7fd64eb21e047a839171b339380a4565b8181029291811591840414171561425457565b634e487b7160e01b600052601160045260246000fd5b9190820180921161425457565b6001600160401b03811161410c57601f01601f191660200190565b908151811015613c1f570160200190565b604051906142b082614151565b602a8252602082016040368237825115613c1f57603090538151600190811015613c1f57607860218401536029905b8082116143335750506142ef5790565b606460405162461bcd60e51b815260206004820152602060248201527f537472696e67733a20686578206c656e67746820696e73756666696369656e746044820152fd5b9091600f8116601081101561438c576f181899199a1a9b1b9c1cb0b131b232b360811b901a6143628486614292565b5360041c9180156143775760001901906142df565b60246000634e487b7160e01b81526011600452fd5b60246000634e487b7160e01b81526032600452fd5b6024356001600160a01b03811681036102fb5790565b6003821015613c6f5752565b6006821015613c6f5752565b9092916001600160401b03841161410c578360051b60405192602080946143f882850182614187565b80978152019181019283116102fb57905b8282106144165750505050565b81356001600160a01b03811681036102fb578152908301908301614409565b906006811015613c6f5761ff0082549160081b169061ff001916179055565b60001981146142545760010190565b9190811015613c1f576060020190565b1561447a57565b60405162461bcd60e51b8152602060048201526016602482015275125b9d985b1a590819195c1bdcda5d08185b5bdd5b9d60521b6044820152606490fd5b6040516323b872dd60e01b60208201526001600160a01b0392831660248201529290911660448301526064808301939093529181526144fc91611faa608483614187565b565b908160209103126102fb575180151581036102fb5790565b604051614574916001600160a01b031661452f826140f1565b6000806020958685527f5361666545524332303a206c6f772d6c6576656c2063616c6c206661696c656487860152868151910182855af161456e6145f0565b91614620565b8051908161458157505050565b82806145919383010191016144fe565b156145995750565b6084906040519062461bcd60e51b82526004820152602a60248201527f5361666545524332303a204552433230206f7065726174696f6e20646964206e6044820152691bdd081cdd58d8d9595960b21b6064820152fd5b3d1561461b573d9061460182614277565b9161460f6040519384614187565b82523d6000602084013e565b606090565b919290156146825750815115614634575090565b3b1561463d5790565b60405162461bcd60e51b815260206004820152601d60248201527f416464726573733a2063616c6c20746f206e6f6e2d636f6e74726163740000006044820152606490fd5b8251909150156146955750805190602001fd5b60405162461bcd60e51b815260206004820152908190613db79060248301906141a8565b156146c057565b60405162461bcd60e51b815260206004820152601760248201527f526166666c6520616c72656164792066696e69736865640000000000000000006044820152606490fd5b1561470c57565b60405162461bcd60e51b815260206004820152602160248201527f5469636b657420636f756e742073686f756c6420626967676572207468616e206044820152600360fc1b6064820152608490fd5b8054821015613c1f5760005260206000200190600090565b1561477a57565b60405162461bcd60e51b815260206004820152601a60248201527f4e6f7420696e20726571756972656420636f6c6c656374696f6e0000000000006044820152606490fd5b908160209103126102fb57516001600160a01b03811681036102fb5790565b156147e557565b60405162461bcd60e51b815260206004820152601860248201527f4e6f7420746865206f776e6572206f6620746f6b656e496400000000000000006044820152606490fd5b1561483157565b60405162461bcd60e51b815260206004820152600c60248201526b1d1bdad95b9259081d5cd95960a21b6044820152606490fd5b1561486c57565b60405162461bcd60e51b81526020600482015260126024820152711b5cd9cb9cd95b99195c881a5cc81b9d5b1b60721b6044820152606490fd5b156148ad57565b60405162461bcd60e51b815260206004820152602c60248201527f526166666c65206973206e6f7420696e2063726561746564206f7220616c726560448201526b18591e48199a5b9a5cda195960a21b6064820152608490fd5b1561490e57565b60405162461bcd60e51b815260206004820152601060248201526f1a59081b9bdd081cdd5c1c1bdc9d195960821b6044820152606490fd5b1561494d57565b60405162461bcd60e51b8152602060048201526024808201527f6d73672e76616c7565206d75737420626520657175616c20746f2074686520706044820152637269636560e01b6064820152608490fd5b156149a557565b60405162461bcd60e51b815260206004820152601960248201527f426f7567687420746f6f206d616e7920656e74726965732829000000000000006044820152606490fd5b156149f157565b60405162461bcd60e51b815260206004820152601860248201527f4d6178207469636b657420616d6f756e742065786365656400000000000000006044820152606490fd5b600260015414614a47576002600155565b60405162461bcd60e51b815260206004820152601f60248201527f5265656e7472616e637947756172643a207265656e7472616e742063616c6c006044820152606490fd5b15614a9357565b60405162461bcd60e51b8152602060048201526011602482015270496e76616c6964207369676e617475726560781b6044820152606490fd5b9190820391821161425457565b15614ae057565b60405162461bcd60e51b815260206004820152600c60248201526b57726f6e672073746174757360a01b6044820152606490fd5b60405190614b2182614151565b60006040838281528260208201520152565b15614b3a57565b60405162461bcd60e51b81526020600482015260146024820152732330b4b632b2103a379039b2b7321022ba3432b960611b6044820152606490fd5b15614b7d57565b60405162461bcd60e51b81526020600482015260156024820152744661696c65642073656e642045746820746f204d5760581b6044820152606490fd5b600090808252602092600b8452604080842054948515614ca45784955b808710614c5b57508515159384614c1c575b50505050600014614c18576000198201918211614c04575090565b634e487b7160e01b81526011600452602490fd5b5090565b8552600c81528185209293509091906000198601868111614c47578552528220541438808080614be9565b634e487b7160e01b86526011600452602486fd5b600190614c6e818918831c828a1661426a565b91868852600c84528488208389528452858589205411600014614c92575050614bd7565b9097508101809111614c475795614bd7565b50505050905090565b8051906003821015613c6f576080606082015191015160405191602083019360f81b84526001600160601b03199060601b166021830152603582015243605582015260558152614cfc8161416c565b51902090565b614d0a614b14565b5060005b60058110614d3a57505050604051614d2581614151565b60008152600060208201526000604082015290565b81600052600760209080825260409085614d578584600020613c0b565b505414614d6f57505050614d6a90614454565b614d0e565b614d889295506002939194600052855283600020613c0b565b50825193614d9585614151565b8154855260018201549085015201549082015290565b929192614db782614277565b91614dc56040519384614187565b8294818452818301116102fb578281602093846000960137010152565b6005811015613c6f5780614df35750565b60018103614e405760405162461bcd60e51b815260206004820152601860248201527f45434453413a20696e76616c6964207369676e617475726500000000000000006044820152606490fd5b60028103614e8d5760405162461bcd60e51b815260206004820152601f60248201527f45434453413a20696e76616c6964207369676e6174757265206c656e677468006044820152606490fd5b600314614e9657565b60405162461bcd60e51b815260206004820152602260248201527f45434453413a20696e76616c6964207369676e6174757265202773272076616c604482015261756560f01b6064820152608490fd5b906041815114600014614f1457614f10916020820151906060604084015193015160001a90614f1e565b9091565b5050600090600290565b939291907f7fffffffffffffffffffffffffffffff5d576e7357a4501ddfe92f46681b20a08311614fb15791614f759160209360405196879094939260ff6060936080840197845216602083015260408201520152565b836000948592838052039060015afa15614fa45781516001600160a01b03811615614f9e579190565b50600190565b50604051903d90823e3d90fd5b5050509050600090600390565b60405160208101917f19457468657265756d205369676e6564204d6573736167653a0a3332000000008352603c820152603c8152614cfc8161415156fe2b6e2ac0f1dd5b1efc9eedda61fa733184aeec619f0b8359452b9aaef93c7acaa26469706673582212208293d3a17b18990511f51d800ee1c4249744452dace94716a643cecb03d7bf1764736f6c63430008130033",
  "devdoc": {
    "details": "It saves in an ordered array the player wallet and the current entries count. So buying entries has a complexity of O(1) For calculating the winner, from the huge random number generated by Chainlink a normalized random is generated by using the module method, adding 1 to have a random from 1 to entriesCount. So next step is to perform a binary search on the ordered array to get the player O(log n) Example: 0 -> { 1, player1} as player1 buys 1 entry 1 -> {51, player2} as player2 buys 50 entries 2 -> {52, player3} as player3 buys 1 entry 3 -> {53, player4} as player4 buys 1 entry 4 -> {153, player5} as player5 buys 100 entries So the setWinner method performs a binary search on that sorted array to get the upper bound. If the random number generated is 150, the winner is player5. If the random number is 20, winner is player2",
    "events": {
      "RoleAdminChanged(bytes32,bytes32,bytes32)": {
        "details": "Emitted when `newAdminRole` is set as ``role``'s admin role, replacing `previousAdminRole` `DEFAULT_ADMIN_ROLE` is the starting admin for all roles, despite {RoleAdminChanged} not being emitted signaling this. _Available since v3.1._"
      },
      "RoleGranted(bytes32,address,address)": {
        "details": "Emitted when `account` is granted `role`. `sender` is the account that originated the contract call, an admin role bearer except when using {AccessControl-_setupRole}."
      },
      "RoleRevoked(bytes32,address,address)": {
        "details": "Emitted when `account` is revoked `role`. `sender` is the account that originated the contract call:   - if using `revokeRole`, it is the admin role bearer   - if using `renounceRole`, it is the role bearer (i.e. `account`)"
      }
    },
    "kind": "dev",
    "methods": {
      "buyDiscountEntry(bytes32,uint256,address,uint256,uint256,bytes)": {
        "details": "callable by players. Depending on the number of entries assigned to the price structure the player buys (_id parameter) one or more entries will be assigned to the player. Also it is checked the maximum number of entries per user is not reached As the method is payable, in msg.value there will be the amount paid by the user",
        "params": {
          "_collection": ": collection of the tokenId used. Not used if there is no required nft on the raffle",
          "_discount": ": discount in basis points",
          "_entryId": ": id of the price structure if raffle is admin raffle, else count of entry",
          "_raffleId": ": id of the raffle",
          "_tokenIdUsed": ": id of the token used in private raffles (to avoid abuse can not be reused on the same raffle)"
        }
      },
      "buyEntry(bytes32,uint256,address,uint256)": {
        "details": "callable by players. Depending on the number of entries assigned to the price structure the player buys (_id parameter) one or more entries will be assigned to the player. Also it is checked the maximum number of entries per user is not reached As the method is payable, in msg.value there will be the amount paid by the user",
        "params": {
          "_collection": ": collection of the tokenId used. Not used if there is no required nft on the raffle",
          "_idOrTicketCount": ": id of the price structure if raffle is admin raffle, else count of entry",
          "_raffleId": ": id of the raffle",
          "_tokenIdUsed": ": id of the token used in private raffles (to avoid abuse can not be reused on the same raffle)"
        }
      },
      "buyFreeEntry(bytes32,uint256,address,uint256,bytes)": {
        "details": "callable by players. one or more entries will be assigned to the player. Also it is checked the maximum number of entries per user is not reached As the method is payable, in msg.value there will be the amount paid by the user",
        "params": {
          "_collection": ": collection of the tokenId used. Not used if there is no required nft on the raffle",
          "_raffleId": ": id of the raffle",
          "_ticketCount": ": id of the price structure if raffle is admin raffle, else count of entry",
          "_tokenIdUsed": ": id of the token used in private raffles (to avoid abuse can not be reused on the same raffle)",
          "signature": ": signature of the player"
        }
      },
      "cancelRaffle(bytes32)": {
        "details": "The operator can cancel the raffle. The NFT is sent back to the seller The raised funds are send to the destination wallet. The buyers will be refunded offchain in the metawin wallet",
        "params": {
          "_raffleId": "Id of the raffle"
        }
      },
      "claimRefund(bytes32)": {
        "details": "The player can claim a refund during the first 30 days after the raffle was cancelled in the map \"ClaimsData\" it is saves how much the player spent on that raffle, as they could have bought several entries",
        "params": {
          "_raffleId": "Id of the raffle"
        }
      },
      "getClaimData(bytes32,address)": {
        "params": {
          "_player": "wallet of the player",
          "_raffleId": "Id of the raffle"
        },
        "returns": {
          "_0": "Claims data of the player on that raffle"
        }
      },
      "getRoleAdmin(bytes32)": {
        "details": "Returns the admin role that controls `role`. See {grantRole} and {revokeRole}. To change a role's admin, use {_setRoleAdmin}."
      },
      "getWinnerAddressFromRandom(bytes32,uint256)": {
        "details": "Uses a binary search on the sorted array to retreive the winner",
        "params": {
          "_normalizedRandomNumber": "Generated by chainlink",
          "_raffleId": "Id of the raffle"
        },
        "returns": {
          "_0": "the wallet that won the raffle"
        }
      },
      "grantRole(bytes32,address)": {
        "details": "Grants `role` to `account`. If `account` had not been already granted `role`, emits a {RoleGranted} event. Requirements: - the caller must have ``role``'s admin role. May emit a {RoleGranted} event."
      },
      "hasRole(bytes32,address)": {
        "details": "Returns `true` if `account` has been granted `role`."
      },
      "operatorCreateRaffle((uint8,address,uint256,uint256,uint256,uint256),(uint256,uint256,uint256)[],address[])": {
        "details": "creates a raffle struct and push it to the raffles array. Some data is stored in the funding data structure sends an event when finished",
        "params": {
          "_collectionWhitelist": "array with the required collections to participate in the raffle. Empty if there is no collection",
          "_params": "params to create raffle",
          "_prices": "Array of prices and amount of entries the customer could purchase"
        },
        "returns": {
          "_0": "raffleId"
        }
      },
      "renounceRole(bytes32,address)": {
        "details": "Revokes `role` from the calling account. Roles are often managed via {grantRole} and {revokeRole}: this function's purpose is to provide a mechanism for accounts to lose their privileges if they are compromised (such as when a trusted device is misplaced). If the calling account had been revoked `role`, emits a {RoleRevoked} event. Requirements: - the caller must be `account`. May emit a {RoleRevoked} event."
      },
      "revokeRole(bytes32,address)": {
        "details": "Revokes `role` from `account`. If `account` had been granted `role`, emits a {RoleRevoked} event. Requirements: - the caller must have ``role``'s admin role. May emit a {RoleRevoked} event."
      },
      "setMaxTicketCount(bytes32,uint256)": {
        "details": "updates max ticket count",
        "params": {
          "_newMaxTicketCount": "new max ticket count to be set",
          "_raffleId": "Id of the raffle"
        }
      },
      "setPlatformFee(uint256)": {
        "details": "updates platform fee",
        "params": {
          "_newFee": "new fee to be set"
        }
      },
      "setSignerAddress(address)": {
        "details": "Change the wallet of the platform signer",
        "params": {
          "_newAddress": "new address of the platform signer"
        }
      },
      "setWinner(bytes32)": {
        "details": "it triggers Chainlink VRF1 consumer, and generates a random number that is normalized and checked that corresponds to a MW player",
        "params": {
          "_raffleId": "Id of the raffle"
        }
      },
      "supportsInterface(bytes4)": {
        "details": "See {IERC165-supportsInterface}."
      },
      "transferOwnership(address)": {
        "details": "updates owner of manager contract",
        "params": {
          "to": "address of new admin"
        }
      },
      "transferRemainingFunds(bytes32)": {
        "details": "after 30 days after cancelling passes, the operator can transfer to vault the remaining funds",
        "params": {
          "_raffleId": "Id of the raffle"
        }
      },
      "userCreateRaffle((uint8,address,uint256,uint256,uint256,uint256),address[],(bytes32,bytes32,uint8))": {
        "details": "creates a raffle struct and push it to the raffles array. Some data is stored in the funding data structure sends an event when finished",
        "params": {
          "_collectionWhitelist": "array with the required collections to participate in the raffle. Empty if there is no collection",
          "_params": "params to create raffle",
          "_sig": "sigature of signer to validate collection"
        },
        "returns": {
          "_0": "raffleId"
        }
      }
    },
    "title": "Raffles Manager",
    "version": 1
  },
  "userdoc": {
    "kind": "user",
    "methods": {
      "buyDiscountEntry(bytes32,uint256,address,uint256,uint256,bytes)": {
        "notice": "If the operator set requiredNFTs when creating the raffle, only the owners of nft on that collection can make a call to this method. This will be used for special raffles"
      },
      "buyEntry(bytes32,uint256,address,uint256)": {
        "notice": "If the operator set requiredNFTs when creating the raffle, only the owners of nft on that collection can make a call to this method. This will be used for special raffles"
      },
      "buyFreeEntry(bytes32,uint256,address,uint256,bytes)": {
        "notice": "If the operator set requiredNFTs when creating the raffle, only the owners of nft on that collection can make a call to this method. This will be used for special raffles"
      },
      "operatorCreateRaffle((uint8,address,uint256,uint256,uint256,uint256),(uint256,uint256,uint256)[],address[])": {
        "notice": "Creates a raffle"
      },
      "setWinner(bytes32)": {
        "notice": "the operator finish the raffle, if the desired funds has been reached"
      },
      "userCreateRaffle((uint8,address,uint256,uint256,uint256,uint256),address[],(bytes32,bytes32,uint8))": {
        "notice": "Creates a raffle"
      }
    },
    "notice": "It consumes VRF v1 from Chainlink. It has the role There are two type of roles - operator and user Operator can create admin raffles and users can care user raffles Raffle can use 3 type of assets - NFT, ETH and ERC20 token",
    "version": 1
  },
  "storageLayout": {
    "storage": [
      {
        "astId": 409,
        "contract": "contracts/core/Manager.sol:Manager",
        "label": "_roles",
        "offset": 0,
        "slot": "0",
        "type": "t_mapping(t_bytes32,t_struct(RoleData)404_storage)"
      },
      {
        "astId": 897,
        "contract": "contracts/core/Manager.sol:Manager",
        "label": "_status",
        "offset": 0,
        "slot": "1",
        "type": "t_uint256"
      },
      {
        "astId": 79,
        "contract": "contracts/core/Manager.sol:Manager",
        "label": "nonces",
        "offset": 0,
        "slot": "2",
        "type": "t_mapping(t_bytes32,t_uint256)"
      },
      {
        "astId": 4850,
        "contract": "contracts/core/Manager.sol:Manager",
        "label": "keyHash",
        "offset": 0,
        "slot": "3",
        "type": "t_bytes32"
      },
      {
        "astId": 4852,
        "contract": "contracts/core/Manager.sol:Manager",
        "label": "fee",
        "offset": 0,
        "slot": "4",
        "type": "t_uint256"
      },
      {
        "astId": 4875,
        "contract": "contracts/core/Manager.sol:Manager",
        "label": "requests",
        "offset": 0,
        "slot": "5",
        "type": "t_mapping(t_bytes32,t_struct(RandomResult)4857_storage)"
      },
      {
        "astId": 4880,
        "contract": "contracts/core/Manager.sol:Manager",
        "label": "chainlinkRaffleInfo",
        "offset": 0,
        "slot": "6",
        "type": "t_mapping(t_bytes32,t_struct(RaffleInfo)4870_storage)"
      },
      {
        "astId": 5013,
        "contract": "contracts/core/Manager.sol:Manager",
        "label": "prices",
        "offset": 0,
        "slot": "7",
        "type": "t_mapping(t_bytes32,t_array(t_struct(PriceStructure)5006_storage)5_storage)"
      },
      {
        "astId": 5023,
        "contract": "contracts/core/Manager.sol:Manager",
        "label": "fundingList",
        "offset": 0,
        "slot": "8",
        "type": "t_mapping(t_bytes32,t_struct(FundingStructure)5018_storage)"
      },
      {
        "astId": 5027,
        "contract": "contracts/core/Manager.sol:Manager",
        "label": "maxTicketCount",
        "offset": 0,
        "slot": "9",
        "type": "t_mapping(t_bytes32,t_uint256)"
      },
      {
        "astId": 5036,
        "contract": "contracts/core/Manager.sol:Manager",
        "label": "soldTicketCount",
        "offset": 0,
        "slot": "10",
        "type": "t_mapping(t_bytes32,t_uint256)"
      },
      {
        "astId": 5040,
        "contract": "contracts/core/Manager.sol:Manager",
        "label": "entriesCount",
        "offset": 0,
        "slot": "11",
        "type": "t_mapping(t_bytes32,t_uint256)"
      },
      {
        "astId": 5047,
        "contract": "contracts/core/Manager.sol:Manager",
        "label": "entries",
        "offset": 0,
        "slot": "12",
        "type": "t_mapping(t_bytes32,t_mapping(t_uint256,t_struct(EntriesBought)5032_storage))"
      },
      {
        "astId": 5117,
        "contract": "contracts/core/Manager.sol:Manager",
        "label": "raffles",
        "offset": 0,
        "slot": "13",
        "type": "t_mapping(t_bytes32,t_struct(RaffleStruct)5112_storage)"
      },
      {
        "astId": 5129,
        "contract": "contracts/core/Manager.sol:Manager",
        "label": "claimsData",
        "offset": 0,
        "slot": "14",
        "type": "t_mapping(t_bytes32,t_struct(ClaimStruct)5124_storage)"
      },
      {
        "astId": 5133,
        "contract": "contracts/core/Manager.sol:Manager",
        "label": "requiredNFTWallets",
        "offset": 0,
        "slot": "15",
        "type": "t_mapping(t_bytes32,t_address)"
      },
      {
        "astId": 5142,
        "contract": "contracts/core/Manager.sol:Manager",
        "label": "signer",
        "offset": 0,
        "slot": "16",
        "type": "t_address"
      },
      {
        "astId": 5145,
        "contract": "contracts/core/Manager.sol:Manager",
        "label": "platformFee",
        "offset": 0,
        "slot": "17",
        "type": "t_uint256"
      }
    ],
    "types": {
      "t_address": {
        "encoding": "inplace",
        "label": "address",
        "numberOfBytes": "20"
      },
      "t_array(t_address)dyn_storage": {
        "base": "t_address",
        "encoding": "dynamic_array",
        "label": "address[]",
        "numberOfBytes": "32"
      },
      "t_array(t_struct(PriceStructure)5006_storage)5_storage": {
        "base": "t_struct(PriceStructure)5006_storage",
        "encoding": "inplace",
        "label": "struct Manager.PriceStructure[5]",
        "numberOfBytes": "480"
      },
      "t_bool": {
        "encoding": "inplace",
        "label": "bool",
        "numberOfBytes": "1"
      },
      "t_bytes32": {
        "encoding": "inplace",
        "label": "bytes32",
        "numberOfBytes": "32"
      },
      "t_enum(RAFFLETYPE)4884": {
        "encoding": "inplace",
        "label": "enum Manager.RAFFLETYPE",
        "numberOfBytes": "1"
      },
      "t_enum(STATUS)4891": {
        "encoding": "inplace",
        "label": "enum Manager.STATUS",
        "numberOfBytes": "1"
      },
      "t_mapping(t_address,t_bool)": {
        "encoding": "mapping",
        "key": "t_address",
        "label": "mapping(address => bool)",
        "numberOfBytes": "32",
        "value": "t_bool"
      },
      "t_mapping(t_bytes32,t_address)": {
        "encoding": "mapping",
        "key": "t_bytes32",
        "label": "mapping(bytes32 => address)",
        "numberOfBytes": "32",
        "value": "t_address"
      },
      "t_mapping(t_bytes32,t_array(t_struct(PriceStructure)5006_storage)5_storage)": {
        "encoding": "mapping",
        "key": "t_bytes32",
        "label": "mapping(bytes32 => struct Manager.PriceStructure[5])",
        "numberOfBytes": "32",
        "value": "t_array(t_struct(PriceStructure)5006_storage)5_storage"
      },
      "t_mapping(t_bytes32,t_mapping(t_uint256,t_struct(EntriesBought)5032_storage))": {
        "encoding": "mapping",
        "key": "t_bytes32",
        "label": "mapping(bytes32 => mapping(uint256 => struct Manager.EntriesBought))",
        "numberOfBytes": "32",
        "value": "t_mapping(t_uint256,t_struct(EntriesBought)5032_storage)"
      },
      "t_mapping(t_bytes32,t_struct(ClaimStruct)5124_storage)": {
        "encoding": "mapping",
        "key": "t_bytes32",
        "label": "mapping(bytes32 => struct Manager.ClaimStruct)",
        "numberOfBytes": "32",
        "value": "t_struct(ClaimStruct)5124_storage"
      },
      "t_mapping(t_bytes32,t_struct(FundingStructure)5018_storage)": {
        "encoding": "mapping",
        "key": "t_bytes32",
        "label": "mapping(bytes32 => struct Manager.FundingStructure)",
        "numberOfBytes": "32",
        "value": "t_struct(FundingStructure)5018_storage"
      },
      "t_mapping(t_bytes32,t_struct(RaffleInfo)4870_storage)": {
        "encoding": "mapping",
        "key": "t_bytes32",
        "label": "mapping(bytes32 => struct Manager.RaffleInfo)",
        "numberOfBytes": "32",
        "value": "t_struct(RaffleInfo)4870_storage"
      },
      "t_mapping(t_bytes32,t_struct(RaffleStruct)5112_storage)": {
        "encoding": "mapping",
        "key": "t_bytes32",
        "label": "mapping(bytes32 => struct Manager.RaffleStruct)",
        "numberOfBytes": "32",
        "value": "t_struct(RaffleStruct)5112_storage"
      },
      "t_mapping(t_bytes32,t_struct(RandomResult)4857_storage)": {
        "encoding": "mapping",
        "key": "t_bytes32",
        "label": "mapping(bytes32 => struct Manager.RandomResult)",
        "numberOfBytes": "32",
        "value": "t_struct(RandomResult)4857_storage"
      },
      "t_mapping(t_bytes32,t_struct(RoleData)404_storage)": {
        "encoding": "mapping",
        "key": "t_bytes32",
        "label": "mapping(bytes32 => struct AccessControl.RoleData)",
        "numberOfBytes": "32",
        "value": "t_struct(RoleData)404_storage"
      },
      "t_mapping(t_bytes32,t_uint256)": {
        "encoding": "mapping",
        "key": "t_bytes32",
        "label": "mapping(bytes32 => uint256)",
        "numberOfBytes": "32",
        "value": "t_uint256"
      },
      "t_mapping(t_uint256,t_struct(EntriesBought)5032_storage)": {
        "encoding": "mapping",
        "key": "t_uint256",
        "label": "mapping(uint256 => struct Manager.EntriesBought)",
        "numberOfBytes": "32",
        "value": "t_struct(EntriesBought)5032_storage"
      },
      "t_struct(ClaimStruct)5124_storage": {
        "encoding": "inplace",
        "label": "struct Manager.ClaimStruct",
        "members": [
          {
            "astId": 5119,
            "contract": "contracts/core/Manager.sol:Manager",
            "label": "numTicketsPerUser",
            "offset": 0,
            "slot": "0",
            "type": "t_uint256"
          },
          {
            "astId": 5121,
            "contract": "contracts/core/Manager.sol:Manager",
            "label": "amountSpentInWeis",
            "offset": 0,
            "slot": "1",
            "type": "t_uint256"
          },
          {
            "astId": 5123,
            "contract": "contracts/core/Manager.sol:Manager",
            "label": "claimed",
            "offset": 0,
            "slot": "2",
            "type": "t_bool"
          }
        ],
        "numberOfBytes": "96"
      },
      "t_struct(EntriesBought)5032_storage": {
        "encoding": "inplace",
        "label": "struct Manager.EntriesBought",
        "members": [
          {
            "astId": 5029,
            "contract": "contracts/core/Manager.sol:Manager",
            "label": "currentEntriesLength",
            "offset": 0,
            "slot": "0",
            "type": "t_uint256"
          },
          {
            "astId": 5031,
            "contract": "contracts/core/Manager.sol:Manager",
            "label": "player",
            "offset": 0,
            "slot": "1",
            "type": "t_address"
          }
        ],
        "numberOfBytes": "64"
      },
      "t_struct(FundingStructure)5018_storage": {
        "encoding": "inplace",
        "label": "struct Manager.FundingStructure",
        "members": [
          {
            "astId": 5015,
            "contract": "contracts/core/Manager.sol:Manager",
            "label": "minTicketCount",
            "offset": 0,
            "slot": "0",
            "type": "t_uint256"
          },
          {
            "astId": 5017,
            "contract": "contracts/core/Manager.sol:Manager",
            "label": "maxTicketCount",
            "offset": 0,
            "slot": "1",
            "type": "t_uint256"
          }
        ],
        "numberOfBytes": "64"
      },
      "t_struct(PriceStructure)5006_storage": {
        "encoding": "inplace",
        "label": "struct Manager.PriceStructure",
        "members": [
          {
            "astId": 5001,
            "contract": "contracts/core/Manager.sol:Manager",
            "label": "id",
            "offset": 0,
            "slot": "0",
            "type": "t_uint256"
          },
          {
            "astId": 5003,
            "contract": "contracts/core/Manager.sol:Manager",
            "label": "numTickets",
            "offset": 0,
            "slot": "1",
            "type": "t_uint256"
          },
          {
            "astId": 5005,
            "contract": "contracts/core/Manager.sol:Manager",
            "label": "price",
            "offset": 0,
            "slot": "2",
            "type": "t_uint256"
          }
        ],
        "numberOfBytes": "96"
      },
      "t_struct(RaffleInfo)4870_storage": {
        "encoding": "inplace",
        "label": "struct Manager.RaffleInfo",
        "members": [
          {
            "astId": 4867,
            "contract": "contracts/core/Manager.sol:Manager",
            "label": "id",
            "offset": 0,
            "slot": "0",
            "type": "t_bytes32"
          },
          {
            "astId": 4869,
            "contract": "contracts/core/Manager.sol:Manager",
            "label": "size",
            "offset": 0,
            "slot": "1",
            "type": "t_uint256"
          }
        ],
        "numberOfBytes": "64"
      },
      "t_struct(RaffleStruct)5112_storage": {
        "encoding": "inplace",
        "label": "struct Manager.RaffleStruct",
        "members": [
          {
            "astId": 5085,
            "contract": "contracts/core/Manager.sol:Manager",
            "label": "raffleType",
            "offset": 0,
            "slot": "0",
            "type": "t_enum(RAFFLETYPE)4884"
          },
          {
            "astId": 5088,
            "contract": "contracts/core/Manager.sol:Manager",
            "label": "status",
            "offset": 1,
            "slot": "0",
            "type": "t_enum(STATUS)4891"
          },
          {
            "astId": 5090,
            "contract": "contracts/core/Manager.sol:Manager",
            "label": "operatorCreated",
            "offset": 2,
            "slot": "0",
            "type": "t_bool"
          },
          {
            "astId": 5092,
            "contract": "contracts/core/Manager.sol:Manager",
            "label": "collateralAddress",
            "offset": 3,
            "slot": "0",
            "type": "t_address"
          },
          {
            "astId": 5094,
            "contract": "contracts/core/Manager.sol:Manager",
            "label": "collateralParam",
            "offset": 0,
            "slot": "1",
            "type": "t_uint256"
          },
          {
            "astId": 5096,
            "contract": "contracts/core/Manager.sol:Manager",
            "label": "winner",
            "offset": 0,
            "slot": "2",
            "type": "t_address"
          },
          {
            "astId": 5098,
            "contract": "contracts/core/Manager.sol:Manager",
            "label": "randomNumber",
            "offset": 0,
            "slot": "3",
            "type": "t_uint256"
          },
          {
            "astId": 5100,
            "contract": "contracts/core/Manager.sol:Manager",
            "label": "amountRaised",
            "offset": 0,
            "slot": "4",
            "type": "t_uint256"
          },
          {
            "astId": 5102,
            "contract": "contracts/core/Manager.sol:Manager",
            "label": "seller",
            "offset": 0,
            "slot": "5",
            "type": "t_address"
          },
          {
            "astId": 5104,
            "contract": "contracts/core/Manager.sol:Manager",
            "label": "endTime",
            "offset": 0,
            "slot": "6",
            "type": "t_uint256"
          },
          {
            "astId": 5106,
            "contract": "contracts/core/Manager.sol:Manager",
            "label": "cancellingDate",
            "offset": 0,
            "slot": "7",
            "type": "t_uint256"
          },
          {
            "astId": 5108,
            "contract": "contracts/core/Manager.sol:Manager",
            "label": "ticketPrice",
            "offset": 0,
            "slot": "8",
            "type": "t_uint256"
          },
          {
            "astId": 5111,
            "contract": "contracts/core/Manager.sol:Manager",
            "label": "collectionWhitelist",
            "offset": 0,
            "slot": "9",
            "type": "t_array(t_address)dyn_storage"
          }
        ],
        "numberOfBytes": "320"
      },
      "t_struct(RandomResult)4857_storage": {
        "encoding": "inplace",
        "label": "struct Manager.RandomResult",
        "members": [
          {
            "astId": 4854,
            "contract": "contracts/core/Manager.sol:Manager",
            "label": "randomNumber",
            "offset": 0,
            "slot": "0",
            "type": "t_uint256"
          },
          {
            "astId": 4856,
            "contract": "contracts/core/Manager.sol:Manager",
            "label": "nomalizedRandomNumber",
            "offset": 0,
            "slot": "1",
            "type": "t_uint256"
          }
        ],
        "numberOfBytes": "64"
      },
      "t_struct(RoleData)404_storage": {
        "encoding": "inplace",
        "label": "struct AccessControl.RoleData",
        "members": [
          {
            "astId": 401,
            "contract": "contracts/core/Manager.sol:Manager",
            "label": "members",
            "offset": 0,
            "slot": "0",
            "type": "t_mapping(t_address,t_bool)"
          },
          {
            "astId": 403,
            "contract": "contracts/core/Manager.sol:Manager",
            "label": "adminRole",
            "offset": 0,
            "slot": "1",
            "type": "t_bytes32"
          }
        ],
        "numberOfBytes": "64"
      },
      "t_uint256": {
        "encoding": "inplace",
        "label": "uint256",
        "numberOfBytes": "32"
      }
    }
  }
}