{
  "address": "0xa230dAba7d264eeb5af3343D43D88Be31dEa49E6",
  "abi": [
    {
      "inputs": [
        {
          "internalType": "address",
          "name": "_vault",
          "type": "address"
        },
        {
          "internalType": "address",
          "name": "_signer",
          "type": "address"
        },
        {
          "internalType": "address",
          "name": "_vrfCoordinator",
          "type": "address"
        },
        {
          "internalType": "address",
          "name": "_linkToken",
          "type": "address"
        },
        {
          "internalType": "bytes32",
          "name": "_keyHash",
          "type": "bytes32"
        },
        {
          "internalType": "uint256",
          "name": "_fee",
          "type": "uint256"
        }
      ],
      "stateMutability": "nonpayable",
      "type": "constructor"
    },
    {
      "anonymous": false,
      "inputs": [
        {
          "indexed": true,
          "internalType": "bytes32",
          "name": "raffleId",
          "type": "bytes32"
        },
        {
          "indexed": false,
          "internalType": "uint256",
          "name": "amountRaised",
          "type": "uint256"
        }
      ],
      "name": "EarlyCashoutTriggered",
      "type": "event"
    },
    {
      "anonymous": false,
      "inputs": [
        {
          "indexed": true,
          "internalType": "bytes32",
          "name": "raffleId",
          "type": "bytes32"
        },
        {
          "indexed": true,
          "internalType": "address",
          "name": "buyer",
          "type": "address"
        },
        {
          "indexed": false,
          "internalType": "uint256",
          "name": "numTickets",
          "type": "uint256"
        },
        {
          "indexed": false,
          "internalType": "uint256",
          "name": "soldEntries",
          "type": "uint256"
        },
        {
          "indexed": false,
          "internalType": "uint256",
          "name": "price",
          "type": "uint256"
        }
      ],
      "name": "EntrySold",
      "type": "event"
    },
    {
      "anonymous": false,
      "inputs": [
        {
          "indexed": true,
          "internalType": "bytes32",
          "name": "raffleId",
          "type": "bytes32"
        },
        {
          "indexed": false,
          "internalType": "uint256",
          "name": "amountTransferred",
          "type": "uint256"
        }
      ],
      "name": "FeeTransferredToPlatform",
      "type": "event"
    },
    {
      "anonymous": false,
      "inputs": [
        {
          "indexed": true,
          "internalType": "bytes32",
          "name": "raffleId",
          "type": "bytes32"
        },
        {
          "indexed": false,
          "internalType": "address[]",
          "name": "buyer",
          "type": "address[]"
        },
        {
          "indexed": false,
          "internalType": "uint256",
          "name": "amount",
          "type": "uint256"
        },
        {
          "indexed": false,
          "internalType": "uint256",
          "name": "soldEntries",
          "type": "uint256"
        }
      ],
      "name": "FreeEntry",
      "type": "event"
    },
    {
      "anonymous": false,
      "inputs": [
        {
          "indexed": true,
          "internalType": "bytes32",
          "name": "raffleId",
          "type": "bytes32"
        },
        {
          "indexed": false,
          "internalType": "uint256",
          "name": "maxTicketAmountPerBuyer",
          "type": "uint256"
        }
      ],
      "name": "MaxTicketAmountPerBuyerUpdated",
      "type": "event"
    },
    {
      "anonymous": false,
      "inputs": [
        {
          "indexed": true,
          "internalType": "bytes32",
          "name": "raffleId",
          "type": "bytes32"
        },
        {
          "indexed": false,
          "internalType": "uint256",
          "name": "id",
          "type": "uint256"
        },
        {
          "indexed": false,
          "internalType": "uint256",
          "name": "numTickets",
          "type": "uint256"
        },
        {
          "indexed": false,
          "internalType": "uint256",
          "name": "price",
          "type": "uint256"
        }
      ],
      "name": "PriceStructureCreated",
      "type": "event"
    },
    {
      "anonymous": false,
      "inputs": [
        {
          "indexed": true,
          "internalType": "bytes32",
          "name": "raffleId",
          "type": "bytes32"
        },
        {
          "indexed": false,
          "internalType": "uint256",
          "name": "amountRaised",
          "type": "uint256"
        }
      ],
      "name": "RaffleCancelled",
      "type": "event"
    },
    {
      "anonymous": false,
      "inputs": [
        {
          "indexed": true,
          "internalType": "bytes32",
          "name": "raffleId",
          "type": "bytes32"
        },
        {
          "indexed": true,
          "internalType": "address",
          "name": "collateralAddress",
          "type": "address"
        },
        {
          "indexed": true,
          "internalType": "uint256",
          "name": "collateralParam",
          "type": "uint256"
        },
        {
          "indexed": false,
          "internalType": "uint256",
          "name": "endTime",
          "type": "uint256"
        },
        {
          "indexed": false,
          "internalType": "uint256",
          "name": "ticketSupply",
          "type": "uint256"
        },
        {
          "indexed": false,
          "internalType": "uint256",
          "name": "maxTicketAmountPerBuyer",
          "type": "uint256"
        },
        {
          "indexed": false,
          "internalType": "address",
          "name": "seller",
          "type": "address"
        },
        {
          "indexed": false,
          "internalType": "enum Manager.RAFFLETYPE",
          "name": "raffleType",
          "type": "uint8"
        },
        {
          "indexed": false,
          "internalType": "bool",
          "name": "operatorCreated",
          "type": "bool"
        }
      ],
      "name": "RaffleCreated",
      "type": "event"
    },
    {
      "anonymous": false,
      "inputs": [
        {
          "indexed": true,
          "internalType": "bytes32",
          "name": "raffleId",
          "type": "bytes32"
        },
        {
          "indexed": true,
          "internalType": "address",
          "name": "winner",
          "type": "address"
        },
        {
          "indexed": false,
          "internalType": "uint256",
          "name": "amountRaised",
          "type": "uint256"
        },
        {
          "indexed": false,
          "internalType": "uint256",
          "name": "randomNumber",
          "type": "uint256"
        }
      ],
      "name": "RaffleEnded",
      "type": "event"
    },
    {
      "anonymous": false,
      "inputs": [
        {
          "indexed": true,
          "internalType": "bytes32",
          "name": "id",
          "type": "bytes32"
        },
        {
          "indexed": false,
          "internalType": "uint256",
          "name": "randomNumber",
          "type": "uint256"
        },
        {
          "indexed": false,
          "internalType": "uint256",
          "name": "normalizedRandomNumber",
          "type": "uint256"
        }
      ],
      "name": "RandomNumberCreated",
      "type": "event"
    },
    {
      "anonymous": false,
      "inputs": [
        {
          "indexed": true,
          "internalType": "bytes32",
          "name": "raffleId",
          "type": "bytes32"
        },
        {
          "indexed": false,
          "internalType": "uint256",
          "name": "amountInWeis",
          "type": "uint256"
        },
        {
          "indexed": true,
          "internalType": "address",
          "name": "player",
          "type": "address"
        }
      ],
      "name": "Refund",
      "type": "event"
    },
    {
      "anonymous": false,
      "inputs": [
        {
          "indexed": true,
          "internalType": "bytes32",
          "name": "raffleId",
          "type": "bytes32"
        },
        {
          "indexed": false,
          "internalType": "uint256",
          "name": "amountInWeis",
          "type": "uint256"
        }
      ],
      "name": "RemainingFundsTransferred",
      "type": "event"
    },
    {
      "anonymous": false,
      "inputs": [
        {
          "indexed": true,
          "internalType": "bytes32",
          "name": "role",
          "type": "bytes32"
        },
        {
          "indexed": true,
          "internalType": "bytes32",
          "name": "previousAdminRole",
          "type": "bytes32"
        },
        {
          "indexed": true,
          "internalType": "bytes32",
          "name": "newAdminRole",
          "type": "bytes32"
        }
      ],
      "name": "RoleAdminChanged",
      "type": "event"
    },
    {
      "anonymous": false,
      "inputs": [
        {
          "indexed": true,
          "internalType": "bytes32",
          "name": "role",
          "type": "bytes32"
        },
        {
          "indexed": true,
          "internalType": "address",
          "name": "account",
          "type": "address"
        },
        {
          "indexed": true,
          "internalType": "address",
          "name": "sender",
          "type": "address"
        }
      ],
      "name": "RoleGranted",
      "type": "event"
    },
    {
      "anonymous": false,
      "inputs": [
        {
          "indexed": true,
          "internalType": "bytes32",
          "name": "role",
          "type": "bytes32"
        },
        {
          "indexed": true,
          "internalType": "address",
          "name": "account",
          "type": "address"
        },
        {
          "indexed": true,
          "internalType": "address",
          "name": "sender",
          "type": "address"
        }
      ],
      "name": "RoleRevoked",
      "type": "event"
    },
    {
      "anonymous": false,
      "inputs": [
        {
          "indexed": true,
          "internalType": "bytes32",
          "name": "raffleId",
          "type": "bytes32"
        },
        {
          "indexed": false,
          "internalType": "uint256",
          "name": "amountRaised",
          "type": "uint256"
        }
      ],
      "name": "SetWinnerTriggered",
      "type": "event"
    },
    {
      "inputs": [],
      "name": "DEFAULT_ADMIN_ROLE",
      "outputs": [
        {
          "internalType": "bytes32",
          "name": "",
          "type": "bytes32"
        }
      ],
      "stateMutability": "view",
      "type": "function"
    },
    {
      "inputs": [],
      "name": "OPERATOR_ROLE",
      "outputs": [
        {
          "internalType": "bytes32",
          "name": "",
          "type": "bytes32"
        }
      ],
      "stateMutability": "view",
      "type": "function"
    },
    {
      "inputs": [
        {
          "internalType": "bytes32",
          "name": "_raffleId",
          "type": "bytes32"
        },
        {
          "internalType": "uint256",
          "name": "_entryId",
          "type": "uint256"
        },
        {
          "internalType": "address",
          "name": "_collection",
          "type": "address"
        },
        {
          "internalType": "uint256",
          "name": "_tokenIdUsed",
          "type": "uint256"
        },
        {
          "internalType": "uint256",
          "name": "_discount",
          "type": "uint256"
        },
        {
          "internalType": "bytes",
          "name": "signature",
          "type": "bytes"
        }
      ],
      "name": "buyDiscountEntry",
      "outputs": [],
      "stateMutability": "payable",
      "type": "function"
    },
    {
      "inputs": [
        {
          "internalType": "bytes32",
          "name": "_raffleId",
          "type": "bytes32"
        },
        {
          "internalType": "uint256",
          "name": "_idOrTicketCount",
          "type": "uint256"
        },
        {
          "internalType": "address",
          "name": "_collection",
          "type": "address"
        },
        {
          "internalType": "uint256",
          "name": "_tokenIdUsed",
          "type": "uint256"
        }
      ],
      "name": "buyEntry",
      "outputs": [],
      "stateMutability": "payable",
      "type": "function"
    },
    {
      "inputs": [
        {
          "internalType": "bytes32",
          "name": "_raffleId",
          "type": "bytes32"
        }
      ],
      "name": "cancelRaffle",
      "outputs": [],
      "stateMutability": "nonpayable",
      "type": "function"
    },
    {
      "inputs": [
        {
          "internalType": "bytes32",
          "name": "",
          "type": "bytes32"
        }
      ],
      "name": "chainlinkRaffleInfo",
      "outputs": [
        {
          "internalType": "bytes32",
          "name": "id",
          "type": "bytes32"
        },
        {
          "internalType": "uint256",
          "name": "size",
          "type": "uint256"
        }
      ],
      "stateMutability": "view",
      "type": "function"
    },
    {
      "inputs": [
        {
          "internalType": "bytes32",
          "name": "_raffleId",
          "type": "bytes32"
        }
      ],
      "name": "claimRefund",
      "outputs": [],
      "stateMutability": "nonpayable",
      "type": "function"
    },
    {
      "inputs": [
        {
          "internalType": "bytes32",
          "name": "",
          "type": "bytes32"
        }
      ],
      "name": "claimsData",
      "outputs": [
        {
          "internalType": "uint256",
          "name": "numTicketsPerUser",
          "type": "uint256"
        },
        {
          "internalType": "uint256",
          "name": "amountSpentInWeis",
          "type": "uint256"
        },
        {
          "internalType": "bool",
          "name": "claimed",
          "type": "bool"
        }
      ],
      "stateMutability": "view",
      "type": "function"
    },
    {
      "inputs": [
        {
          "internalType": "bytes32",
          "name": "",
          "type": "bytes32"
        },
        {
          "internalType": "uint256",
          "name": "",
          "type": "uint256"
        }
      ],
      "name": "entries",
      "outputs": [
        {
          "internalType": "uint256",
          "name": "currentEntriesLength",
          "type": "uint256"
        },
        {
          "internalType": "address",
          "name": "player",
          "type": "address"
        }
      ],
      "stateMutability": "view",
      "type": "function"
    },
    {
      "inputs": [
        {
          "internalType": "bytes32",
          "name": "",
          "type": "bytes32"
        }
      ],
      "name": "entriesCount",
      "outputs": [
        {
          "internalType": "uint256",
          "name": "",
          "type": "uint256"
        }
      ],
      "stateMutability": "view",
      "type": "function"
    },
    {
      "inputs": [
        {
          "internalType": "bytes32",
          "name": "",
          "type": "bytes32"
        }
      ],
      "name": "fundingList",
      "outputs": [
        {
          "internalType": "uint256",
          "name": "minTicketCount",
          "type": "uint256"
        },
        {
          "internalType": "uint256",
          "name": "maxTicketCount",
          "type": "uint256"
        }
      ],
      "stateMutability": "view",
      "type": "function"
    },
    {
      "inputs": [
        {
          "internalType": "bytes32",
          "name": "_raffleId",
          "type": "bytes32"
        },
        {
          "internalType": "address",
          "name": "_player",
          "type": "address"
        }
      ],
      "name": "getClaimData",
      "outputs": [
        {
          "components": [
            {
              "internalType": "uint256",
              "name": "numTicketsPerUser",
              "type": "uint256"
            },
            {
              "internalType": "uint256",
              "name": "amountSpentInWeis",
              "type": "uint256"
            },
            {
              "internalType": "bool",
              "name": "claimed",
              "type": "bool"
            }
          ],
          "internalType": "struct Manager.ClaimStruct",
          "name": "",
          "type": "tuple"
        }
      ],
      "stateMutability": "view",
      "type": "function"
    },
    {
      "inputs": [
        {
          "internalType": "bytes32",
          "name": "role",
          "type": "bytes32"
        }
      ],
      "name": "getRoleAdmin",
      "outputs": [
        {
          "internalType": "bytes32",
          "name": "",
          "type": "bytes32"
        }
      ],
      "stateMutability": "view",
      "type": "function"
    },
    {
      "inputs": [
        {
          "internalType": "bytes32",
          "name": "_raffleId",
          "type": "bytes32"
        },
        {
          "internalType": "uint256",
          "name": "_normalizedRandomNumber",
          "type": "uint256"
        }
      ],
      "name": "getWinnerAddressFromRandom",
      "outputs": [
        {
          "internalType": "address",
          "name": "",
          "type": "address"
        }
      ],
      "stateMutability": "view",
      "type": "function"
    },
    {
      "inputs": [
        {
          "internalType": "bytes32",
          "name": "role",
          "type": "bytes32"
        },
        {
          "internalType": "address",
          "name": "account",
          "type": "address"
        }
      ],
      "name": "grantRole",
      "outputs": [],
      "stateMutability": "nonpayable",
      "type": "function"
    },
    {
      "inputs": [
        {
          "internalType": "bytes32",
          "name": "role",
          "type": "bytes32"
        },
        {
          "internalType": "address",
          "name": "account",
          "type": "address"
        }
      ],
      "name": "hasRole",
      "outputs": [
        {
          "internalType": "bool",
          "name": "",
          "type": "bool"
        }
      ],
      "stateMutability": "view",
      "type": "function"
    },
    {
      "inputs": [
        {
          "internalType": "bytes32",
          "name": "",
          "type": "bytes32"
        }
      ],
      "name": "maxTicketCount",
      "outputs": [
        {
          "internalType": "uint256",
          "name": "",
          "type": "uint256"
        }
      ],
      "stateMutability": "view",
      "type": "function"
    },
    {
      "inputs": [
        {
          "components": [
            {
              "internalType": "enum Manager.RAFFLETYPE",
              "name": "raffleType",
              "type": "uint8"
            },
            {
              "internalType": "address",
              "name": "collateralAddress",
              "type": "address"
            },
            {
              "internalType": "uint256",
              "name": "collateralParam",
              "type": "uint256"
            },
            {
              "internalType": "uint256",
              "name": "minTicketCount",
              "type": "uint256"
            },
            {
              "internalType": "uint256",
              "name": "maxTicketCount",
              "type": "uint256"
            },
            {
              "internalType": "uint256",
              "name": "endTime",
              "type": "uint256"
            }
          ],
          "internalType": "struct Manager.OperatorCreateParam",
          "name": "_params",
          "type": "tuple"
        },
        {
          "components": [
            {
              "internalType": "uint256",
              "name": "id",
              "type": "uint256"
            },
            {
              "internalType": "uint256",
              "name": "numTickets",
              "type": "uint256"
            },
            {
              "internalType": "uint256",
              "name": "price",
              "type": "uint256"
            }
          ],
          "internalType": "struct Manager.PriceStructure[]",
          "name": "_prices",
          "type": "tuple[]"
        },
        {
          "internalType": "address[]",
          "name": "_collectionWhitelist",
          "type": "address[]"
        }
      ],
      "name": "operatorCreateRaffle",
      "outputs": [
        {
          "internalType": "bytes32",
          "name": "",
          "type": "bytes32"
        }
      ],
      "stateMutability": "payable",
      "type": "function"
    },
    {
      "inputs": [],
      "name": "platformFee",
      "outputs": [
        {
          "internalType": "uint256",
          "name": "",
          "type": "uint256"
        }
      ],
      "stateMutability": "view",
      "type": "function"
    },
    {
      "inputs": [
        {
          "internalType": "bytes32",
          "name": "",
          "type": "bytes32"
        },
        {
          "internalType": "uint256",
          "name": "",
          "type": "uint256"
        }
      ],
      "name": "prices",
      "outputs": [
        {
          "internalType": "uint256",
          "name": "id",
          "type": "uint256"
        },
        {
          "internalType": "uint256",
          "name": "numTickets",
          "type": "uint256"
        },
        {
          "internalType": "uint256",
          "name": "price",
          "type": "uint256"
        }
      ],
      "stateMutability": "view",
      "type": "function"
    },
    {
      "inputs": [
        {
          "internalType": "bytes32",
          "name": "",
          "type": "bytes32"
        }
      ],
      "name": "raffles",
      "outputs": [
        {
          "internalType": "enum Manager.RAFFLETYPE",
          "name": "raffleType",
          "type": "uint8"
        },
        {
          "internalType": "enum Manager.STATUS",
          "name": "status",
          "type": "uint8"
        },
        {
          "internalType": "bool",
          "name": "operatorCreated",
          "type": "bool"
        },
        {
          "internalType": "address",
          "name": "collateralAddress",
          "type": "address"
        },
        {
          "internalType": "uint256",
          "name": "collateralParam",
          "type": "uint256"
        },
        {
          "internalType": "address",
          "name": "winner",
          "type": "address"
        },
        {
          "internalType": "uint256",
          "name": "randomNumber",
          "type": "uint256"
        },
        {
          "internalType": "uint256",
          "name": "amountRaised",
          "type": "uint256"
        },
        {
          "internalType": "address",
          "name": "seller",
          "type": "address"
        },
        {
          "internalType": "uint256",
          "name": "endTime",
          "type": "uint256"
        },
        {
          "internalType": "uint256",
          "name": "cancellingDate",
          "type": "uint256"
        },
        {
          "internalType": "uint256",
          "name": "ticketPrice",
          "type": "uint256"
        }
      ],
      "stateMutability": "view",
      "type": "function"
    },
    {
      "inputs": [
        {
          "internalType": "bytes32",
          "name": "requestId",
          "type": "bytes32"
        },
        {
          "internalType": "uint256",
          "name": "randomness",
          "type": "uint256"
        }
      ],
      "name": "rawFulfillRandomness",
      "outputs": [],
      "stateMutability": "nonpayable",
      "type": "function"
    },
    {
      "inputs": [
        {
          "internalType": "bytes32",
          "name": "role",
          "type": "bytes32"
        },
        {
          "internalType": "address",
          "name": "account",
          "type": "address"
        }
      ],
      "name": "renounceRole",
      "outputs": [],
      "stateMutability": "nonpayable",
      "type": "function"
    },
    {
      "inputs": [
        {
          "internalType": "bytes32",
          "name": "",
          "type": "bytes32"
        }
      ],
      "name": "requests",
      "outputs": [
        {
          "internalType": "uint256",
          "name": "randomNumber",
          "type": "uint256"
        },
        {
          "internalType": "uint256",
          "name": "nomalizedRandomNumber",
          "type": "uint256"
        }
      ],
      "stateMutability": "view",
      "type": "function"
    },
    {
      "inputs": [
        {
          "internalType": "bytes32",
          "name": "",
          "type": "bytes32"
        }
      ],
      "name": "requiredNFTWallets",
      "outputs": [
        {
          "internalType": "address",
          "name": "",
          "type": "address"
        }
      ],
      "stateMutability": "view",
      "type": "function"
    },
    {
      "inputs": [
        {
          "internalType": "bytes32",
          "name": "role",
          "type": "bytes32"
        },
        {
          "internalType": "address",
          "name": "account",
          "type": "address"
        }
      ],
      "name": "revokeRole",
      "outputs": [],
      "stateMutability": "nonpayable",
      "type": "function"
    },
    {
      "inputs": [
        {
          "internalType": "bytes32",
          "name": "_raffleId",
          "type": "bytes32"
        },
        {
          "internalType": "uint256",
          "name": "_newMaxTicketCount",
          "type": "uint256"
        }
      ],
      "name": "setMaxTicketCount",
      "outputs": [],
      "stateMutability": "nonpayable",
      "type": "function"
    },
    {
      "inputs": [
        {
          "internalType": "uint256",
          "name": "_newFee",
          "type": "uint256"
        }
      ],
      "name": "setPlatformFee",
      "outputs": [],
      "stateMutability": "nonpayable",
      "type": "function"
    },
    {
      "inputs": [
        {
          "internalType": "address payable",
          "name": "_newAddress",
          "type": "address"
        }
      ],
      "name": "setSignerAddress",
      "outputs": [],
      "stateMutability": "nonpayable",
      "type": "function"
    },
    {
      "inputs": [
        {
          "internalType": "bytes32",
          "name": "_raffleId",
          "type": "bytes32"
        }
      ],
      "name": "setWinner",
      "outputs": [],
      "stateMutability": "nonpayable",
      "type": "function"
    },
    {
      "inputs": [],
      "name": "signer",
      "outputs": [
        {
          "internalType": "address",
          "name": "",
          "type": "address"
        }
      ],
      "stateMutability": "view",
      "type": "function"
    },
    {
      "inputs": [
        {
          "internalType": "bytes32",
          "name": "",
          "type": "bytes32"
        }
      ],
      "name": "soldTicketCount",
      "outputs": [
        {
          "internalType": "uint256",
          "name": "",
          "type": "uint256"
        }
      ],
      "stateMutability": "view",
      "type": "function"
    },
    {
      "inputs": [
        {
          "internalType": "bytes4",
          "name": "interfaceId",
          "type": "bytes4"
        }
      ],
      "name": "supportsInterface",
      "outputs": [
        {
          "internalType": "bool",
          "name": "",
          "type": "bool"
        }
      ],
      "stateMutability": "view",
      "type": "function"
    },
    {
      "inputs": [
        {
          "internalType": "address",
          "name": "to",
          "type": "address"
        }
      ],
      "name": "transferOwnership",
      "outputs": [],
      "stateMutability": "nonpayable",
      "type": "function"
    },
    {
      "inputs": [
        {
          "internalType": "bytes32",
          "name": "_raffleId",
          "type": "bytes32"
        }
      ],
      "name": "transferRemainingFunds",
      "outputs": [],
      "stateMutability": "nonpayable",
      "type": "function"
    },
    {
      "inputs": [
        {
          "components": [
            {
              "internalType": "enum Manager.RAFFLETYPE",
              "name": "raffleType",
              "type": "uint8"
            },
            {
              "internalType": "address",
              "name": "collateralAddress",
              "type": "address"
            },
            {
              "internalType": "uint256",
              "name": "collateralParam",
              "type": "uint256"
            },
            {
              "internalType": "uint256",
              "name": "ticketSupply",
              "type": "uint256"
            },
            {
              "internalType": "uint256",
              "name": "ticketPrice",
              "type": "uint256"
            },
            {
              "internalType": "uint256",
              "name": "endTime",
              "type": "uint256"
            }
          ],
          "internalType": "struct Manager.UserCreateParam",
          "name": "_params",
          "type": "tuple"
        },
        {
          "internalType": "address[]",
          "name": "_collectionWhitelist",
          "type": "address[]"
        },
        {
          "components": [
            {
              "internalType": "bytes32",
              "name": "r",
              "type": "bytes32"
            },
            {
              "internalType": "bytes32",
              "name": "s",
              "type": "bytes32"
            },
            {
              "internalType": "uint8",
              "name": "v",
              "type": "uint8"
            }
          ],
          "internalType": "struct Manager.Sig",
          "name": "_sig",
          "type": "tuple"
        }
      ],
      "name": "userCreateRaffle",
      "outputs": [
        {
          "internalType": "bytes32",
          "name": "",
          "type": "bytes32"
        }
      ],
      "stateMutability": "payable",
      "type": "function"
    },
    {
      "inputs": [],
      "name": "vault",
      "outputs": [
        {
          "internalType": "address",
          "name": "",
          "type": "address"
        }
      ],
      "stateMutability": "view",
      "type": "function"
    }
  ],
  "transactionHash": "0x133b8379fa36f2d137ad686d3b618542f308b5ae7403cf993fdc26ea07755743",
  "args": [
    "0x0026aa7a9a92Fd0F32855e84b40892f8C9d7dE5D",
    "0x70F8373e7da3fF7723cA997D5dA0ffb28452932B",
    "0x8C7382F9D8f56b33781fE506E897a4F1e2d17255",
    "0x326C977E6efc84E512bB9C30f76E30c160eD06FB",
    "0x6e75b569a01ef56d18cab6a8e71e6600d6ce853834d4a5748b720d06f878b3a4",
    "100000000000000"
  ],
  "numDeployments": 1,
  "solcInputHash": "3e9104a0ecf67b3c862bc8e7d57567e3",
  "bytecode": "0x60e0346200016f57601f62004e8638819003918201601f191683019291906001600160401b0384118385101762000174578160c092849260409687528339810103126200016f5762000051816200018a565b9062000060602082016200018a565b916200006e8483016200018a565b926200007d606084016200018a565b9160a06080850151940151946001805560a05260018060a01b03809316608052600560115560008080528060205286812033825260205260ff87822054161562000122575b5060c0521660018060a01b0319601054161760105560035560045551614ce69081620001a0823960805181613436015260a051818181611b1201526134b6015260c0518181816101cd0152818161053201528181611f3701526120050152f35b80805280602052868120338252602052868120600160ff19825416179055339033907f2f8788117e7eff1d82e926ec794901d17c78024a50270940304540a733656f0d8180a438620000c2565b600080fd5b634e487b7160e01b600052604160045260246000fd5b51906001600160a01b03821682036200016f5756fe608080604052600436101561001357600080fd5b600090813560e01c90816301ffc9a71461393057508063046dc166146138eb57806312e8e2c3146138c85780631a0187f514613895578063238ac9331461386c578063248a9ca31461384057806326232a2e146138225780632a596800146137ee5780632b39bc46146133695780632f2ff15d146132bb57806336568abe1461322857806342c8fa42146131f457806353b0a9fc146130ab578063585acad414612aa05780635e320e08146129fe57806365f8d3af1461299f57806371ace689146124e157806371de2ffc146122ee5780637d0c7bba146122c457806391d1485414612279578063934907351461224f57806394985ddd14611b00578063969be23314611ac05780639d86698514611a8c578063a217fddf14611a70578063aa1d8d77146115b2578063b11ce57c14610f5b578063b967ed4614610f17578063baf0290514610ed0578063d4ea07c014610ea6578063d547741f14610e66578063dbb19e2114610809578063de72b5f2146103d8578063e31ef12c146102f9578063f2fde38b1461023a578063f5b541a6146101ff5763fbfa77cf146101b857600080fd5b346101fc57806003193601126101fc576040517f00000000000000000000000000000000000000000000000000000000000000006001600160a01b03168152602090f35b80fd5b50346101fc57806003193601126101fc5760206040517f523a704056dcd17bcf83bed8b68c59416dac1119be77755efe3bde0a64e46e0c8152f35b50346101fc576020806003193601126102f5576004356001600160a01b03811691908290036102f05761026b613a44565b8280528281526102816001604085200154613d83565b8280528281526040832082600052815260ff60406000205416156102a3578280f35b828052828152604083209082600052526040600020600160ff198254161790553390827f2f8788117e7eff1d82e926ec794901d17c78024a50270940304540a733656f0d8180a438808280f35b600080fd5b5080fd5b50346101fc5760203660031901126101fc576004358152600d60205260408120805460ff8160081c1691600181015460018060a01b0390816002840154166003840154600485015491846005870154169360068701549560086007890154980154986040519a61036c8c60ff8416613a21565b60068110156103c4576101809c5060208c015260ff8160101c16151560408c015260181c1660608a0152608089015260a088015260c087015260e0860152610100850152610120840152610140830152610160820152f35b634e487b7160e01b8d52602160045260248dfd5b50346101fc5760203660031901126101fc576103f261479f565b6103fa613c3e565b6004358152600d6020526040812060096040519161041783613ee1565b805461042660ff821685614176565b61043960ff8260081c1660208601614182565b601081901c60ff16151560408581019190915260189190911c6001600160a01b039081166060860152600183015460808601526002830154811660a0860152600383015460c0860152600483015460e086015260058301541661010085015260068201546101208501526007820154610140850152600882015461016085015251910180548083529084526020808520918391820190865b8181106107e75750506104e692500382613f46565b610180820152602081015160068110156107d35760056105069114614802565b61014081015162278d0081018091116107bf5742111561078957600260208201528180808060e08501517f00000000000000000000000000000000000000000000000000000000000000005af161055b6143af565b501561074e5760e08101516040519081527f32959d1c815772f6bcf658a6cb1f04a9f1a98e41efbe542d9ec590f5244b8bef602060043592a28160e08201526004358252600d602052604082208151600381101561073a5760ff801983541691161781556020820151600681101561073a57816105dd600992610180946141f4565b6040840151815460608601516301000000600160b81b0360189190911b1662ff000092151560101b9290921662010000600160b81b0319909116171781556080840151600182015560a08401516002820180546001600160a01b039283166001600160a01b03199182161790915560c0860151600384015560e086015160048401556101008601516005840180549190931691161790556101208401516006820155610140840151600782015561016084015160088201559190920151805192909101906001600160401b03831161072657600160401b8311610726578154838355808410610700575b5060200190835260208320835b8381106106e357846001805580f35b82516001600160a01b0316818301556020909201916001016106d4565b828552836020862091820191015b81811061071b57506106c7565b85815560010161070e565b634e487b7160e01b84526041600452602484fd5b634e487b7160e01b84526021600452602484fd5b60405162461bcd60e51b81526020600482015260136024820152724661696c2073656e642045746820746f204d5760681b6044820152606490fd5b60405162461bcd60e51b815260206004820152600e60248201526d31b630b4b6903a37b79039b7b7b760911b6044820152606490fd5b634e487b7160e01b83526011600452602483fd5b634e487b7160e01b83526021600452602483fd5b84546001600160a01b03168352600194850194869450602090930192016104d1565b50366003190161010081126102f55760c0136101fc576001600160401b0360c435116101fc5736602360c4350112156101fc576001600160401b0360c43560040135116101fc57366024606060c435600401350260c4350101116101fc5760e4356001600160401b0381116102f5576108869036906004016139c7565b9061088f613c3e565b4260a4351115610e2e5760036004351015610bf557610923906108b0614160565b92604051936108be85613ee1565b6108ca60043586614176565b8560208601526001604086015260018060a01b0316606085015260443560808501528460a08501528460c08501528460e08501523361010085015260a4356101208501528461014085015284610160850152369161418e565b610180820152610932816149d6565b90818352600d6020526040832081516003811015610e1a5760ff8019835416911617815560208201516006811015610e1a5761096e90826141f4565b6040820151815460608401516301000000600160b81b0360189190911b1662ff000092151560101b9290921662010000600160b81b0319909116171781556080820151600182015560a08201516002820180546001600160a01b039283166001600160a01b03199182161790915560c0840151600384015560e08401516004840155610100840151600584018054919093169116179055610120820151600682015561014082015160078201556101608201516008820155610180820151805191906001600160401b038311610e0657600160401b8311610e06576009820154836009840155808410610ddc575b506020600991019101855260208520855b838110610dbf575050505060c4356004013515610d8e57825b60c435600401358110610c3a5750608435610ace604051610aa681613eb0565b6064358152826020820152848652600860205260408620906020600191805184550151910155565b60096020526005810460408520558360009260043515600014610bf9576060810151608090910151906001600160a01b0316803b15610bf5576040516323b872dd60e01b8152336004820152306024820152604481019290925282908290606490829084905af18015610bea57610bd2575b50505b610b4b614160565b918385526009602052604085205490610bce57602094506040519160a4358352858301526040820152336060820152610b8960808201600435613a21565b600160a0820152604435916001600160a01b03169083907f6e5c0fa59953352706c48202c24c7018e5045325db5f2cdc1ba287a25dce24dd9060c090a4604051908152f35b8480fd5b610bdb90613efd565b610be6578338610b40565b8380fd5b6040513d84823e3d90fd5b8280fd5b9050600435600203610c2b576060810151608090910151610c2691309033906001600160a01b0316614277565b610b43565b6080610c269101513414614232565b6020610c528260c43560040135602460c43501614222565b013515610d5757610c6f8160c43560040135602460c43501614222565b8385526007602052610c8482604087206139f7565b919091610d4357906002604083610d3e9594358455602081013560018501550135910155837f1b786b27159375b16f23d5e3d0b1b225ce08c1f07a9f35d81b76a12f49ff9e6b610ce08360c43560040135602460c43501614222565b356020610cf98560c43560040135602460c43501614222565b013590610d366040610d178760c43560040135602460c43501614222565b0135604051938493846040919493926060820195825260208201520152565b0390a2614213565b610a86565b634e487b7160e01b86526004869052602486fd5b60405162461bcd60e51b815260206004820152600f60248201526e06e756d5469636b657473206973203608c1b6044820152606490fd5b60405162461bcd60e51b81526020600482015260096024820152684e6f2070726963657360b81b6044820152606490fd5b82516001600160a01b031681830155602090920191600101610a6d565b60098301875260208720908482015b8183018110610dfb575050610a5c565b888155600101610deb565b634e487b7160e01b86526041600452602486fd5b634e487b7160e01b85526021600452602485fd5b60405162461bcd60e51b815260206004820152601060248201526f496e76616c696420656e642074696d6560801b6044820152606490fd5b50346101fc5760403660031901126101fc57610ea3600435610e86613985565b9080845283602052610e9e6001604086200154613d83565b613f8c565b80f35b50346101fc5760203660031901126101fc5760406020916004358152600a83522054604051908152f35b50346101fc5760203660031901126101fc5760406060916004358152600e6020522080549060ff600260018301549201541690604051928352602083015215156040820152f35b50346101fc57602090610f34610f2c366139b1565b8192916148e3565b908252600c835260408220908252825260016040818060a01b039220015416604051908152f35b5060c03660031901126101fc57610f7061399b565b906001600160401b038060a435116102f55736602360a4350112156102f55760a43560040135116101fc57602491368360a4356004013560a4350101116102f557610fb961479f565b6004358252600d602052610fd66006604084200154421115614478565b6004358252600d60205260ff604083205460101c1615611553576004358252600d60205260096040832001546113d3575b6110123315156145ce565b6004358252600d60205260ff604083205460081c1660068110156113c0579261103f61110993941561460f565b6111016040519260208401903360601b82526001600160601b03199060601b166034850152608435938460488201526048815261107b81613f2b565b51902060405160208101917f19457468657265756d205369676e6564204d6573736167653a0a3332000000008352603c820152603c81526110bb81613f10565b5190206110cd60a43560040135614036565b906110db6040519283613f46565b60a4356004810135808452908501602084013786602060a4356004013584010152614bd8565b939093614ad4565b6010546001600160a01b0393908416908416036113885761112d8135600435614a2b565b9160406020840161114081511515614670565b51930151906064039160648311611376575060649161115e91614000565b6040805133602082019081526004359282019290925292909104939161119181606081015b03601f198101835282613f46565b519020906111a08434146146af565b6004358552600d60205260ff604086205460101c168015611344575b6111c590614707565b6004358552600a6020526111f96111e0846040882054614029565b6004358752600860205260016040882001541015614753565b6004358552600a60205260408520611212848254614029565b90556004358552600b6020526040852061122c8154614213565b90556004358552600b6020526040852054906040519161124b83613eb0565b8252600160208301923384526004358852600c60205260408820600b602052604089205489526020526040882090518155019151166001600160601b0360a01b8254161790556004358452600d602052600460408520016112ad348254614029565b9055808452600e602052604084206112c6838254614029565b90558352600e602052600160408420016112e1348254614029565b90556004358352600b6020527f2b6e2ac0f1dd5b1efc9eedda61fa733184aeec619f0b8359452b9aaef93c7aca61133a604085205493604051918291339660043596846040919493926060820195825260208201520152565b0390a36001805580f35b50818552600e6020526111c561135e846040882054614029565b600435875260096020526040872054101590506111bc565b634e487b7160e01b8652601160045285fd5b60649060116040519162461bcd60e51b83526020600484015282015270496e76616c6964207369676e617475726560781b6044820152fd5b5050634e487b7160e01b81526021600452fd5b8190815b6004358352600d60205260096040842001805482101561154457816113fb916144c4565b905460039190911b1c6001600160a01b03908116908316146114255761142090614213565b6113d7565b509091506114386001805b1515146144dc565b6040516331a9108f60e11b8152606435600482018190529060208186816001600160a01b0387165afa908115611539579061148591859161150a575b506001600160a01b03163314614547565b604080516001600160a01b03841660208201908152600435928201929092526060810192909252906114ba8160808101611183565b519020808352600f60205260408320546001600160a01b0316806114f957508252600f6020526040822080546001600160a01b03191633179055611007565b61150591503314614593565b611007565b61152c915060203d602011611532575b6115248183613f46565b810190614528565b38611474565b503d61151a565b6040513d86823e3d90fd5b50509091600161143891611430565b60405162461bcd60e51b8152602060048201526032818501527f4f6e6c79206f70657261746f72206372656174656420726166666c652063616e604482015271103ab9b2903a3434b990333ab731ba34b7b760711b6064820152608490fd5b50346101fc5760203660031901126101fc576115cc61479f565b6115d4613c3e565b6004358152600d60205260408120906009604051926115f284613ee1565b805461160160ff821686614176565b61161460ff8260081c1660208701614182565b601081901c60ff16151560408681019190915260189190911c6001600160a01b039081166060870152600183015460808701526002830154811660a0870152600383015460c0870152600483015460e087015260058301541661010086015260068201546101208601526007820154610140860152600882015461016086015251910180548083529083526020808420918391820190855b818110611a4e5750506116c192500382613f46565b61018083015260208201516006811015611975576004141580611a36575b80611a1e575b80611a06575b806119ee575b6116fa90614802565b6010546001600160a01b03163303611989575b6020820151600681101561197557156118ee575b60056020830152426101408301526004358152600d60205260408120825160038110156107d35760ff80198354169116178155602083015160068110156107d3579061176f600992826141f4565b6040840151815460608601516301000000600160b81b0360189190911b1662ff000092151560101b9290921662010000600160b81b0319909116171781556080840151600182015560a08401516002820180546001600160a01b039283166001600160a01b03199182161790915560c0860151600384015560e086015160048401556101008601516005840180549190931691161790556101208401516006820155610140840151600782015561016084015160088201556101808401518051929091019391906001600160401b03821161072657600160401b82116107265784548286558083106118c8575b5060200193835260208320835b8281106118ab578460e08501516040519081527fb0d756bc39086b9284e5d4678f72c54bd62b72be9b54b6bd569268782ef513da602060043592a26001805580f35b85516001600160a01b031681830155602090950194600101611869565b858552826020862091820191015b8181106118e3575061185c565b8581556001016118d6565b60608201516101008301516080840151916001600160a01b039081169116813b15610be6576040516323b872dd60e01b81523060048201526001600160a01b03919091166024820152604481019290925282908290606490829084905af18015610bea57908291611961575b5050611721565b61196a90613efd565b6101fc57803861195a565b634e487b7160e01b82526021600452602482fd5b6101008201516001600160a01b0316331461170d5760405162461bcd60e51b815260206004820152602260248201527f596f7520617265206e6f742063726561746f72206f66207468697320726166666044820152616c6560f01b6064820152608490fd5b506020820151600681101561197557600514156116f1565b506020820151600681101561197557600314156116eb565b506020820151600681101561197557600114156116e5565b506020820151600681101561197557600214156116df565b84546001600160a01b03168352600194850194869450602090930192016116ac565b50346101fc57806003193601126101fc57602090604051908152f35b50346101fc5760203660031901126101fc576040809160043581526005602052206001815491015482519182526020820152f35b50346101fc5760408091611ad3366139b1565b908252600c602052828220908252602052208054906001808060a01b039101541682519182526020820152f35b50346101fc57611b0f366139b1565b907f00000000000000000000000000000000000000000000000000000000000000006001600160a01b0316330361220a578252600660205260408220600160405191611b5a83613eb0565b80548352015480602083015280156121f6578206916001830183116121e257611bae604051611b8881613eb0565b828152600185810160208084019182528651895260059052604088209251835551910155565b7fff486f05d067208b7216d632d19c54cb41186fe61068eaeeacfb06210805e01c60408351928151908152600186016020820152a251611bec61479f565b808352600d6020526040832091600960405193611c0885613ee1565b8054611c1760ff821687614176565b611c2a60ff8260081c1660208801614182565b601081901c60ff16151560408781019190915260189190911c6001600160a01b039081166060880152600183015460808801526002830154811660a0880152600383015460c0880152600483015460e088015260058301541661010087015260068201546101208701526007820154610140870152600882015461016087015251910180548083529086526020808720918391820190885b8181106121c0575050611cd792500382613f46565b61018084015260208301516006811015610e1a5760011480156121a9575b1561216b576001810160c0840152611d1060018201836148e3565b828552600c60209081526040808720928752918152818620600101546001600160a01b031660a0860152600485820152838652600d90528420835160038110156121575760ff801983541691161781556020840151600681101561215757611d7890826141f4565b6040840151815460608601516301000000600160b81b0360189190911b1662ff000092151560101b9290921662010000600160b81b0319909116171781556080840151600182015560a08401516002820180546001600160a01b039283166001600160a01b03199182161790915560c0860151600384015560e08601516004840155610100860151600584018054919093169116179055610120840151600682015561014084015160078201556101608401516008820155610180840151805191906001600160401b03831161214357600160401b8311612143576009820154836009840155808410612119575b506020600991019101865260208620865b8381106120fc575050505082516003811015610e1a5761204d57606083015160a0840151608085015186926001600160a01b03908116921690823b15610be6576040516323b872dd60e01b81523060048201526001600160a01b0392909216602483015260448201529082908290606490829084905af18015610bea57612039575b505060407fddef822e4f86942c2bd4737756efdcd1f22d2284eededd92b39955451df3dad7915b8482015115611f8d57611f668680808060e08a01517f00000000000000000000000000000000000000000000000000000000000000005af1611f606143af565b5061489f565b600160e0818060a01b0360a088015116960151918351928352016020820152a36001805580f35b837f3104eff20ec1a7cebcdc5b1ec674d0ce059761a56f6aab472652c327d9b61b5c60206064611fc460e08a015160115490614000565b04611ffb8a8080808d611fdb8760e08301516147f5565b610100909101516001600160a01b03165af1611ff56143af565b5061485c565b61202e8a808080857f00000000000000000000000000000000000000000000000000000000000000005af1611f606143af565b8551908152a2611f66565b61204290613efd565b610be6578338611ef9565b82516003811015610e1a577fddef822e4f86942c2bd4737756efdcd1f22d2284eededd92b39955451df3dad7916040916002036120d857606085015160a08601516080870151845163a9059cbb60e01b60208201526001600160a01b0392831660248201526044808201929092529081526120d3929091166120ce82613f2b565b6142d5565b611f20565b6120d38680808060018060a01b0360a08b01511660808b0151905af1611ff56143af565b82516001600160a01b031681830155602090920191600101611e77565b60098301885260208820908482015b8183018110612138575050611e66565b898155600101612128565b634e487b7160e01b87526041600452602487fd5b634e487b7160e01b86526021600452602486fd5b60405162461bcd60e51b8152602060048201526016602482015275526166666c6520696e2077726f6e672073746174757360501b6044820152606490fd5b5060208301516006811015610e1a57600314611cf5565b84546001600160a01b0316835260019485019486945060209093019201611cc2565b634e487b7160e01b84526011600452602484fd5b634e487b7160e01b84526012600452602484fd5b60405162461bcd60e51b815260206004820152601f60248201527f4f6e6c7920565246436f6f7264696e61746f722063616e2066756c66696c6c006044820152606490fd5b50346101fc5760203660031901126101fc5760406020916004358152600b83522054604051908152f35b50346101fc5760403660031901126101fc576040612295613985565b91600435815280602052209060018060a01b0316600052602052602060ff604060002054166040519015158152f35b50346101fc5760203660031901126101fc5760406020916004358152600983522054604051908152f35b50346101fc576020806003193601126102f55760043561230c61479f565b808352600d82526040832060ff815460081c166006811015610e1a576005036124ad57600781015462278d00810180911161249957421161245f57604080513385820190815260208101859052916123679082908401611183565b5190208452600e83526040842090600282019060ff82541661242757600401612398600182549401938454906147f5565b9055600160ff19825416179055838080808454335af16123b66143af565b50156123ef575460405190815233927f9fcdf5658d5b646297a256c6996784bb11a370781b3fcf998145c309588796a191a36001805580f35b60405162461bcd60e51b815260048101849052601060248201526f11985a5b081cd95b99081c99599d5b9960821b6044820152606490fd5b60405162461bcd60e51b815260048101869052601060248201526f185b1c9958591e481c99599d5b99195960821b6044820152606490fd5b60405162461bcd60e51b815260048101849052601260248201527118db185a5b481d1a5b5948195e1c1a5c995960721b6044820152606490fd5b634e487b7160e01b85526011600452602485fd5b60405162461bcd60e51b815260048101849052600c60248201526b77726f6e672073746174757360a01b6044820152606490fd5b5060803660031901126101fc576024356004356124fc61399b565b906064359261250961479f565b818552600d906020908282526125286006604089200154421115614478565b83875282825260ff604088205460101c168015612996575b1561294757838752828252600994856040892001546127e6575b5090919293945061256c3315156145ce565b83865282825260ff604087205460081c1660068110156127d257612590901561460f565b83865282825260408620805460101c60ff161561279657507f2b6e2ac0f1dd5b1efc9eedda61fa733184aeec619f0b8359452b9aaef93c7aca92916125d7600b9286614a2b565b9560408288016125e981511515614670565b51970151935b6040805133858201908152602081018a9052612643929091906126159082908401611183565b519020926126248734146146af565b888b5282855260ff60408c205460101c1690811561276c575b50614707565b868952600a835261267161265b8960408c2054614029565b888b5260088552600160408c2001541015614753565b868952600a835260408920612687898254614029565b90558689528383526040892061269d8154614213565b90558689528383526040892054604051906126b782613eb0565b8152600184820191338352898c52600c865260408c2087875260408d20548d52865260408c2090518155019060018060a01b039051166001600160601b0360a01b825416179055868952825260046040892001612715348254614029565b9055808852600e82526040882061272d888254614029565b90558752600e815260016040882001612747348254614029565b905584875252604080862054815195865260208601528401523392806060810161133a565b9050838b52600e85526127838a60408d2054614029565b90898c52855260408b205410153861263d565b94917f2b6e2ac0f1dd5b1efc9eedda61fa733184aeec619f0b8359452b9aaef93c7aca93926127cc836008600b95990154614000565b936125ef565b634e487b7160e01b87526021600452602487fd5b87966001600160a01b039190828216895b888c528787528960408d2001805482101561292f57856128188385936144c4565b90549060031b1c16146128335761282e90614213565b6127f7565b508596979899509460249293949561284f6001801515146144dc565b604051938480926331a9108f60e11b82528560048301525afa9081156129245761288b6128b592611183948d91612907575b5086163314614547565b6040519283918a8984019687604091949392606082019560018060a01b0316825260208201520152565b51902090818852600f845260408820541680156000146128f657508652600f82526040862080546001600160a01b031916331790555b90849392913861255a565b61290291503314614593565b6128eb565b61291e9150893d8b11611532576115248183613f46565b38612881565b6040513d8c823e3d90fd5b50509460249293949561284f600183999a9b9c611430565b60405162461bcd60e51b815260048101839052602160248201527f5469636b657420636f756e742073686f756c6420626967676572207468616e206044820152600360fc1b6064820152608490fd5b50801515612540565b50346101fc576129ae366139b1565b9082526007602052604082206005821015610bf5576129cd92506139f7565b5080546129fa60026001840154930154604051938493846040919493926060820195825260208201520152565b0390f35b50346101fc5760403660031901126101fc576040606091612a1d613985565b612a2561483d565b5082516001600160a01b0390911660208201908152600435604083015290612a508160608101611183565b5190208152600e60205220604051612a6781613f10565b815491828252604060ff600260018401549360208601948552015416920191151582526040519283525160208301525115156040820152f35b50366003190161014081126102f55760c0136101fc5760c4356001600160401b0381116102f557612ad59036906004016139c7565b9060603660e3190112610bf5576201518042018042116121e25760a435101580613093575b1561303757612b07614160565b60405160208101913360601b83526001600160601b03199060601b16603482015260288152612b3581613f10565b51902060405160208101917f19457468657265756d205369676e6564204d6573736167653a0a3332000000008352603c820152603c8152612b7581613f10565b5190206010546001600160a01b031690846101243560ff811681036102f557602092612bc9604051928392610104359160e43591859094939260ff6060936080840197845216602083015260408201520152565b838052039060015afa1561302c5783516001600160a01b031603612fdc5760036004351015610bf557612c7290612bfe614160565b9260405193612c0c85613ee1565b612c1860043586614176565b85602086015285604086015260018060a01b0316606085015260443560808501528460a08501528460c08501528460e08501523361010085015260a43561012085015284610140850152608435610160850152369161418e565b610180820152612c81816149d6565b90818352600d6020526040832081516003811015610e1a5760ff8019835416911617815560208201516006811015610e1a57612cbd90826141f4565b6040820151815460608401516301000000600160b81b0360189190911b1662ff000092151560101b9290921662010000600160b81b0319909116171781556080820151600182015560a08201516002820180546001600160a01b039283166001600160a01b03199182161790915560c0840151600384015560e08401516004840155610100840151600584018054919093169116179055610120820151600682015561014082015160078201556101608201516008820155610180820151805191906001600160401b038311610e0657600160401b8311610e06576009820154836009840155808410612fb2575b506020600991019101855260208520855b838110612f955750505050606435612dff604051612dd981613eb0565b858152826020820152848652600860205260408620906020600191805184550151910155565b600960205260058104604085205583809260043515600014612f5357608060018060a01b03606083015116910151813b15610bf5576040516323b872dd60e01b8152336004820152306024820152604481019190915291908290606490829084905af18015612f4857612f35575b505b827f1b786b27159375b16f23d5e3d0b1b225ce08c1f07a9f35d81b76a12f49ff9e6b606060405160018152600160208201526084356040820152a2612eb2614160565b918385526009602052604085205490610bce57602094506040519160a4358352858301526040820152336060820152612ef060808201600435613a21565b600060a0820152604435916001600160a01b03169083907f6e5c0fa59953352706c48202c24c7018e5045325db5f2cdc1ba287a25dce24dd9060c090a4604051908152f35b612f4190949194613efd565b9238612e6d565b6040513d87823e3d90fd5b909250600435600203612f86576060810151608090910151612f8191309033906001600160a01b0316614277565b612e6f565b6080612f819101513414614232565b82516001600160a01b031681830155602090920191600101612dbc565b60098301875260208720908482015b8183018110612fd1575050612dab565b888155600101612fc1565b60405162461bcd60e51b815260206004820152602260248201527f5468697320636f6c6c656374696f6e206973206e6f742077686974656c697374604482015261195960f21b6064820152608490fd5b6040513d85823e3d90fd5b60405162461bcd60e51b815260206004820152602e60248201527f496e76616c696420656e642074696d65202d204d696e3a20323420686f75727360448201526d2c204d61783a203134206461797360901b6064820152608490fd5b506212750042018042116121e25760a4351115612afa565b50346101fc576130ba366139b1565b6130c2613a44565b801561319f578183526008602052600160408420015481116131195760207fce73a3d8ee8618d2036857819ba18b5adcf3c36c73c3e76b483bdc75b705709b9183855260098252806040862055604051908152a280f35b60405162461bcd60e51b815260206004820152605260248201527f4d6178207469636b657420636f756e74206d757374206265206c65737320746860448201527f616e206f7220657175616c20746f20746865206d6178207469636b657420636f606482015271756e74206f66207468652066756e64696e6760701b608482015260a490fd5b60405162461bcd60e51b815260206004820152602760248201527f4d6178207469636b657420636f756e74206d75737420626520677265617465726044820152660207468616e20360cc1b6064820152608490fd5b50346101fc5760203660031901126101fc576040809160043581526008602052206001815491015482519182526020820152f35b50346101fc5760403660031901126101fc57613242613985565b336001600160a01b0382160361325e57610ea390600435613f8c565b60405162461bcd60e51b815260206004820152602f60248201527f416363657373436f6e74726f6c3a2063616e206f6e6c792072656e6f756e636560448201526e103937b632b9903337b91039b2b63360891b6064820152608490fd5b50346101fc5760403660031901126101fc576004356132d8613985565b818352826020526132ef6001604085200154613d83565b818352602083815260408085206001600160a01b039093168086529290915283205460ff161561331d578280f35b818352826020526040832081845260205260408320600160ff1982541617905533917f2f8788117e7eff1d82e926ec794901d17c78024a50270940304540a733656f0d8480a438808280f35b50346101fc576020806003193601126102f5576004359061338861479f565b818352600d81526040832060088252604084206001604051916133aa83613eb0565b805483520154838201526010546001600160a01b0391908216330361379d5760068301544211156137585782549060ff8260081c166006811015613744576133f2901561460f565b60ff8260101c161590811561372c575b50156136e75761ff001916610300178255838552600b835260408086205490516370a0823160e01b815230600482015290917f000000000000000000000000000000000000000000000000000000000000000081168583602481845afa9283156136dc5788936136a9575b5060045480931115613650576134f1918691600354948a604051938786860152816040860152604085526134a085613f10565b60405196879586948593630200057560e51b85527f00000000000000000000000000000000000000000000000000000000000000001660048501526024840152606060448401526064830190613f67565b03925af1801561364557613618575b508086526002845260408620546040518581019183835288604083015230606083015260808201526080815260a08101918183106001600160401b0384111761360457826040528151902090838952600287526040892054600181018091116135f0579260019260e086936004989660408e7f83862d9f9127159f912dd9234a8048bca91595db69928e52e7f9c07d66b1edfa9d9c9a815260028d52205560c081019485520152604081526135b481613f10565b51902091604051926135c584613eb0565b8884528684019182528952600686526040892092518355519101550154604051908152a26001805580f35b634e487b7160e01b8a52601160045260248afd5b634e487b7160e01b89526041600452602489fd5b61363790853d871161363e575b61362f8183613f46565b8101906142bd565b5038613500565b503d613625565b6040513d89823e3d90fd5b60405162461bcd60e51b815260048101879052602b60248201527f4e6f7420656e6f756768204c494e4b202d2066696c6c20636f6e74726163742060448201526a1dda5d1a0819985d58d95d60aa1b6064820152608490fd5b9092508581813d83116136d5575b6136c18183613f46565b810103126136d15751913861346d565b8780fd5b503d6136b7565b6040513d8a823e3d90fd5b60405162461bcd60e51b815260048101859052601760248201527f4e6f7420656e6f7567682066756e6473207261697365640000000000000000006044820152606490fd5b9050858752600a855260408720549051111538613402565b634e487b7160e01b88526021600452602488fd5b60405162461bcd60e51b815260048101859052601a60248201527f526166666c65206973206e6f742066696e6973686564207965740000000000006044820152606490fd5b60405162461bcd60e51b8152600481018590526024808201527f596f7520617265206e6f74207369676e6572206f66207468697320636f6e747260448201526330b1ba1760e11b6064820152608490fd5b50346101fc5760203660031901126101fc576040809160043581526006602052206001815491015482519182526020820152f35b50346101fc57806003193601126101fc576020601154604051908152f35b50346101fc5760203660031901126101fc57600160406020926004358152808452200154604051908152f35b50346101fc57806003193601126101fc576010546040516001600160a01b039091168152602090f35b50346101fc5760203660031901126101fc576020906004358152600f8252604060018060a01b0391205416604051908152f35b50346101fc5760203660031901126101fc576138e2613a44565b60043560115580f35b50346101fc5760203660031901126101fc576004356001600160a01b038116908190036102f55761391a613a44565b6001600160601b0360a01b601054161760105580f35b9050346102f55760203660031901126102f55760043563ffffffff60e01b8116809103610bf55760209250637965db0b60e01b8114908115613974575b5015158152f35b6301ffc9a760e01b1490503861396d565b602435906001600160a01b03821682036102f057565b604435906001600160a01b03821682036102f057565b60409060031901126102f0576004359060243590565b9181601f840112156102f0578235916001600160401b0383116102f0576020808501948460051b0101116102f057565b906005811015613a0b576003020190600090565b634e487b7160e01b600052603260045260246000fd5b906003821015613a2e5752565b634e487b7160e01b600052602160045260246000fd5b3360009081527fad3228b676f7d3cd4284a5443f17f1962b36e491b30a40b2405849e597ba5fb5602090815260408083205490929060ff1615613a8657505050565b613a8f33614062565b9080845190613a9d82613f2b565b60428252848201926060368537825115613c2a5760308453825190600191821015613c2a5790607860218501536041915b818311613bbc57505050613b7a576048613b76938693613b5a93613b4b985198899376020b1b1b2b9b9a1b7b73a3937b61d1030b1b1b7bab73a1604d1b8a860152613b22815180928c603789019101613e8d565b8401917001034b99036b4b9b9b4b733903937b6329607d1b603784015251809386840190613e8d565b01036028810187520185613f46565b5192839262461bcd60e51b845260048401526024830190613f67565b0390fd5b60648486519062461bcd60e51b825280600483015260248201527f537472696e67733a20686578206c656e67746820696e73756666696369656e746044820152fd5b909192600f81166010811015613c16576f181899199a1a9b1b9c1cb0b131b232b360811b901a613bec8587614051565b5360041c928015613c0257600019019190613ace565b634e487b7160e01b82526011600452602482fd5b634e487b7160e01b83526032600452602483fd5b634e487b7160e01b81526032600452602490fd5b3360009081527f84779ab8c2db004a3e75bfe114d2b98838cc68288e8e29039ab1b1e132f853bc602090815260408083205490927f523a704056dcd17bcf83bed8b68c59416dac1119be77755efe3bde0a64e46e0c9160ff1615613ca25750505050565b613cab33614062565b91845190613cb882613f2b565b60428252848201926060368537825115613c2a5760308453825190600191821015613c2a5790607860218501536041915b818311613d3d57505050613b7a576048613b76938693613b5a93613b4b985198899376020b1b1b2b9b9a1b7b73a3937b61d1030b1b1b7bab73a1604d1b8a860152613b22815180928c603789019101613e8d565b909192600f81166010811015613c16576f181899199a1a9b1b9c1cb0b131b232b360811b901a613d6d8587614051565b5360041c928015613c0257600019019190613ce9565b600090808252602090828252604092838120338252835260ff848220541615613dac5750505050565b613db533614062565b91845190613dc282613f2b565b60428252848201926060368537825115613c2a5760308453825190600191821015613c2a5790607860218501536041915b818311613e4757505050613b7a576048613b76938693613b5a93613b4b985198899376020b1b1b2b9b9a1b7b73a3937b61d1030b1b1b7bab73a1604d1b8a860152613b22815180928c603789019101613e8d565b909192600f81166010811015613c16576f181899199a1a9b1b9c1cb0b131b232b360811b901a613e778587614051565b5360041c928015613c0257600019019190613df3565b60005b838110613ea05750506000910152565b8181015183820152602001613e90565b604081019081106001600160401b03821117613ecb57604052565b634e487b7160e01b600052604160045260246000fd5b6101a081019081106001600160401b03821117613ecb57604052565b6001600160401b038111613ecb57604052565b606081019081106001600160401b03821117613ecb57604052565b608081019081106001600160401b03821117613ecb57604052565b90601f801991011681019081106001600160401b03821117613ecb57604052565b90602091613f8081518092818552858086019101613e8d565b601f01601f1916010190565b9060009180835282602052604083209160018060a01b03169182845260205260ff604084205416613fbc57505050565b80835282602052604083208284526020526040832060ff1981541690557ff6391f5c32d9c69d2a47ea670b442974b53935d1edc7fd64eb21e047a839171b339380a4565b8181029291811591840414171561401357565b634e487b7160e01b600052601160045260246000fd5b9190820180921161401357565b6001600160401b038111613ecb57601f01601f191660200190565b908151811015613a0b570160200190565b6040519061406f82613f10565b602a8252602082016040368237825115613a0b57603090538151600190811015613a0b57607860218401536029905b8082116140f25750506140ae5790565b606460405162461bcd60e51b815260206004820152602060248201527f537472696e67733a20686578206c656e67746820696e73756666696369656e746044820152fd5b9091600f8116601081101561414b576f181899199a1a9b1b9c1cb0b131b232b360811b901a6141218486614051565b5360041c91801561413657600019019061409e565b60246000634e487b7160e01b81526011600452fd5b60246000634e487b7160e01b81526032600452fd5b6024356001600160a01b03811681036102f05790565b6003821015613a2e5752565b6006821015613a2e5752565b9092916001600160401b038411613ecb578360051b60405192602080946141b782850182613f46565b80978152019181019283116102f057905b8282106141d55750505050565b81356001600160a01b03811681036102f05781529083019083016141c8565b906006811015613a2e5761ff0082549160081b169061ff001916179055565b60001981146140135760010190565b9190811015613a0b576060020190565b1561423957565b60405162461bcd60e51b8152602060048201526016602482015275125b9d985b1a590819195c1bdcda5d08185b5bdd5b9d60521b6044820152606490fd5b6040516323b872dd60e01b60208201526001600160a01b0392831660248201529290911660448301526064808301939093529181526142bb916120ce608483613f46565b565b908160209103126102f0575180151581036102f05790565b604051614333916001600160a01b03166142ee82613eb0565b6000806020958685527f5361666545524332303a206c6f772d6c6576656c2063616c6c206661696c656487860152868151910182855af161432d6143af565b916143df565b8051908161434057505050565b82806143509383010191016142bd565b156143585750565b6084906040519062461bcd60e51b82526004820152602a60248201527f5361666545524332303a204552433230206f7065726174696f6e20646964206e6044820152691bdd081cdd58d8d9595960b21b6064820152fd5b3d156143da573d906143c082614036565b916143ce6040519384613f46565b82523d6000602084013e565b606090565b9192901561444157508151156143f3575090565b3b156143fc5790565b60405162461bcd60e51b815260206004820152601d60248201527f416464726573733a2063616c6c20746f206e6f6e2d636f6e74726163740000006044820152606490fd5b8251909150156144545750805190602001fd5b60405162461bcd60e51b815260206004820152908190613b76906024830190613f67565b1561447f57565b60405162461bcd60e51b815260206004820152601760248201527f526166666c6520616c72656164792066696e69736865640000000000000000006044820152606490fd5b8054821015613a0b5760005260206000200190600090565b156144e357565b60405162461bcd60e51b815260206004820152601a60248201527f4e6f7420696e20726571756972656420636f6c6c656374696f6e0000000000006044820152606490fd5b908160209103126102f057516001600160a01b03811681036102f05790565b1561454e57565b60405162461bcd60e51b815260206004820152601860248201527f4e6f7420746865206f776e6572206f6620746f6b656e496400000000000000006044820152606490fd5b1561459a57565b60405162461bcd60e51b815260206004820152600c60248201526b1d1bdad95b9259081d5cd95960a21b6044820152606490fd5b156145d557565b60405162461bcd60e51b81526020600482015260126024820152711b5cd9cb9cd95b99195c881a5cc81b9d5b1b60721b6044820152606490fd5b1561461657565b60405162461bcd60e51b815260206004820152602c60248201527f526166666c65206973206e6f7420696e2063726561746564206f7220616c726560448201526b18591e48199a5b9a5cda195960a21b6064820152608490fd5b1561467757565b60405162461bcd60e51b815260206004820152601060248201526f1a59081b9bdd081cdd5c1c1bdc9d195960821b6044820152606490fd5b156146b657565b60405162461bcd60e51b8152602060048201526024808201527f6d73672e76616c7565206d75737420626520657175616c20746f2074686520706044820152637269636560e01b6064820152608490fd5b1561470e57565b60405162461bcd60e51b815260206004820152601960248201527f426f7567687420746f6f206d616e7920656e74726965732829000000000000006044820152606490fd5b1561475a57565b60405162461bcd60e51b815260206004820152601860248201527f4d6178207469636b657420616d6f756e742065786365656400000000000000006044820152606490fd5b6002600154146147b0576002600155565b60405162461bcd60e51b815260206004820152601f60248201527f5265656e7472616e637947756172643a207265656e7472616e742063616c6c006044820152606490fd5b9190820391821161401357565b1561480957565b60405162461bcd60e51b815260206004820152600c60248201526b57726f6e672073746174757360a01b6044820152606490fd5b6040519061484a82613f10565b60006040838281528260208201520152565b1561486357565b60405162461bcd60e51b81526020600482015260146024820152732330b4b632b2103a379039b2b7321022ba3432b960611b6044820152606490fd5b156148a657565b60405162461bcd60e51b81526020600482015260156024820152744661696c65642073656e642045746820746f204d5760581b6044820152606490fd5b600090808252602092600b84526040808420549485156149cd5784955b80871061498457508515159384614945575b5050505060001461494157600019820191821161492d575090565b634e487b7160e01b81526011600452602490fd5b5090565b8552600c81528185209293509091906000198601868111614970578552528220541438808080614912565b634e487b7160e01b86526011600452602486fd5b600190614997818918831c828a16614029565b91868852600c845284882083895284528585892054116000146149bb575050614900565b90975081018091116149705795614900565b50505050905090565b8051906003821015613a2e576080606082015191015160405191602083019360f81b84526001600160601b03199060601b166021830152603582015243605582015260558152614a2581613f2b565b51902090565b614a3361483d565b5060005b60058110614a6357505050604051614a4e81613f10565b60008152600060208201526000604082015290565b81600052600760209080825260409085614a8085846000206139f7565b505414614a9857505050614a9390614213565b614a37565b614ab192955060029391946000528552836000206139f7565b50825193614abe85613f10565b8154855260018201549085015201549082015290565b6005811015613a2e5780614ae55750565b60018103614b325760405162461bcd60e51b815260206004820152601860248201527f45434453413a20696e76616c6964207369676e617475726500000000000000006044820152606490fd5b60028103614b7f5760405162461bcd60e51b815260206004820152601f60248201527f45434453413a20696e76616c6964207369676e6174757265206c656e677468006044820152606490fd5b600314614b8857565b60405162461bcd60e51b815260206004820152602260248201527f45434453413a20696e76616c6964207369676e6174757265202773272076616c604482015261756560f01b6064820152608490fd5b906041815114600014614c0657614c02916020820151906060604084015193015160001a90614c10565b9091565b5050600090600290565b939291907f7fffffffffffffffffffffffffffffff5d576e7357a4501ddfe92f46681b20a08311614ca35791614c679160209360405196879094939260ff6060936080840197845216602083015260408201520152565b836000948592838052039060015afa15614c965781516001600160a01b03811615614c90579190565b50600190565b50604051903d90823e3d90fd5b505050905060009060039056fea264697066735822122011b9383fd4854fb9ba459b9facb891f28c1bf41a6517dee5c630b15511bd1cda64736f6c63430008130033",
  "devdoc": {
    "details": "It saves in an ordered array the player wallet and the current entries count. So buying entries has a complexity of O(1) For calculating the winner, from the huge random number generated by Chainlink a normalized random is generated by using the module method, adding 1 to have a random from 1 to entriesCount. So next step is to perform a binary search on the ordered array to get the player O(log n) Example: 0 -> { 1, player1} as player1 buys 1 entry 1 -> {51, player2} as player2 buys 50 entries 2 -> {52, player3} as player3 buys 1 entry 3 -> {53, player4} as player4 buys 1 entry 4 -> {153, player5} as player5 buys 100 entries So the setWinner method performs a binary search on that sorted array to get the upper bound. If the random number generated is 150, the winner is player5. If the random number is 20, winner is player2",
    "events": {
      "RoleAdminChanged(bytes32,bytes32,bytes32)": {
        "details": "Emitted when `newAdminRole` is set as ``role``'s admin role, replacing `previousAdminRole` `DEFAULT_ADMIN_ROLE` is the starting admin for all roles, despite {RoleAdminChanged} not being emitted signaling this. _Available since v3.1._"
      },
      "RoleGranted(bytes32,address,address)": {
        "details": "Emitted when `account` is granted `role`. `sender` is the account that originated the contract call, an admin role bearer except when using {AccessControl-_setupRole}."
      },
      "RoleRevoked(bytes32,address,address)": {
        "details": "Emitted when `account` is revoked `role`. `sender` is the account that originated the contract call:   - if using `revokeRole`, it is the admin role bearer   - if using `renounceRole`, it is the role bearer (i.e. `account`)"
      }
    },
    "kind": "dev",
    "methods": {
      "buyDiscountEntry(bytes32,uint256,address,uint256,uint256,bytes)": {
        "details": "callable by players. Depending on the number of entries assigned to the price structure the player buys (_id parameter) one or more entries will be assigned to the player. Also it is checked the maximum number of entries per user is not reached As the method is payable, in msg.value there will be the amount paid by the user",
        "params": {
          "_collection": ": collection of the tokenId used. Not used if there is no required nft on the raffle",
          "_discount": ": discount in basis points",
          "_entryId": ": id of the price structure if raffle is admin raffle, else count of entry",
          "_raffleId": ": id of the raffle",
          "_tokenIdUsed": ": id of the token used in private raffles (to avoid abuse can not be reused on the same raffle)"
        }
      },
      "buyEntry(bytes32,uint256,address,uint256)": {
        "details": "callable by players. Depending on the number of entries assigned to the price structure the player buys (_id parameter) one or more entries will be assigned to the player. Also it is checked the maximum number of entries per user is not reached As the method is payable, in msg.value there will be the amount paid by the user",
        "params": {
          "_collection": ": collection of the tokenId used. Not used if there is no required nft on the raffle",
          "_idOrTicketCount": ": id of the price structure if raffle is admin raffle, else count of entry",
          "_raffleId": ": id of the raffle",
          "_tokenIdUsed": ": id of the token used in private raffles (to avoid abuse can not be reused on the same raffle)"
        }
      },
      "cancelRaffle(bytes32)": {
        "details": "The operator can cancel the raffle. The NFT is sent back to the seller The raised funds are send to the destination wallet. The buyers will be refunded offchain in the metawin wallet",
        "params": {
          "_raffleId": "Id of the raffle"
        }
      },
      "claimRefund(bytes32)": {
        "details": "The player can claim a refund during the first 30 days after the raffle was cancelled in the map \"ClaimsData\" it is saves how much the player spent on that raffle, as they could have bought several entries",
        "params": {
          "_raffleId": "Id of the raffle"
        }
      },
      "getClaimData(bytes32,address)": {
        "params": {
          "_player": "wallet of the player",
          "_raffleId": "Id of the raffle"
        },
        "returns": {
          "_0": "Claims data of the player on that raffle"
        }
      },
      "getRoleAdmin(bytes32)": {
        "details": "Returns the admin role that controls `role`. See {grantRole} and {revokeRole}. To change a role's admin, use {_setRoleAdmin}."
      },
      "getWinnerAddressFromRandom(bytes32,uint256)": {
        "details": "Uses a binary search on the sorted array to retreive the winner",
        "params": {
          "_normalizedRandomNumber": "Generated by chainlink",
          "_raffleId": "Id of the raffle"
        },
        "returns": {
          "_0": "the wallet that won the raffle"
        }
      },
      "grantRole(bytes32,address)": {
        "details": "Grants `role` to `account`. If `account` had not been already granted `role`, emits a {RoleGranted} event. Requirements: - the caller must have ``role``'s admin role. May emit a {RoleGranted} event."
      },
      "hasRole(bytes32,address)": {
        "details": "Returns `true` if `account` has been granted `role`."
      },
      "operatorCreateRaffle((uint8,address,uint256,uint256,uint256,uint256),(uint256,uint256,uint256)[],address[])": {
        "details": "creates a raffle struct and push it to the raffles array. Some data is stored in the funding data structure sends an event when finished",
        "params": {
          "_collectionWhitelist": "array with the required collections to participate in the raffle. Empty if there is no collection",
          "_params": "params to create raffle",
          "_prices": "Array of prices and amount of entries the customer could purchase"
        },
        "returns": {
          "_0": "raffleId"
        }
      },
      "renounceRole(bytes32,address)": {
        "details": "Revokes `role` from the calling account. Roles are often managed via {grantRole} and {revokeRole}: this function's purpose is to provide a mechanism for accounts to lose their privileges if they are compromised (such as when a trusted device is misplaced). If the calling account had been revoked `role`, emits a {RoleRevoked} event. Requirements: - the caller must be `account`. May emit a {RoleRevoked} event."
      },
      "revokeRole(bytes32,address)": {
        "details": "Revokes `role` from `account`. If `account` had been granted `role`, emits a {RoleRevoked} event. Requirements: - the caller must have ``role``'s admin role. May emit a {RoleRevoked} event."
      },
      "setMaxTicketCount(bytes32,uint256)": {
        "details": "updates max ticket count",
        "params": {
          "_newMaxTicketCount": "new max ticket count to be set",
          "_raffleId": "Id of the raffle"
        }
      },
      "setPlatformFee(uint256)": {
        "details": "updates platform fee",
        "params": {
          "_newFee": "new fee to be set"
        }
      },
      "setSignerAddress(address)": {
        "details": "Change the wallet of the platform signer",
        "params": {
          "_newAddress": "new address of the platform signer"
        }
      },
      "setWinner(bytes32)": {
        "details": "it triggers Chainlink VRF1 consumer, and generates a random number that is normalized and checked that corresponds to a MW player",
        "params": {
          "_raffleId": "Id of the raffle"
        }
      },
      "supportsInterface(bytes4)": {
        "details": "See {IERC165-supportsInterface}."
      },
      "transferOwnership(address)": {
        "details": "updates owner of manager contract",
        "params": {
          "to": "address of new admin"
        }
      },
      "transferRemainingFunds(bytes32)": {
        "details": "after 30 days after cancelling passes, the operator can transfer to vault the remaining funds",
        "params": {
          "_raffleId": "Id of the raffle"
        }
      },
      "userCreateRaffle((uint8,address,uint256,uint256,uint256,uint256),address[],(bytes32,bytes32,uint8))": {
        "details": "creates a raffle struct and push it to the raffles array. Some data is stored in the funding data structure sends an event when finished",
        "params": {
          "_collectionWhitelist": "array with the required collections to participate in the raffle. Empty if there is no collection",
          "_params": "params to create raffle",
          "_sig": "sigature of signer to validate collection"
        },
        "returns": {
          "_0": "raffleId"
        }
      }
    },
    "title": "Raffles Manager",
    "version": 1
  },
  "userdoc": {
    "kind": "user",
    "methods": {
      "buyDiscountEntry(bytes32,uint256,address,uint256,uint256,bytes)": {
        "notice": "If the operator set requiredNFTs when creating the raffle, only the owners of nft on that collection can make a call to this method. This will be used for special raffles"
      },
      "buyEntry(bytes32,uint256,address,uint256)": {
        "notice": "If the operator set requiredNFTs when creating the raffle, only the owners of nft on that collection can make a call to this method. This will be used for special raffles"
      },
      "operatorCreateRaffle((uint8,address,uint256,uint256,uint256,uint256),(uint256,uint256,uint256)[],address[])": {
        "notice": "Creates a raffle"
      },
      "setWinner(bytes32)": {
        "notice": "the operator finish the raffle, if the desired funds has been reached"
      },
      "userCreateRaffle((uint8,address,uint256,uint256,uint256,uint256),address[],(bytes32,bytes32,uint8))": {
        "notice": "Creates a raffle"
      }
    },
    "notice": "It consumes VRF v1 from Chainlink. It has the role There are two type of roles - operator and user Operator can create admin raffles and users can care user raffles Raffle can use 3 type of assets - NFT, ETH and ERC20 token",
    "version": 1
  },
  "storageLayout": {
    "storage": [
      {
        "astId": 409,
        "contract": "contracts/core/Manager.sol:Manager",
        "label": "_roles",
        "offset": 0,
        "slot": "0",
        "type": "t_mapping(t_bytes32,t_struct(RoleData)404_storage)"
      },
      {
        "astId": 897,
        "contract": "contracts/core/Manager.sol:Manager",
        "label": "_status",
        "offset": 0,
        "slot": "1",
        "type": "t_uint256"
      },
      {
        "astId": 79,
        "contract": "contracts/core/Manager.sol:Manager",
        "label": "nonces",
        "offset": 0,
        "slot": "2",
        "type": "t_mapping(t_bytes32,t_uint256)"
      },
      {
        "astId": 4850,
        "contract": "contracts/core/Manager.sol:Manager",
        "label": "keyHash",
        "offset": 0,
        "slot": "3",
        "type": "t_bytes32"
      },
      {
        "astId": 4852,
        "contract": "contracts/core/Manager.sol:Manager",
        "label": "fee",
        "offset": 0,
        "slot": "4",
        "type": "t_uint256"
      },
      {
        "astId": 4875,
        "contract": "contracts/core/Manager.sol:Manager",
        "label": "requests",
        "offset": 0,
        "slot": "5",
        "type": "t_mapping(t_bytes32,t_struct(RandomResult)4857_storage)"
      },
      {
        "astId": 4880,
        "contract": "contracts/core/Manager.sol:Manager",
        "label": "chainlinkRaffleInfo",
        "offset": 0,
        "slot": "6",
        "type": "t_mapping(t_bytes32,t_struct(RaffleInfo)4870_storage)"
      },
      {
        "astId": 5013,
        "contract": "contracts/core/Manager.sol:Manager",
        "label": "prices",
        "offset": 0,
        "slot": "7",
        "type": "t_mapping(t_bytes32,t_array(t_struct(PriceStructure)5006_storage)5_storage)"
      },
      {
        "astId": 5023,
        "contract": "contracts/core/Manager.sol:Manager",
        "label": "fundingList",
        "offset": 0,
        "slot": "8",
        "type": "t_mapping(t_bytes32,t_struct(FundingStructure)5018_storage)"
      },
      {
        "astId": 5027,
        "contract": "contracts/core/Manager.sol:Manager",
        "label": "maxTicketCount",
        "offset": 0,
        "slot": "9",
        "type": "t_mapping(t_bytes32,t_uint256)"
      },
      {
        "astId": 5036,
        "contract": "contracts/core/Manager.sol:Manager",
        "label": "soldTicketCount",
        "offset": 0,
        "slot": "10",
        "type": "t_mapping(t_bytes32,t_uint256)"
      },
      {
        "astId": 5040,
        "contract": "contracts/core/Manager.sol:Manager",
        "label": "entriesCount",
        "offset": 0,
        "slot": "11",
        "type": "t_mapping(t_bytes32,t_uint256)"
      },
      {
        "astId": 5047,
        "contract": "contracts/core/Manager.sol:Manager",
        "label": "entries",
        "offset": 0,
        "slot": "12",
        "type": "t_mapping(t_bytes32,t_mapping(t_uint256,t_struct(EntriesBought)5032_storage))"
      },
      {
        "astId": 5117,
        "contract": "contracts/core/Manager.sol:Manager",
        "label": "raffles",
        "offset": 0,
        "slot": "13",
        "type": "t_mapping(t_bytes32,t_struct(RaffleStruct)5112_storage)"
      },
      {
        "astId": 5129,
        "contract": "contracts/core/Manager.sol:Manager",
        "label": "claimsData",
        "offset": 0,
        "slot": "14",
        "type": "t_mapping(t_bytes32,t_struct(ClaimStruct)5124_storage)"
      },
      {
        "astId": 5133,
        "contract": "contracts/core/Manager.sol:Manager",
        "label": "requiredNFTWallets",
        "offset": 0,
        "slot": "15",
        "type": "t_mapping(t_bytes32,t_address)"
      },
      {
        "astId": 5142,
        "contract": "contracts/core/Manager.sol:Manager",
        "label": "signer",
        "offset": 0,
        "slot": "16",
        "type": "t_address"
      },
      {
        "astId": 5145,
        "contract": "contracts/core/Manager.sol:Manager",
        "label": "platformFee",
        "offset": 0,
        "slot": "17",
        "type": "t_uint256"
      }
    ],
    "types": {
      "t_address": {
        "encoding": "inplace",
        "label": "address",
        "numberOfBytes": "20"
      },
      "t_array(t_address)dyn_storage": {
        "base": "t_address",
        "encoding": "dynamic_array",
        "label": "address[]",
        "numberOfBytes": "32"
      },
      "t_array(t_struct(PriceStructure)5006_storage)5_storage": {
        "base": "t_struct(PriceStructure)5006_storage",
        "encoding": "inplace",
        "label": "struct Manager.PriceStructure[5]",
        "numberOfBytes": "480"
      },
      "t_bool": {
        "encoding": "inplace",
        "label": "bool",
        "numberOfBytes": "1"
      },
      "t_bytes32": {
        "encoding": "inplace",
        "label": "bytes32",
        "numberOfBytes": "32"
      },
      "t_enum(RAFFLETYPE)4884": {
        "encoding": "inplace",
        "label": "enum Manager.RAFFLETYPE",
        "numberOfBytes": "1"
      },
      "t_enum(STATUS)4891": {
        "encoding": "inplace",
        "label": "enum Manager.STATUS",
        "numberOfBytes": "1"
      },
      "t_mapping(t_address,t_bool)": {
        "encoding": "mapping",
        "key": "t_address",
        "label": "mapping(address => bool)",
        "numberOfBytes": "32",
        "value": "t_bool"
      },
      "t_mapping(t_bytes32,t_address)": {
        "encoding": "mapping",
        "key": "t_bytes32",
        "label": "mapping(bytes32 => address)",
        "numberOfBytes": "32",
        "value": "t_address"
      },
      "t_mapping(t_bytes32,t_array(t_struct(PriceStructure)5006_storage)5_storage)": {
        "encoding": "mapping",
        "key": "t_bytes32",
        "label": "mapping(bytes32 => struct Manager.PriceStructure[5])",
        "numberOfBytes": "32",
        "value": "t_array(t_struct(PriceStructure)5006_storage)5_storage"
      },
      "t_mapping(t_bytes32,t_mapping(t_uint256,t_struct(EntriesBought)5032_storage))": {
        "encoding": "mapping",
        "key": "t_bytes32",
        "label": "mapping(bytes32 => mapping(uint256 => struct Manager.EntriesBought))",
        "numberOfBytes": "32",
        "value": "t_mapping(t_uint256,t_struct(EntriesBought)5032_storage)"
      },
      "t_mapping(t_bytes32,t_struct(ClaimStruct)5124_storage)": {
        "encoding": "mapping",
        "key": "t_bytes32",
        "label": "mapping(bytes32 => struct Manager.ClaimStruct)",
        "numberOfBytes": "32",
        "value": "t_struct(ClaimStruct)5124_storage"
      },
      "t_mapping(t_bytes32,t_struct(FundingStructure)5018_storage)": {
        "encoding": "mapping",
        "key": "t_bytes32",
        "label": "mapping(bytes32 => struct Manager.FundingStructure)",
        "numberOfBytes": "32",
        "value": "t_struct(FundingStructure)5018_storage"
      },
      "t_mapping(t_bytes32,t_struct(RaffleInfo)4870_storage)": {
        "encoding": "mapping",
        "key": "t_bytes32",
        "label": "mapping(bytes32 => struct Manager.RaffleInfo)",
        "numberOfBytes": "32",
        "value": "t_struct(RaffleInfo)4870_storage"
      },
      "t_mapping(t_bytes32,t_struct(RaffleStruct)5112_storage)": {
        "encoding": "mapping",
        "key": "t_bytes32",
        "label": "mapping(bytes32 => struct Manager.RaffleStruct)",
        "numberOfBytes": "32",
        "value": "t_struct(RaffleStruct)5112_storage"
      },
      "t_mapping(t_bytes32,t_struct(RandomResult)4857_storage)": {
        "encoding": "mapping",
        "key": "t_bytes32",
        "label": "mapping(bytes32 => struct Manager.RandomResult)",
        "numberOfBytes": "32",
        "value": "t_struct(RandomResult)4857_storage"
      },
      "t_mapping(t_bytes32,t_struct(RoleData)404_storage)": {
        "encoding": "mapping",
        "key": "t_bytes32",
        "label": "mapping(bytes32 => struct AccessControl.RoleData)",
        "numberOfBytes": "32",
        "value": "t_struct(RoleData)404_storage"
      },
      "t_mapping(t_bytes32,t_uint256)": {
        "encoding": "mapping",
        "key": "t_bytes32",
        "label": "mapping(bytes32 => uint256)",
        "numberOfBytes": "32",
        "value": "t_uint256"
      },
      "t_mapping(t_uint256,t_struct(EntriesBought)5032_storage)": {
        "encoding": "mapping",
        "key": "t_uint256",
        "label": "mapping(uint256 => struct Manager.EntriesBought)",
        "numberOfBytes": "32",
        "value": "t_struct(EntriesBought)5032_storage"
      },
      "t_struct(ClaimStruct)5124_storage": {
        "encoding": "inplace",
        "label": "struct Manager.ClaimStruct",
        "members": [
          {
            "astId": 5119,
            "contract": "contracts/core/Manager.sol:Manager",
            "label": "numTicketsPerUser",
            "offset": 0,
            "slot": "0",
            "type": "t_uint256"
          },
          {
            "astId": 5121,
            "contract": "contracts/core/Manager.sol:Manager",
            "label": "amountSpentInWeis",
            "offset": 0,
            "slot": "1",
            "type": "t_uint256"
          },
          {
            "astId": 5123,
            "contract": "contracts/core/Manager.sol:Manager",
            "label": "claimed",
            "offset": 0,
            "slot": "2",
            "type": "t_bool"
          }
        ],
        "numberOfBytes": "96"
      },
      "t_struct(EntriesBought)5032_storage": {
        "encoding": "inplace",
        "label": "struct Manager.EntriesBought",
        "members": [
          {
            "astId": 5029,
            "contract": "contracts/core/Manager.sol:Manager",
            "label": "currentEntriesLength",
            "offset": 0,
            "slot": "0",
            "type": "t_uint256"
          },
          {
            "astId": 5031,
            "contract": "contracts/core/Manager.sol:Manager",
            "label": "player",
            "offset": 0,
            "slot": "1",
            "type": "t_address"
          }
        ],
        "numberOfBytes": "64"
      },
      "t_struct(FundingStructure)5018_storage": {
        "encoding": "inplace",
        "label": "struct Manager.FundingStructure",
        "members": [
          {
            "astId": 5015,
            "contract": "contracts/core/Manager.sol:Manager",
            "label": "minTicketCount",
            "offset": 0,
            "slot": "0",
            "type": "t_uint256"
          },
          {
            "astId": 5017,
            "contract": "contracts/core/Manager.sol:Manager",
            "label": "maxTicketCount",
            "offset": 0,
            "slot": "1",
            "type": "t_uint256"
          }
        ],
        "numberOfBytes": "64"
      },
      "t_struct(PriceStructure)5006_storage": {
        "encoding": "inplace",
        "label": "struct Manager.PriceStructure",
        "members": [
          {
            "astId": 5001,
            "contract": "contracts/core/Manager.sol:Manager",
            "label": "id",
            "offset": 0,
            "slot": "0",
            "type": "t_uint256"
          },
          {
            "astId": 5003,
            "contract": "contracts/core/Manager.sol:Manager",
            "label": "numTickets",
            "offset": 0,
            "slot": "1",
            "type": "t_uint256"
          },
          {
            "astId": 5005,
            "contract": "contracts/core/Manager.sol:Manager",
            "label": "price",
            "offset": 0,
            "slot": "2",
            "type": "t_uint256"
          }
        ],
        "numberOfBytes": "96"
      },
      "t_struct(RaffleInfo)4870_storage": {
        "encoding": "inplace",
        "label": "struct Manager.RaffleInfo",
        "members": [
          {
            "astId": 4867,
            "contract": "contracts/core/Manager.sol:Manager",
            "label": "id",
            "offset": 0,
            "slot": "0",
            "type": "t_bytes32"
          },
          {
            "astId": 4869,
            "contract": "contracts/core/Manager.sol:Manager",
            "label": "size",
            "offset": 0,
            "slot": "1",
            "type": "t_uint256"
          }
        ],
        "numberOfBytes": "64"
      },
      "t_struct(RaffleStruct)5112_storage": {
        "encoding": "inplace",
        "label": "struct Manager.RaffleStruct",
        "members": [
          {
            "astId": 5085,
            "contract": "contracts/core/Manager.sol:Manager",
            "label": "raffleType",
            "offset": 0,
            "slot": "0",
            "type": "t_enum(RAFFLETYPE)4884"
          },
          {
            "astId": 5088,
            "contract": "contracts/core/Manager.sol:Manager",
            "label": "status",
            "offset": 1,
            "slot": "0",
            "type": "t_enum(STATUS)4891"
          },
          {
            "astId": 5090,
            "contract": "contracts/core/Manager.sol:Manager",
            "label": "operatorCreated",
            "offset": 2,
            "slot": "0",
            "type": "t_bool"
          },
          {
            "astId": 5092,
            "contract": "contracts/core/Manager.sol:Manager",
            "label": "collateralAddress",
            "offset": 3,
            "slot": "0",
            "type": "t_address"
          },
          {
            "astId": 5094,
            "contract": "contracts/core/Manager.sol:Manager",
            "label": "collateralParam",
            "offset": 0,
            "slot": "1",
            "type": "t_uint256"
          },
          {
            "astId": 5096,
            "contract": "contracts/core/Manager.sol:Manager",
            "label": "winner",
            "offset": 0,
            "slot": "2",
            "type": "t_address"
          },
          {
            "astId": 5098,
            "contract": "contracts/core/Manager.sol:Manager",
            "label": "randomNumber",
            "offset": 0,
            "slot": "3",
            "type": "t_uint256"
          },
          {
            "astId": 5100,
            "contract": "contracts/core/Manager.sol:Manager",
            "label": "amountRaised",
            "offset": 0,
            "slot": "4",
            "type": "t_uint256"
          },
          {
            "astId": 5102,
            "contract": "contracts/core/Manager.sol:Manager",
            "label": "seller",
            "offset": 0,
            "slot": "5",
            "type": "t_address"
          },
          {
            "astId": 5104,
            "contract": "contracts/core/Manager.sol:Manager",
            "label": "endTime",
            "offset": 0,
            "slot": "6",
            "type": "t_uint256"
          },
          {
            "astId": 5106,
            "contract": "contracts/core/Manager.sol:Manager",
            "label": "cancellingDate",
            "offset": 0,
            "slot": "7",
            "type": "t_uint256"
          },
          {
            "astId": 5108,
            "contract": "contracts/core/Manager.sol:Manager",
            "label": "ticketPrice",
            "offset": 0,
            "slot": "8",
            "type": "t_uint256"
          },
          {
            "astId": 5111,
            "contract": "contracts/core/Manager.sol:Manager",
            "label": "collectionWhitelist",
            "offset": 0,
            "slot": "9",
            "type": "t_array(t_address)dyn_storage"
          }
        ],
        "numberOfBytes": "320"
      },
      "t_struct(RandomResult)4857_storage": {
        "encoding": "inplace",
        "label": "struct Manager.RandomResult",
        "members": [
          {
            "astId": 4854,
            "contract": "contracts/core/Manager.sol:Manager",
            "label": "randomNumber",
            "offset": 0,
            "slot": "0",
            "type": "t_uint256"
          },
          {
            "astId": 4856,
            "contract": "contracts/core/Manager.sol:Manager",
            "label": "nomalizedRandomNumber",
            "offset": 0,
            "slot": "1",
            "type": "t_uint256"
          }
        ],
        "numberOfBytes": "64"
      },
      "t_struct(RoleData)404_storage": {
        "encoding": "inplace",
        "label": "struct AccessControl.RoleData",
        "members": [
          {
            "astId": 401,
            "contract": "contracts/core/Manager.sol:Manager",
            "label": "members",
            "offset": 0,
            "slot": "0",
            "type": "t_mapping(t_address,t_bool)"
          },
          {
            "astId": 403,
            "contract": "contracts/core/Manager.sol:Manager",
            "label": "adminRole",
            "offset": 0,
            "slot": "1",
            "type": "t_bytes32"
          }
        ],
        "numberOfBytes": "64"
      },
      "t_uint256": {
        "encoding": "inplace",
        "label": "uint256",
        "numberOfBytes": "32"
      }
    }
  }
}