{
  "address": "0x0026aa7a9a92Fd0F32855e84b40892f8C9d7dE5D",
  "abi": [
    {
      "inputs": [
        {
          "internalType": "address",
          "name": "_signer",
          "type": "address"
        }
      ],
      "stateMutability": "nonpayable",
      "type": "constructor"
    },
    {
      "anonymous": false,
      "inputs": [
        {
          "indexed": true,
          "internalType": "address",
          "name": "previousOwner",
          "type": "address"
        },
        {
          "indexed": true,
          "internalType": "address",
          "name": "newOwner",
          "type": "address"
        }
      ],
      "name": "OwnershipTransferred",
      "type": "event"
    },
    {
      "anonymous": false,
      "inputs": [
        {
          "indexed": true,
          "internalType": "address",
          "name": "to",
          "type": "address"
        },
        {
          "indexed": false,
          "internalType": "uint256",
          "name": "amount",
          "type": "uint256"
        }
      ],
      "name": "ReferralRewardClaimed",
      "type": "event"
    },
    {
      "stateMutability": "payable",
      "type": "fallback"
    },
    {
      "inputs": [
        {
          "internalType": "uint256",
          "name": "amount",
          "type": "uint256"
        }
      ],
      "name": "claimFund",
      "outputs": [],
      "stateMutability": "nonpayable",
      "type": "function"
    },
    {
      "inputs": [
        {
          "internalType": "uint256",
          "name": "amount",
          "type": "uint256"
        },
        {
          "internalType": "bytes",
          "name": "signature",
          "type": "bytes"
        }
      ],
      "name": "claimReferralReward",
      "outputs": [],
      "stateMutability": "nonpayable",
      "type": "function"
    },
    {
      "inputs": [
        {
          "internalType": "address",
          "name": "",
          "type": "address"
        }
      ],
      "name": "claimedDate",
      "outputs": [
        {
          "internalType": "uint256",
          "name": "",
          "type": "uint256"
        }
      ],
      "stateMutability": "view",
      "type": "function"
    },
    {
      "inputs": [],
      "name": "owner",
      "outputs": [
        {
          "internalType": "address",
          "name": "",
          "type": "address"
        }
      ],
      "stateMutability": "view",
      "type": "function"
    },
    {
      "inputs": [],
      "name": "renounceOwnership",
      "outputs": [],
      "stateMutability": "nonpayable",
      "type": "function"
    },
    {
      "inputs": [
        {
          "internalType": "address payable",
          "name": "_newAddress",
          "type": "address"
        }
      ],
      "name": "setSignerAddress",
      "outputs": [],
      "stateMutability": "nonpayable",
      "type": "function"
    },
    {
      "inputs": [],
      "name": "signer",
      "outputs": [
        {
          "internalType": "address",
          "name": "",
          "type": "address"
        }
      ],
      "stateMutability": "view",
      "type": "function"
    },
    {
      "inputs": [
        {
          "internalType": "address",
          "name": "newOwner",
          "type": "address"
        }
      ],
      "name": "transferOwnership",
      "outputs": [],
      "stateMutability": "nonpayable",
      "type": "function"
    },
    {
      "stateMutability": "payable",
      "type": "receive"
    }
  ],
  "transactionHash": "0x329019b472cfa1e696776e85656804f7f0645e5bf8e36cb22fc86fba45e3fedf",
  "args": [
    "0x70F8373e7da3fF7723cA997D5dA0ffb28452932B"
  ],
  "numDeployments": 1,
  "solcInputHash": "3e9104a0ecf67b3c862bc8e7d57567e3",
  "bytecode": "0x6080346100e457601f6108c538819003918201601f19168301916001600160401b038311848410176100e9578084926020946040528339810103126100e457516001600160a01b03808216918290036100e4576000549060018060a01b0319913383821617600055604051913391167f8be0079c531659141344cd1fd0a4f28419497f9722a3daafe3b4186f6b6457e0600080a382156100b1575060025416176002556040516107c590816101008239f35b62461bcd60e51b815260206004820152600e60248201526d24a72b20a624a22fa9a4a3a722a960911b6044820152606490fd5b600080fd5b634e487b7160e01b600052604160045260246000fdfe60406080815260048036101561001c575b5050361561001a57005b005b600091823560e01c8063046dc166146104465780630b3ec8411461040c578063238ac933146103e357806331c7364f146103b157806343d1e0eb146101d6578063715018a6146101795780638da5cb5b1461014d5763f2fde38b146100815750610010565b34610149576020366003190112610149576001600160a01b03823581811693919290849003610145576100b261048f565b83156100f357505082546001600160a01b0319811683178455167f8be0079c531659141344cd1fd0a4f28419497f9722a3daafe3b4186f6b6457e08380a380f35b906020608492519162461bcd60e51b8352820152602660248201527f4f776e61626c653a206e6577206f776e657220697320746865207a65726f206160448201526564647265737360d01b6064820152fd5b8480fd5b8280fd5b838234610175578160031936011261017557905490516001600160a01b039091168152602090f35b5080fd5b83346101d357806003193601126101d35761019261048f565b80546001600160a01b03198116825581906001600160a01b03167f8be0079c531659141344cd1fd0a4f28419497f9722a3daafe3b4186f6b6457e08280a380f35b80fd5b50903461014957816003193601126101495780359167ffffffffffffffff91602480358481116103ad57366023820112156103ad57808301358581116103a957368382840101116103a9573388526020956001875285892054865191888301913360601b83528a60348501526054840152605483526080830191838310828411176103975760e090838a52845190209360a08101947f19457468657265756d205369676e6564204d6573736167653a0a333200000000865260bc820152603c845201908282109082111761038557886102e895936102e095938d938b525190209280886102c28261051f565b966102cf8d5198896104e7565b8288520183870137840101526106c8565b9190916105ae565b6002546001600160a01b03908116911603610351575050907f5be4d22009fea85381595ed91090bc5c0bc92a93fe07ed7472c5888eb1993f839161033b8580808088335af161033561053b565b5061056b565b338552600182524281862055519283523392a280f35b60649360119293519362461bcd60e51b855284015282015270496e76616c6964207369676e617475726560781b6044820152fd5b634e487b7160e01b8b5260418752858bfd5b634e487b7160e01b8c5260418852868cfd5b8780fd5b8680fd5b505034610175578160203660031901126101d3578080806103e0946103d461048f565b35335af161033561053b565b80f35b83823461017557816003193601126101755760025490516001600160a01b039091168152602090f35b50903461014957602036600319011261014957356001600160a01b0381169081900361014957828291602094526001845220549051908152f35b50503461017557602036600319011261017557356001600160a01b038116908190036101755761047461048f565b6bffffffffffffffffffffffff60a01b600254161760025580f35b6000546001600160a01b031633036104a357565b606460405162461bcd60e51b815260206004820152602060248201527f4f776e61626c653a2063616c6c6572206973206e6f7420746865206f776e65726044820152fd5b90601f8019910116810190811067ffffffffffffffff82111761050957604052565b634e487b7160e01b600052604160045260246000fd5b67ffffffffffffffff811161050957601f01601f191660200190565b3d15610566573d9061054c8261051f565b9161055a60405193846104e7565b82523d6000602084013e565b606090565b1561057257565b60405162461bcd60e51b81526020600482015260146024820152732330b4b632b2103a379039b2b7321022ba3432b960611b6044820152606490fd5b60058110156106b257806105bf5750565b6001810361060c5760405162461bcd60e51b815260206004820152601860248201527f45434453413a20696e76616c6964207369676e617475726500000000000000006044820152606490fd5b600281036106595760405162461bcd60e51b815260206004820152601f60248201527f45434453413a20696e76616c6964207369676e6174757265206c656e677468006044820152606490fd5b60031461066257565b60405162461bcd60e51b815260206004820152602260248201527f45434453413a20696e76616c6964207369676e6174757265202773272076616c604482015261756560f01b6064820152608490fd5b634e487b7160e01b600052602160045260246000fd5b9060418151146000146106f6576106f2916020820151906060604084015193015160001a90610700565b9091565b5050600090600290565b9291907f7fffffffffffffffffffffffffffffff5d576e7357a4501ddfe92f46681b20a083116107835791608094939160ff602094604051948552168484015260408301526060820152600093849182805260015afa156107765781516001600160a01b03811615610770579190565b50600190565b50604051903d90823e3d90fd5b5050505060009060039056fea2646970667358221220e698a1dfb82a33ab3415b2c7e4c7e749edba02a22bfd6e1a06b60033d42336e964736f6c63430008130033",
  "devdoc": {
    "details": "users can withdraw referral reward in this contract with backend signatures",
    "events": {
      "ReferralRewardClaimed(address,uint256)": {
        "details": "triggers when claimed referral reward"
      }
    },
    "kind": "dev",
    "methods": {
      "claimFund(uint256)": {
        "details": "claim funds",
        "params": {
          "amount": "amount to claim"
        }
      },
      "claimReferralReward(uint256,bytes)": {
        "params": {
          "amount": "amount to claim",
          "signature": "sigature of signer"
        }
      },
      "constructor": {
        "params": {
          "_signer": "signer address"
        }
      },
      "owner()": {
        "details": "Returns the address of the current owner."
      },
      "renounceOwnership()": {
        "details": "Leaves the contract without owner. It will not be possible to call `onlyOwner` functions anymore. Can only be called by the current owner. NOTE: Renouncing ownership will leave the contract without an owner, thereby removing any functionality that is only available to the owner."
      },
      "setSignerAddress(address)": {
        "details": "Change the wallet of the platform signer",
        "params": {
          "_newAddress": "new address of the platform signer"
        }
      },
      "transferOwnership(address)": {
        "details": "Transfers ownership of the contract to a new account (`newOwner`). Can only be called by the current owner."
      }
    },
    "stateVariables": {
      "claimedDate": {
        "details": "saved last claimed time"
      },
      "signer": {
        "details": "signer address"
      }
    },
    "title": "Vault contract",
    "version": 1
  },
  "userdoc": {
    "kind": "user",
    "methods": {},
    "notice": "all operator raffle funds and platform fee saves on here. referral system integrated to this contract",
    "version": 1
  },
  "storageLayout": {
    "storage": [
      {
        "astId": 781,
        "contract": "contracts/core/Vault.sol:Vault",
        "label": "_owner",
        "offset": 0,
        "slot": "0",
        "type": "t_address"
      },
      {
        "astId": 7387,
        "contract": "contracts/core/Vault.sol:Vault",
        "label": "claimedDate",
        "offset": 0,
        "slot": "1",
        "type": "t_mapping(t_address,t_uint256)"
      },
      {
        "astId": 7390,
        "contract": "contracts/core/Vault.sol:Vault",
        "label": "signer",
        "offset": 0,
        "slot": "2",
        "type": "t_address"
      }
    ],
    "types": {
      "t_address": {
        "encoding": "inplace",
        "label": "address",
        "numberOfBytes": "20"
      },
      "t_mapping(t_address,t_uint256)": {
        "encoding": "mapping",
        "key": "t_address",
        "label": "mapping(address => uint256)",
        "numberOfBytes": "32",
        "value": "t_uint256"
      },
      "t_uint256": {
        "encoding": "inplace",
        "label": "uint256",
        "numberOfBytes": "32"
      }
    }
  }
}