{
  "address": "0x985C45B303E98f6Be543766f489581BAE78E0a9d",
  "abi": [
    {
      "inputs": [
        {
          "internalType": "address",
          "name": "_signer",
          "type": "address"
        }
      ],
      "stateMutability": "nonpayable",
      "type": "constructor"
    },
    {
      "anonymous": false,
      "inputs": [
        {
          "indexed": true,
          "internalType": "address",
          "name": "previousOwner",
          "type": "address"
        },
        {
          "indexed": true,
          "internalType": "address",
          "name": "newOwner",
          "type": "address"
        }
      ],
      "name": "OwnershipTransferred",
      "type": "event"
    },
    {
      "anonymous": false,
      "inputs": [
        {
          "indexed": true,
          "internalType": "address",
          "name": "to",
          "type": "address"
        },
        {
          "indexed": false,
          "internalType": "uint256",
          "name": "amount",
          "type": "uint256"
        }
      ],
      "name": "ReferralRewardClaimed",
      "type": "event"
    },
    {
      "stateMutability": "payable",
      "type": "fallback"
    },
    {
      "inputs": [
        {
          "internalType": "uint256",
          "name": "amount",
          "type": "uint256"
        }
      ],
      "name": "claimFund",
      "outputs": [],
      "stateMutability": "nonpayable",
      "type": "function"
    },
    {
      "inputs": [
        {
          "internalType": "uint256",
          "name": "amount",
          "type": "uint256"
        },
        {
          "internalType": "bytes",
          "name": "signature",
          "type": "bytes"
        }
      ],
      "name": "claimReferralReward",
      "outputs": [],
      "stateMutability": "nonpayable",
      "type": "function"
    },
    {
      "inputs": [
        {
          "internalType": "address",
          "name": "",
          "type": "address"
        }
      ],
      "name": "claimedDate",
      "outputs": [
        {
          "internalType": "uint256",
          "name": "",
          "type": "uint256"
        }
      ],
      "stateMutability": "view",
      "type": "function"
    },
    {
      "inputs": [],
      "name": "owner",
      "outputs": [
        {
          "internalType": "address",
          "name": "",
          "type": "address"
        }
      ],
      "stateMutability": "view",
      "type": "function"
    },
    {
      "inputs": [],
      "name": "renounceOwnership",
      "outputs": [],
      "stateMutability": "nonpayable",
      "type": "function"
    },
    {
      "inputs": [
        {
          "internalType": "address payable",
          "name": "_newAddress",
          "type": "address"
        }
      ],
      "name": "setSignerAddress",
      "outputs": [],
      "stateMutability": "nonpayable",
      "type": "function"
    },
    {
      "inputs": [],
      "name": "signer",
      "outputs": [
        {
          "internalType": "address",
          "name": "",
          "type": "address"
        }
      ],
      "stateMutability": "view",
      "type": "function"
    },
    {
      "inputs": [
        {
          "internalType": "address",
          "name": "newOwner",
          "type": "address"
        }
      ],
      "name": "transferOwnership",
      "outputs": [],
      "stateMutability": "nonpayable",
      "type": "function"
    },
    {
      "stateMutability": "payable",
      "type": "receive"
    }
  ],
  "transactionHash": "0x00287aeb8514fff0797fa4bec9263c556631d8907974ec365deecc746cd97d4c",
  "args": [
    "0x70F8373e7da3fF7723cA997D5dA0ffb28452932B"
  ],
  "numDeployments": 1,
  "solcInputHash": "f7333f8616328ebef969b27c17014931",
  "bytecode": "0x608060405234801561001057600080fd5b50604051610a4d380380610a4d83398101604081905261002f9161008e565b6100383361003e565b506100be565b600080546001600160a01b038381166001600160a01b0319831681178455604051919092169283917f8be0079c531659141344cd1fd0a4f28419497f9722a3daafe3b4186f6b6457e09190a35050565b6000602082840312156100a057600080fd5b81516001600160a01b03811681146100b757600080fd5b9392505050565b610980806100cd6000396000f3fe6080604052600436106100795760003560e01c806343d1e0eb1161004b57806343d1e0eb1461013a578063715018a61461015a5780638da5cb5b1461016f578063f2fde38b1461018d57005b8063046dc166146100825780630b3ec841146100a2578063238ac933146100e257806331c7364f1461011a57005b3661008057005b005b34801561008e57600080fd5b5061008061009d36600461087b565b6101ad565b3480156100ae57600080fd5b506100cf6100bd36600461087b565b60016020526000908152604090205481565b6040519081526020015b60405180910390f35b3480156100ee57600080fd5b50600254610102906001600160a01b031681565b6040516001600160a01b0390911681526020016100d9565b34801561012657600080fd5b5061008061013536600461089f565b6101d7565b34801561014657600080fd5b506100806101553660046108b8565b610277565b34801561016657600080fd5b506100806103a4565b34801561017b57600080fd5b506000546001600160a01b0316610102565b34801561019957600080fd5b506100806101a836600461087b565b6103b8565b6101b5610431565b600280546001600160a01b0319166001600160a01b0392909216919091179055565b6101df610431565b604051600090339083908381818185875af1925050503d8060008114610221576040519150601f19603f3d011682016040523d82523d6000602084013e610226565b606091505b50509050806102735760405162461bcd60e51b81526020600482015260146024820152732330b4b632b2103a379039b2b7321022ba3432b960611b60448201526064015b60405180910390fd5b5050565b6102838333848461048b565b6102c35760405162461bcd60e51b8152602060048201526011602482015270496e76616c6964207369676e617475726560781b604482015260640161026a565b604051600090339085908381818185875af1925050503d8060008114610305576040519150601f19603f3d011682016040523d82523d6000602084013e61030a565b606091505b50509050806103525760405162461bcd60e51b81526020600482015260146024820152732330b4b632b2103a379039b2b7321022ba3432b960611b604482015260640161026a565b3360008181526001602052604090819020429055517f5be4d22009fea85381595ed91090bc5c0bc92a93fe07ed7472c5888eb1993f83906103969087815260200190565b60405180910390a250505050565b6103ac610431565b6103b6600061059f565b565b6103c0610431565b6001600160a01b0381166104255760405162461bcd60e51b815260206004820152602660248201527f4f776e61626c653a206e6577206f776e657220697320746865207a65726f206160448201526564647265737360d01b606482015260840161026a565b61042e8161059f565b50565b6000546001600160a01b031633146103b65760405162461bcd60e51b815260206004820181905260248201527f4f776e61626c653a2063616c6c6572206973206e6f7420746865206f776e6572604482015260640161026a565b6001600160a01b0383166000908152600160209081526040808320548151606088901b6bffffffffffffffffffffffff191681850152603481018990526054808201929092528251808203909201825260740190915280519101208161053e826040517f19457468657265756d205369676e6564204d6573736167653a0a3332000000006020820152603c8101829052600090605c01604051602081830303815290604052805190602001209050919050565b905060006105828287878080601f0160208091040260200160405190810160405280939291908181526020018383808284376000920191909152506105ef92505050565b6002546001600160a01b0390811691161498975050505050505050565b600080546001600160a01b038381166001600160a01b0319831681178455604051919092169283917f8be0079c531659141344cd1fd0a4f28419497f9722a3daafe3b4186f6b6457e09190a35050565b60008060006105fe8585610613565b9150915061060b81610658565b509392505050565b60008082516041036106495760208301516040840151606085015160001a61063d878285856107a2565b94509450505050610651565b506000905060025b9250929050565b600081600481111561066c5761066c610934565b036106745750565b600181600481111561068857610688610934565b036106d55760405162461bcd60e51b815260206004820152601860248201527f45434453413a20696e76616c6964207369676e61747572650000000000000000604482015260640161026a565b60028160048111156106e9576106e9610934565b036107365760405162461bcd60e51b815260206004820152601f60248201527f45434453413a20696e76616c6964207369676e6174757265206c656e67746800604482015260640161026a565b600381600481111561074a5761074a610934565b0361042e5760405162461bcd60e51b815260206004820152602260248201527f45434453413a20696e76616c6964207369676e6174757265202773272076616c604482015261756560f01b606482015260840161026a565b6000807f7fffffffffffffffffffffffffffffff5d576e7357a4501ddfe92f46681b20a08311156107d9575060009050600361085d565b6040805160008082526020820180845289905260ff881692820192909252606081018690526080810185905260019060a0016020604051602081039080840390855afa15801561082d573d6000803e3d6000fd5b5050604051601f1901519150506001600160a01b0381166108565760006001925092505061085d565b9150600090505b94509492505050565b6001600160a01b038116811461042e57600080fd5b60006020828403121561088d57600080fd5b813561089881610866565b9392505050565b6000602082840312156108b157600080fd5b5035919050565b6000806000604084860312156108cd57600080fd5b83359250602084013567ffffffffffffffff808211156108ec57600080fd5b818601915086601f83011261090057600080fd5b81358181111561090f57600080fd5b87602082850101111561092157600080fd5b6020830194508093505050509250925092565b634e487b7160e01b600052602160045260246000fdfea2646970667358221220ec197d299b6ca8ec7ed20be997b33bd4110073aec02df6680c1b372c61cbdd8164736f6c63430008130033",
  "devdoc": {
    "details": "users can withdraw referral reward in this contract with backend signatures",
    "events": {
      "ReferralRewardClaimed(address,uint256)": {
        "details": "triggers when claimed referral reward"
      }
    },
    "kind": "dev",
    "methods": {
      "claimFund(uint256)": {
        "details": "claim funds",
        "params": {
          "amount": "amount to claim"
        }
      },
      "claimReferralReward(uint256,bytes)": {
        "params": {
          "amount": "amount to claim",
          "signature": "sigature of signer"
        }
      },
      "constructor": {
        "params": {
          "_signer": "signer address"
        }
      },
      "owner()": {
        "details": "Returns the address of the current owner."
      },
      "renounceOwnership()": {
        "details": "Leaves the contract without owner. It will not be possible to call `onlyOwner` functions anymore. Can only be called by the current owner. NOTE: Renouncing ownership will leave the contract without an owner, thereby removing any functionality that is only available to the owner."
      },
      "setSignerAddress(address)": {
        "details": "Change the wallet of the platform signer",
        "params": {
          "_newAddress": "new address of the platform signer"
        }
      },
      "transferOwnership(address)": {
        "details": "Transfers ownership of the contract to a new account (`newOwner`). Can only be called by the current owner."
      }
    },
    "stateVariables": {
      "claimedDate": {
        "details": "saved last claimed time"
      },
      "signer": {
        "details": "signer address"
      }
    },
    "title": "Vault contract",
    "version": 1
  },
  "userdoc": {
    "kind": "user",
    "methods": {},
    "notice": "all operator raffle funds and platform fee saves on here. referral system integrated to this contract",
    "version": 1
  },
  "storageLayout": {
    "storage": [
      {
        "astId": 781,
        "contract": "contracts/core/Vault.sol:Vault",
        "label": "_owner",
        "offset": 0,
        "slot": "0",
        "type": "t_address"
      },
      {
        "astId": 6926,
        "contract": "contracts/core/Vault.sol:Vault",
        "label": "claimedDate",
        "offset": 0,
        "slot": "1",
        "type": "t_mapping(t_address,t_uint256)"
      },
      {
        "astId": 6929,
        "contract": "contracts/core/Vault.sol:Vault",
        "label": "signer",
        "offset": 0,
        "slot": "2",
        "type": "t_address"
      }
    ],
    "types": {
      "t_address": {
        "encoding": "inplace",
        "label": "address",
        "numberOfBytes": "20"
      },
      "t_mapping(t_address,t_uint256)": {
        "encoding": "mapping",
        "key": "t_address",
        "label": "mapping(address => uint256)",
        "numberOfBytes": "32",
        "value": "t_uint256"
      },
      "t_uint256": {
        "encoding": "inplace",
        "label": "uint256",
        "numberOfBytes": "32"
      }
    }
  }
}