{
  "address": "0xa869181de0A595fA515f0D44E0fC3C0db18a4eBf",
  "abi": [
    {
      "inputs": [
        {
          "internalType": "address",
          "name": "_vrfCoordinator",
          "type": "address"
        },
        {
          "internalType": "address",
          "name": "_linkToken",
          "type": "address"
        },
        {
          "internalType": "bytes32",
          "name": "_keyHash",
          "type": "bytes32"
        },
        {
          "internalType": "uint256",
          "name": "_fee",
          "type": "uint256"
        }
      ],
      "stateMutability": "nonpayable",
      "type": "constructor"
    },
    {
      "anonymous": false,
      "inputs": [
        {
          "indexed": true,
          "internalType": "bytes32",
          "name": "raffleId",
          "type": "bytes32"
        },
        {
          "indexed": false,
          "internalType": "uint256",
          "name": "amountRaised",
          "type": "uint256"
        }
      ],
      "name": "EarlyCashoutTriggered",
      "type": "event"
    },
    {
      "anonymous": false,
      "inputs": [
        {
          "indexed": true,
          "internalType": "bytes32",
          "name": "raffleId",
          "type": "bytes32"
        },
        {
          "indexed": true,
          "internalType": "address",
          "name": "buyer",
          "type": "address"
        },
        {
          "indexed": false,
          "internalType": "uint256",
          "name": "currentSize",
          "type": "uint256"
        },
        {
          "indexed": false,
          "internalType": "uint256",
          "name": "priceStructureId",
          "type": "uint256"
        }
      ],
      "name": "EntrySold",
      "type": "event"
    },
    {
      "anonymous": false,
      "inputs": [
        {
          "indexed": true,
          "internalType": "bytes32",
          "name": "raffleId",
          "type": "bytes32"
        },
        {
          "indexed": false,
          "internalType": "uint256",
          "name": "amountTransferred",
          "type": "uint256"
        }
      ],
      "name": "FeeTransferredToPlatform",
      "type": "event"
    },
    {
      "anonymous": false,
      "inputs": [
        {
          "indexed": true,
          "internalType": "bytes32",
          "name": "raffleId",
          "type": "bytes32"
        },
        {
          "indexed": false,
          "internalType": "address[]",
          "name": "buyer",
          "type": "address[]"
        },
        {
          "indexed": false,
          "internalType": "uint256",
          "name": "amount",
          "type": "uint256"
        },
        {
          "indexed": false,
          "internalType": "uint256",
          "name": "currentSize",
          "type": "uint256"
        }
      ],
      "name": "FreeEntry",
      "type": "event"
    },
    {
      "anonymous": false,
      "inputs": [
        {
          "indexed": true,
          "internalType": "bytes32",
          "name": "raffleId",
          "type": "bytes32"
        },
        {
          "indexed": true,
          "internalType": "uint256",
          "name": "structureId",
          "type": "uint256"
        },
        {
          "indexed": false,
          "internalType": "uint256",
          "name": "numEntries",
          "type": "uint256"
        },
        {
          "indexed": false,
          "internalType": "uint256",
          "name": "price",
          "type": "uint256"
        }
      ],
      "name": "PriceStructureCreated",
      "type": "event"
    },
    {
      "anonymous": false,
      "inputs": [
        {
          "indexed": true,
          "internalType": "bytes32",
          "name": "raffleId",
          "type": "bytes32"
        },
        {
          "indexed": false,
          "internalType": "uint256",
          "name": "amountRaised",
          "type": "uint256"
        }
      ],
      "name": "RaffleCancelled",
      "type": "event"
    },
    {
      "anonymous": false,
      "inputs": [
        {
          "indexed": true,
          "internalType": "bytes32",
          "name": "raffleId",
          "type": "bytes32"
        },
        {
          "indexed": true,
          "internalType": "address",
          "name": "collateralAddress",
          "type": "address"
        },
        {
          "indexed": true,
          "internalType": "uint256",
          "name": "collateralParam",
          "type": "uint256"
        },
        {
          "indexed": false,
          "internalType": "enum Manager.RAFFLETYPE",
          "name": "raffleType",
          "type": "uint8"
        }
      ],
      "name": "RaffleCreated",
      "type": "event"
    },
    {
      "anonymous": false,
      "inputs": [
        {
          "indexed": true,
          "internalType": "bytes32",
          "name": "raffleId",
          "type": "bytes32"
        },
        {
          "indexed": true,
          "internalType": "address",
          "name": "winner",
          "type": "address"
        },
        {
          "indexed": false,
          "internalType": "uint256",
          "name": "amountRaised",
          "type": "uint256"
        },
        {
          "indexed": false,
          "internalType": "uint256",
          "name": "randomNumber",
          "type": "uint256"
        }
      ],
      "name": "RaffleEnded",
      "type": "event"
    },
    {
      "anonymous": false,
      "inputs": [
        {
          "indexed": true,
          "internalType": "bytes32",
          "name": "raffleId",
          "type": "bytes32"
        },
        {
          "indexed": true,
          "internalType": "address",
          "name": "seller",
          "type": "address"
        }
      ],
      "name": "RaffleStarted",
      "type": "event"
    },
    {
      "anonymous": false,
      "inputs": [
        {
          "indexed": true,
          "internalType": "bytes32",
          "name": "id",
          "type": "bytes32"
        },
        {
          "indexed": false,
          "internalType": "uint256",
          "name": "randomNumber",
          "type": "uint256"
        },
        {
          "indexed": false,
          "internalType": "uint256",
          "name": "normalizedRandomNumber",
          "type": "uint256"
        }
      ],
      "name": "RandomNumberCreated",
      "type": "event"
    },
    {
      "anonymous": false,
      "inputs": [
        {
          "indexed": true,
          "internalType": "bytes32",
          "name": "raffleId",
          "type": "bytes32"
        },
        {
          "indexed": false,
          "internalType": "uint256",
          "name": "amountInWeis",
          "type": "uint256"
        },
        {
          "indexed": true,
          "internalType": "address",
          "name": "player",
          "type": "address"
        }
      ],
      "name": "Refund",
      "type": "event"
    },
    {
      "anonymous": false,
      "inputs": [
        {
          "indexed": true,
          "internalType": "bytes32",
          "name": "raffleId",
          "type": "bytes32"
        },
        {
          "indexed": false,
          "internalType": "uint256",
          "name": "amountInWeis",
          "type": "uint256"
        }
      ],
      "name": "RemainingFundsTransferred",
      "type": "event"
    },
    {
      "anonymous": false,
      "inputs": [
        {
          "indexed": true,
          "internalType": "bytes32",
          "name": "role",
          "type": "bytes32"
        },
        {
          "indexed": true,
          "internalType": "bytes32",
          "name": "previousAdminRole",
          "type": "bytes32"
        },
        {
          "indexed": true,
          "internalType": "bytes32",
          "name": "newAdminRole",
          "type": "bytes32"
        }
      ],
      "name": "RoleAdminChanged",
      "type": "event"
    },
    {
      "anonymous": false,
      "inputs": [
        {
          "indexed": true,
          "internalType": "bytes32",
          "name": "role",
          "type": "bytes32"
        },
        {
          "indexed": true,
          "internalType": "address",
          "name": "account",
          "type": "address"
        },
        {
          "indexed": true,
          "internalType": "address",
          "name": "sender",
          "type": "address"
        }
      ],
      "name": "RoleGranted",
      "type": "event"
    },
    {
      "anonymous": false,
      "inputs": [
        {
          "indexed": true,
          "internalType": "bytes32",
          "name": "role",
          "type": "bytes32"
        },
        {
          "indexed": true,
          "internalType": "address",
          "name": "account",
          "type": "address"
        },
        {
          "indexed": true,
          "internalType": "address",
          "name": "sender",
          "type": "address"
        }
      ],
      "name": "RoleRevoked",
      "type": "event"
    },
    {
      "anonymous": false,
      "inputs": [
        {
          "indexed": true,
          "internalType": "bytes32",
          "name": "raffleId",
          "type": "bytes32"
        },
        {
          "indexed": false,
          "internalType": "uint256",
          "name": "amountRaised",
          "type": "uint256"
        }
      ],
      "name": "SetWinnerTriggered",
      "type": "event"
    },
    {
      "anonymous": false,
      "inputs": [
        {
          "indexed": true,
          "internalType": "bytes32",
          "name": "raffleId",
          "type": "bytes32"
        },
        {
          "indexed": false,
          "internalType": "uint256",
          "name": "newStatus",
          "type": "uint256"
        }
      ],
      "name": "StatusChangedInEmergency",
      "type": "event"
    },
    {
      "inputs": [],
      "name": "DEFAULT_ADMIN_ROLE",
      "outputs": [
        {
          "internalType": "bytes32",
          "name": "",
          "type": "bytes32"
        }
      ],
      "stateMutability": "view",
      "type": "function"
    },
    {
      "inputs": [],
      "name": "OPERATOR_ROLE",
      "outputs": [
        {
          "internalType": "bytes32",
          "name": "",
          "type": "bytes32"
        }
      ],
      "stateMutability": "view",
      "type": "function"
    },
    {
      "inputs": [
        {
          "internalType": "bytes32",
          "name": "_raffleId",
          "type": "bytes32"
        },
        {
          "internalType": "uint256",
          "name": "_id",
          "type": "uint256"
        },
        {
          "internalType": "address",
          "name": "_collection",
          "type": "address"
        },
        {
          "internalType": "uint256",
          "name": "_tokenIdUsed",
          "type": "uint256"
        }
      ],
      "name": "buyEntry",
      "outputs": [],
      "stateMutability": "payable",
      "type": "function"
    },
    {
      "inputs": [
        {
          "internalType": "bytes32",
          "name": "_raffleId",
          "type": "bytes32"
        }
      ],
      "name": "cancelRaffle",
      "outputs": [],
      "stateMutability": "nonpayable",
      "type": "function"
    },
    {
      "inputs": [
        {
          "internalType": "bytes32",
          "name": "",
          "type": "bytes32"
        }
      ],
      "name": "chainlinkRaffleInfo",
      "outputs": [
        {
          "internalType": "bytes32",
          "name": "id",
          "type": "bytes32"
        },
        {
          "internalType": "uint256",
          "name": "size",
          "type": "uint256"
        }
      ],
      "stateMutability": "view",
      "type": "function"
    },
    {
      "inputs": [
        {
          "internalType": "bytes32",
          "name": "_raffleId",
          "type": "bytes32"
        }
      ],
      "name": "claimRefund",
      "outputs": [],
      "stateMutability": "nonpayable",
      "type": "function"
    },
    {
      "inputs": [
        {
          "internalType": "bytes32",
          "name": "",
          "type": "bytes32"
        }
      ],
      "name": "claimsData",
      "outputs": [
        {
          "internalType": "uint256",
          "name": "numEntriesPerUser",
          "type": "uint256"
        },
        {
          "internalType": "uint256",
          "name": "amountSpentInWeis",
          "type": "uint256"
        },
        {
          "internalType": "bool",
          "name": "claimed",
          "type": "bool"
        }
      ],
      "stateMutability": "view",
      "type": "function"
    },
    {
      "inputs": [
        {
          "components": [
            {
              "internalType": "enum Manager.RAFFLETYPE",
              "name": "raffleType",
              "type": "uint8"
            },
            {
              "internalType": "uint256",
              "name": "desiredFundsInWeis",
              "type": "uint256"
            },
            {
              "internalType": "uint256",
              "name": "maxEntriesPerUser",
              "type": "uint256"
            },
            {
              "internalType": "address",
              "name": "collateralAddress",
              "type": "address"
            },
            {
              "internalType": "uint256",
              "name": "collateralParam",
              "type": "uint256"
            },
            {
              "internalType": "uint256",
              "name": "minimumFundsInWeis",
              "type": "uint256"
            },
            {
              "internalType": "uint256",
              "name": "commissionInBasicPoints",
              "type": "uint256"
            }
          ],
          "internalType": "struct Manager.RaffleCreateParam",
          "name": "_params",
          "type": "tuple"
        },
        {
          "components": [
            {
              "internalType": "uint256",
              "name": "id",
              "type": "uint256"
            },
            {
              "internalType": "uint256",
              "name": "numEntries",
              "type": "uint256"
            },
            {
              "internalType": "uint256",
              "name": "price",
              "type": "uint256"
            }
          ],
          "internalType": "struct Manager.PriceStructure[]",
          "name": "_prices",
          "type": "tuple[]"
        },
        {
          "internalType": "address[]",
          "name": "_collectionWhitelist",
          "type": "address[]"
        }
      ],
      "name": "createRaffle",
      "outputs": [
        {
          "internalType": "bytes32",
          "name": "",
          "type": "bytes32"
        }
      ],
      "stateMutability": "nonpayable",
      "type": "function"
    },
    {
      "inputs": [],
      "name": "destinationWallet",
      "outputs": [
        {
          "internalType": "address payable",
          "name": "",
          "type": "address"
        }
      ],
      "stateMutability": "view",
      "type": "function"
    },
    {
      "inputs": [
        {
          "internalType": "bytes32",
          "name": "_raffleId",
          "type": "bytes32"
        }
      ],
      "name": "earlyCashOut",
      "outputs": [],
      "stateMutability": "nonpayable",
      "type": "function"
    },
    {
      "inputs": [
        {
          "internalType": "bytes32",
          "name": "",
          "type": "bytes32"
        },
        {
          "internalType": "uint256",
          "name": "",
          "type": "uint256"
        }
      ],
      "name": "entries",
      "outputs": [
        {
          "internalType": "uint256",
          "name": "currentEntriesLength",
          "type": "uint256"
        },
        {
          "internalType": "address",
          "name": "player",
          "type": "address"
        }
      ],
      "stateMutability": "view",
      "type": "function"
    },
    {
      "inputs": [
        {
          "internalType": "bytes32",
          "name": "",
          "type": "bytes32"
        }
      ],
      "name": "entriesCount",
      "outputs": [
        {
          "internalType": "uint256",
          "name": "",
          "type": "uint256"
        }
      ],
      "stateMutability": "view",
      "type": "function"
    },
    {
      "inputs": [
        {
          "internalType": "bytes32",
          "name": "",
          "type": "bytes32"
        }
      ],
      "name": "fundingList",
      "outputs": [
        {
          "internalType": "uint256",
          "name": "minimumFundsInWeis",
          "type": "uint256"
        },
        {
          "internalType": "uint256",
          "name": "desiredFundsInWeis",
          "type": "uint256"
        }
      ],
      "stateMutability": "view",
      "type": "function"
    },
    {
      "inputs": [
        {
          "internalType": "bytes32",
          "name": "_raffleId",
          "type": "bytes32"
        },
        {
          "internalType": "address",
          "name": "_player",
          "type": "address"
        }
      ],
      "name": "getClaimData",
      "outputs": [
        {
          "components": [
            {
              "internalType": "uint256",
              "name": "numEntriesPerUser",
              "type": "uint256"
            },
            {
              "internalType": "uint256",
              "name": "amountSpentInWeis",
              "type": "uint256"
            },
            {
              "internalType": "bool",
              "name": "claimed",
              "type": "bool"
            }
          ],
          "internalType": "struct Manager.ClaimStruct",
          "name": "",
          "type": "tuple"
        }
      ],
      "stateMutability": "view",
      "type": "function"
    },
    {
      "inputs": [
        {
          "internalType": "bytes32",
          "name": "role",
          "type": "bytes32"
        }
      ],
      "name": "getRoleAdmin",
      "outputs": [
        {
          "internalType": "bytes32",
          "name": "",
          "type": "bytes32"
        }
      ],
      "stateMutability": "view",
      "type": "function"
    },
    {
      "inputs": [
        {
          "internalType": "bytes32",
          "name": "_raffleId",
          "type": "bytes32"
        },
        {
          "internalType": "uint256",
          "name": "_normalizedRandomNumber",
          "type": "uint256"
        }
      ],
      "name": "getWinnerAddressFromRandom",
      "outputs": [
        {
          "internalType": "address",
          "name": "",
          "type": "address"
        }
      ],
      "stateMutability": "view",
      "type": "function"
    },
    {
      "inputs": [
        {
          "internalType": "bytes32",
          "name": "_raffleId",
          "type": "bytes32"
        },
        {
          "internalType": "address[]",
          "name": "_freePlayers",
          "type": "address[]"
        }
      ],
      "name": "giveBatchEntriesForFree",
      "outputs": [],
      "stateMutability": "nonpayable",
      "type": "function"
    },
    {
      "inputs": [
        {
          "internalType": "bytes32",
          "name": "role",
          "type": "bytes32"
        },
        {
          "internalType": "address",
          "name": "account",
          "type": "address"
        }
      ],
      "name": "grantRole",
      "outputs": [],
      "stateMutability": "nonpayable",
      "type": "function"
    },
    {
      "inputs": [
        {
          "internalType": "bytes32",
          "name": "role",
          "type": "bytes32"
        },
        {
          "internalType": "address",
          "name": "account",
          "type": "address"
        }
      ],
      "name": "hasRole",
      "outputs": [
        {
          "internalType": "bool",
          "name": "",
          "type": "bool"
        }
      ],
      "stateMutability": "view",
      "type": "function"
    },
    {
      "inputs": [
        {
          "internalType": "bytes32",
          "name": "",
          "type": "bytes32"
        },
        {
          "internalType": "uint256",
          "name": "",
          "type": "uint256"
        }
      ],
      "name": "prices",
      "outputs": [
        {
          "internalType": "uint256",
          "name": "id",
          "type": "uint256"
        },
        {
          "internalType": "uint256",
          "name": "numEntries",
          "type": "uint256"
        },
        {
          "internalType": "uint256",
          "name": "price",
          "type": "uint256"
        }
      ],
      "stateMutability": "view",
      "type": "function"
    },
    {
      "inputs": [
        {
          "internalType": "bytes32",
          "name": "",
          "type": "bytes32"
        }
      ],
      "name": "raffles",
      "outputs": [
        {
          "internalType": "enum Manager.RAFFLETYPE",
          "name": "raffleType",
          "type": "uint8"
        },
        {
          "internalType": "enum Manager.STATUS",
          "name": "status",
          "type": "uint8"
        },
        {
          "internalType": "uint256",
          "name": "maxEntries",
          "type": "uint256"
        },
        {
          "internalType": "address",
          "name": "collateralAddress",
          "type": "address"
        },
        {
          "internalType": "uint256",
          "name": "collateralParam",
          "type": "uint256"
        },
        {
          "internalType": "address",
          "name": "winner",
          "type": "address"
        },
        {
          "internalType": "uint256",
          "name": "randomNumber",
          "type": "uint256"
        },
        {
          "internalType": "uint256",
          "name": "amountRaised",
          "type": "uint256"
        },
        {
          "internalType": "address",
          "name": "seller",
          "type": "address"
        },
        {
          "internalType": "uint256",
          "name": "platformPercentage",
          "type": "uint256"
        },
        {
          "internalType": "uint256",
          "name": "cancellingDate",
          "type": "uint256"
        }
      ],
      "stateMutability": "view",
      "type": "function"
    },
    {
      "inputs": [
        {
          "internalType": "bytes32",
          "name": "requestId",
          "type": "bytes32"
        },
        {
          "internalType": "uint256",
          "name": "randomness",
          "type": "uint256"
        }
      ],
      "name": "rawFulfillRandomness",
      "outputs": [],
      "stateMutability": "nonpayable",
      "type": "function"
    },
    {
      "inputs": [
        {
          "internalType": "bytes32",
          "name": "role",
          "type": "bytes32"
        },
        {
          "internalType": "address",
          "name": "account",
          "type": "address"
        }
      ],
      "name": "renounceRole",
      "outputs": [],
      "stateMutability": "nonpayable",
      "type": "function"
    },
    {
      "inputs": [
        {
          "internalType": "bytes32",
          "name": "",
          "type": "bytes32"
        }
      ],
      "name": "requests",
      "outputs": [
        {
          "internalType": "uint256",
          "name": "randomNumber",
          "type": "uint256"
        },
        {
          "internalType": "uint256",
          "name": "nomalizedRandomNumber",
          "type": "uint256"
        }
      ],
      "stateMutability": "view",
      "type": "function"
    },
    {
      "inputs": [
        {
          "internalType": "bytes32",
          "name": "",
          "type": "bytes32"
        }
      ],
      "name": "requiredNFTWallets",
      "outputs": [
        {
          "internalType": "address",
          "name": "",
          "type": "address"
        }
      ],
      "stateMutability": "view",
      "type": "function"
    },
    {
      "inputs": [
        {
          "internalType": "bytes32",
          "name": "role",
          "type": "bytes32"
        },
        {
          "internalType": "address",
          "name": "account",
          "type": "address"
        }
      ],
      "name": "revokeRole",
      "outputs": [],
      "stateMutability": "nonpayable",
      "type": "function"
    },
    {
      "inputs": [
        {
          "internalType": "address payable",
          "name": "_newAddress",
          "type": "address"
        }
      ],
      "name": "setDestinationAddress",
      "outputs": [],
      "stateMutability": "nonpayable",
      "type": "function"
    },
    {
      "inputs": [
        {
          "internalType": "bytes32",
          "name": "_raffleId",
          "type": "bytes32"
        }
      ],
      "name": "setWinner",
      "outputs": [],
      "stateMutability": "nonpayable",
      "type": "function"
    },
    {
      "inputs": [
        {
          "internalType": "bytes32",
          "name": "_raffleId",
          "type": "bytes32"
        }
      ],
      "name": "stakeERC20",
      "outputs": [],
      "stateMutability": "nonpayable",
      "type": "function"
    },
    {
      "inputs": [
        {
          "internalType": "bytes32",
          "name": "_raffleId",
          "type": "bytes32"
        }
      ],
      "name": "stakeETH",
      "outputs": [],
      "stateMutability": "payable",
      "type": "function"
    },
    {
      "inputs": [
        {
          "internalType": "bytes32",
          "name": "_raffleId",
          "type": "bytes32"
        }
      ],
      "name": "stakeNFT",
      "outputs": [],
      "stateMutability": "nonpayable",
      "type": "function"
    },
    {
      "inputs": [
        {
          "internalType": "bytes4",
          "name": "interfaceId",
          "type": "bytes4"
        }
      ],
      "name": "supportsInterface",
      "outputs": [
        {
          "internalType": "bool",
          "name": "",
          "type": "bool"
        }
      ],
      "stateMutability": "view",
      "type": "function"
    },
    {
      "inputs": [
        {
          "internalType": "bytes32",
          "name": "_raffleId",
          "type": "bytes32"
        }
      ],
      "name": "transferRemainingFunds",
      "outputs": [],
      "stateMutability": "nonpayable",
      "type": "function"
    }
  ],
  "transactionHash": "0xe7f67ec890fe551a57946613f7ed1a23cb2d31bcf5bb6952a28077cc27713086",
  "args": [
    "0x2bce784e69d2Ff36c71edcB9F88358dB0DfB55b4",
    "0x326C977E6efc84E512bB9C30f76E30c160eD06FB",
    "0x0476f9a745b61ea5c0ab224d3a6e4c99f0b02fce4da01143a4f70aa80ae76e8a",
    "100000000000000000"
  ],
  "numDeployments": 3,
  "solcInputHash": "24b188d28a3cb4e1e38f274f7207b881",
  "bytecode": "0x60c0604052600e80546001600160a01b03191673eda703919a528481f4f11423a728300dcabf441f1790553480156200003757600080fd5b5060405162004925380380620049258339810160408190526200005a916200019d565b600180556001600160a01b0380851660a0528316608052620000b17f523a704056dcd17bcf83bed8b68c59416dac1119be77755efe3bde0a64e46e0c7313503b622abc0bd30a7e9687057df6e8c42fb928620000d0565b620000be600033620000d0565b60039190915560045550620001e59050565b620000dc8282620000e0565b5050565b6000828152602081815260408083206001600160a01b038516845290915290205460ff16620000dc576000828152602081815260408083206001600160a01b03851684529091529020805460ff191660011790556200013c3390565b6001600160a01b0316816001600160a01b0316837f2f8788117e7eff1d82e926ec794901d17c78024a50270940304540a733656f0d60405160405180910390a45050565b80516001600160a01b03811681146200019857600080fd5b919050565b60008060008060808587031215620001b457600080fd5b620001bf8562000180565b9350620001cf6020860162000180565b6040860151606090960151949790965092505050565b60805160a05161470c620002196000396000818161201401526133b8015260008181612e100152613389015261470c6000f3fe6080604052600436106101ee5760003560e01c80637fa4cacb1161010d578063b1cb259a116100a0578063d9284f231161006f578063d9284f23146106cf578063d9b1639c146106ef578063de72b5f21461070f578063e31ef12c1461072f578063f5b541a6146107c557600080fd5b8063b1cb259a14610613578063b967ed4614610633578063baf0290514610653578063d547741f146106af57600080fd5b8063969be233116100dc578063969be233146105455780639d866985146105aa578063a217fddf146105de578063aa1d8d77146105f357600080fd5b80637fa4cacb146104b857806391d14854146104d857806393490735146104f857806394985ddd1461052557600080fd5b8063431a86ff1161018557806371ace6891161015457806371ace6891461045257806371de2ffc14610465578063746011781461048557806379e57c95146104a557600080fd5b8063431a86ff1461039357806353b7a59b146103b35780635e320e08146103d357806365f8d3af1461041757600080fd5b80632b39bc46116101c15780632b39bc46146102fd5780632f2ff15d1461031f57806336568abe1461033f57806342c8fa421461035f57600080fd5b806301ffc9a7146101f35780631a0187f514610228578063248a9ca3146102765780632a596800146102b4575b600080fd5b3480156101ff57600080fd5b5061021361020e366004613f73565b6107e7565b60405190151581526020015b60405180910390f35b34801561023457600080fd5b5061025e610243366004613f9d565b600d602052600090815260409020546001600160a01b031681565b6040516001600160a01b03909116815260200161021f565b34801561028257600080fd5b506102a6610291366004613f9d565b60009081526020819052604090206001015490565b60405190815260200161021f565b3480156102c057600080fd5b506102e86102cf366004613f9d565b6006602052600090815260409020805460019091015482565b6040805192835260208301919091520161021f565b34801561030957600080fd5b5061031d610318366004613f9d565b61081e565b005b34801561032b57600080fd5b5061031d61033a366004613fdb565b6109db565b34801561034b57600080fd5b5061031d61035a366004613fdb565b610a05565b34801561036b57600080fd5b506102e861037a366004613f9d565b6008602052600090815260409020805460019091015482565b34801561039f57600080fd5b506102a66103ae366004614057565b610a83565b3480156103bf57600080fd5b50600e5461025e906001600160a01b031681565b3480156103df57600080fd5b506103f36103ee366004613fdb565b610f79565b6040805182518152602080840151908201529181015115159082015260600161021f565b34801561042357600080fd5b50610437610432366004614113565b61100e565b6040805193845260208401929092529082015260600161021f565b61031d610460366004614135565b611044565b34801561047157600080fd5b5061031d610480366004613f9d565b61167a565b34801561049157600080fd5b5061031d6104a0366004613f9d565b6118ca565b61031d6104b3366004613f9d565b611c52565b3480156104c457600080fd5b5061031d6104d3366004614174565b611fb2565b3480156104e457600080fd5b506102136104f3366004613fdb565b611fe0565b34801561050457600080fd5b506102a6610513366004613f9d565b60096020526000908152604090205481565b34801561053157600080fd5b5061031d610540366004614113565b612009565b34801561055157600080fd5b5061058d610560366004614113565b600a602090815260009283526040808420909152908252902080546001909101546001600160a01b031682565b604080519283526001600160a01b0390911660208301520161021f565b3480156105b657600080fd5b506102e86105c5366004613f9d565b6005602052600090815260409020805460019091015482565b3480156105ea57600080fd5b506102a6600081565b3480156105ff57600080fd5b5061031d61060e366004613f9d565b61208b565b34801561061f57600080fd5b5061031d61062e366004613f9d565b61229f565b34801561063f57600080fd5b5061025e61064e366004614113565b612440565b34801561065f57600080fd5b5061069261066e366004613f9d565b600c6020526000908152604090208054600182015460029092015490919060ff1683565b60408051938452602084019290925215159082015260600161021f565b3480156106bb57600080fd5b5061031d6106ca366004613fdb565b61247b565b3480156106db57600080fd5b5061031d6106ea366004613f9d565b6124a0565b3480156106fb57600080fd5b5061031d61070a3660046141a7565b61293c565b34801561071b57600080fd5b5061031d61072a366004613f9d565b612bbc565b34801561073b57600080fd5b506107ae61074a366004613f9d565b600b60205260009081526040902080546001820154600283015460038401546004850154600586015460068701546007880154600889015460099099015460ff808a169a610100909a0416986001600160a01b03978816979586169590921691908b565b60405161021f9b9a999897969594939291906142a2565b3480156107d157600080fd5b506102a66000805160206146b783398151915281565b60006001600160e01b03198216637965db0b60e01b148061081857506301ffc9a760e01b6001600160e01b03198316145b92915050565b610826612d8f565b6000805160206146b783398151915261083e81612de8565b6000828152600b60209081526040808320600890925290912060018254610100900460ff16600681111561087457610874614278565b146108bf5760405162461bcd60e51b8152602060048201526016602482015275526166666c6520696e2077726f6e672073746174757360501b60448201526064015b60405180910390fd5b80546006830154101561090e5760405162461bcd60e51b8152602060048201526017602482015276139bdd08195b9bdd59da08199d5b991cc81c985a5cd959604a1b60448201526064016108b6565b8160060154816001015411156109665760405162461bcd60e51b815260206004820152601860248201527f446573697265642066756e6473206e6f7420726169736564000000000000000060448201526064016108b6565b815461ff00191661040017825560008481526009602052604090205461098d908590612df2565b50837f83862d9f9127159f912dd9234a8048bca91595db69928e52e7f9c07d66b1edfa83600601546040516109c491815260200190565b60405180910390a25050506109d860018055565b50565b6000828152602081905260409020600101546109f681612de8565b610a008383612f28565b505050565b6001600160a01b0381163314610a755760405162461bcd60e51b815260206004820152602f60248201527f416363657373436f6e74726f6c3a2063616e206f6e6c792072656e6f756e636560448201526e103937b632b9903337b91039b2b63360891b60648201526084016108b6565b610a7f8282612fac565b5050565b60006000805160206146b7833981519152610a9d81612de8565b6000876040013511610ae35760405162461bcd60e51b815260206004820152600f60248201526e06d6178456e7472696573206973203608c1b60448201526064016108b6565b6113888760c001351115610b2f5760405162461bcd60e51b81526020600482015260136024820152720c6dedadad2e6e6d2dedc40e8dede40d0d2ced606b1b60448201526064016108b6565b60408051610180810190915260009080610b4c60208b018b61431c565b6002811115610b5d57610b5d614278565b8152602001600081526040808b0135602083015201610b8260808b0160608c01614174565b6001600160a01b031681526020018960800135815260200160006001600160a01b03168152602001600081526020016000815260200160006001600160a01b031681526020018960c00135815260200160008152602001868680806020026020016040519081016040528093929190818152602001838360200280828437600092018290525093909452509293509150610c1d905082613011565b6000818152600b60205260409020835181549293508492829060ff19166001836002811115610c4e57610c4e614278565b021790555060208201518154829061ff001916610100836006811115610c7657610c76614278565b02179055506040820151600182015560608201516002820180546001600160a01b039283166001600160a01b0319918216179091556080840151600384015560a084015160048401805491841691831691909117905560c0840151600584015560e08401516006840155610100840151600784018054919093169116179055610120820151600882015561014082015160098201556101608201518051610d2791600a840191602090910190613ef9565b50505086610d635760405162461bcd60e51b81526020600482015260096024820152684e6f2070726963657360b81b60448201526064016108b6565b60005b87811015610ed6576000898983818110610d8257610d8261433d565b9050606002016020013511610dcb5760405162461bcd60e51b815260206004820152600f60248201526e06e756d456e7472696573206973203608c1b60448201526064016108b6565b888882818110610ddd57610ddd61433d565b905060600201600760008481526020019081526020016000208260058110610e0757610e0761433d565b60030201610e2c82828135815560208201356001820155604082013560028201555050565b905050888882818110610e4157610e4161433d565b90506060020160000135827f1b786b27159375b16f23d5e3d0b1b225ce08c1f07a9f35d81b76a12f49ff9e6b8b8b85818110610e7f57610e7f61433d565b905060600201602001358c8c86818110610e9b57610e9b61433d565b90506060020160400135604051610ebc929190918252602082015260400190565b60405180910390a380610ece81614369565b915050610d66565b5060408051808201825260a08b013581526020808c01358183019081526000858152600890925292902090518155905160019091015560808901803590610f209060608c01614174565b6001600160a01b0316827f659055bc105a4b5aa9e1fa5f4105ce9d41a781594e5f051af4eea9c2beed9332610f5860208e018e61431c565b604051610f659190614382565b60405180910390a498975050505050505050565b610f9f604051806060016040528060008152602001600081526020016000151581525090565b50604080516001600160a01b039290921660208084019190915282820193909352805180830382018152606083018083528151918501919091206000908152600c9094529281902060c0830190915280548352600181015460808301526002015460ff16151560a09091015290565b6007602052816000526040600020816005811061102a57600080fd5b600302018054600182015460029092015490935090915083565b61104c612d8f565b6000848152600b60205260409020600a0154156112d1576000805b6000868152600b60205260409020600a01548110156110e4576000868152600b60205260409020600a0180546001600160a01b0386169190839081106110af576110af61433d565b6000918252602090912001546001600160a01b0316036110d257600191506110e4565b806110dc81614369565b915050611067565b506001811515146111375760405162461bcd60e51b815260206004820152601a60248201527f4e6f7420696e20726571756972656420636f6c6c656374696f6e00000000000060448201526064016108b6565b6040516331a9108f60e11b815260048101839052839033906001600160a01b03831690636352211e90602401602060405180830381865afa158015611180573d6000803e3d6000fd5b505050506040513d601f19601f820116820180604052508101906111a49190614390565b6001600160a01b0316146111fa5760405162461bcd60e51b815260206004820152601860248201527f4e6f7420746865206f776e6572206f6620746f6b656e4964000000000000000060448201526064016108b6565b604080516001600160a01b03861660208201529081018790526060810184905260009060800160408051601f1981840301815291815281516020928301206000818152600d9093529120549091506001600160a01b0316611278576000818152600d6020526040902080546001600160a01b031916331790556112cd565b6000818152600d60205260409020546001600160a01b031633146112cd5760405162461bcd60e51b815260206004820152600c60248201526b1d1bdad95b9259081d5cd95960a21b60448201526064016108b6565b5050505b336113135760405162461bcd60e51b81526020600482015260126024820152711b5cd9cb9cd95b99195c881a5cc81b9d5b1b60721b60448201526064016108b6565b600083116113525760405162461bcd60e51b815260206004820152600c60248201526b0686f774d616e7920697320360a41b60448201526064016108b6565b60016000858152600b6020526040902054610100900460ff16600681111561137c5761137c614278565b146113c55760405162461bcd60e51b8152602060048201526019602482015278149859999b19481a5cc81b9bdd081a5b881858d8d95c1d1959603a1b60448201526064016108b6565b60006113d18585613053565b9050600081602001511161141a5760405162461bcd60e51b815260206004820152601060248201526f1a59081b9bdd081cdd5c1c1bdc9d195960821b60448201526064016108b6565b806040015134146114795760405162461bcd60e51b8152602060048201526024808201527f6d73672e76616c7565206d75737420626520657175616c20746f2074686520706044820152637269636560e01b60648201526084016108b6565b6040805133602082015290810186905260009060600160408051601f1981840301815291815281516020928301206000898152600b84528281206001015486850151838352600c9095529290205490935090916114d5916143ad565b11156115235760405162461bcd60e51b815260206004820152601760248201527f426f7567687420746f6f206d616e7920656e747269657300000000000000000060448201526064016108b6565b6040805180820182526000888152600960208181528483208054808652338387019081528d8652600a8452878620918652908352958420855181559551600190960180546001600160a01b0319166001600160a01b03909716969096179095558a835252825491929061159583614369565b90915550506000878152600b6020526040812060060180543492906115bb9084906143ad565b90915550506020808401516000848152600c909252604082208054919290916115e59084906143ad565b90915550506000828152600c60205260408120600101805434929061160b9084906143ad565b9091555050600087815260096020526040902054339088907f0342bb7ce1f3987190c946595da67fc9180dd80d23238155d0aa9c58dad3cf3790611651906001906143c0565b60408051918252602082018b90520160405180910390a350505061167460018055565b50505050565b611682612d8f565b6000818152600b6020526040902060068154610100900460ff1660068111156116ad576116ad614278565b146116e95760405162461bcd60e51b815260206004820152600c60248201526b77726f6e672073746174757360a01b60448201526064016108b6565b60098101546116fb9062278d006143ad565b42111561173f5760405162461bcd60e51b815260206004820152601260248201527118db185a5b481d1a5b5948195e1c1a5c995960721b60448201526064016108b6565b6040805133602080830191909152818301859052825180830384018152606090920183528151918101919091206000908152600c90915220600281015460ff16156117bf5760405162461bcd60e51b815260206004820152601060248201526f185b1c9958591e481c99599d5b99195960821b60448201526064016108b6565b806001015482600601546117d391906143c0565b600683015560028101805460ff1916600190811790915581015460405160009133918381818185875af1925050503d806000811461182d576040519150601f19603f3d011682016040523d82523d6000602084013e611832565b606091505b50509050806118765760405162461bcd60e51b815260206004820152601060248201526f11985a5b081cd95b99081c99599d5b9960821b60448201526064016108b6565b336001600160a01b0316847f9fcdf5658d5b646297a256c6996784bb11a370781b3fcf998145c309588796a184600101546040516118b691815260200190565b60405180910390a35050506109d860018055565b6000818152600b6020526040808220815161018081019092528054829060ff1660028111156118fb576118fb614278565b600281111561190c5761190c614278565b81528154602090910190610100900460ff16600681111561192f5761192f614278565b600681111561194057611940614278565b8152600182015460208083019190915260028301546001600160a01b0390811660408085019190915260038501546060850152600485015482166080850152600585015460a0850152600685015460c0850152600785015490911660e084015260088401546101008401526009840154610120840152600a84018054825181850281018501909352808352610140909401939192909190830182828015611a1057602002820191906000526020600020905b81546001600160a01b031681526001909101906020018083116119f2575b5050505050815250509050600280811115611a2d57611a2d614278565b81516002811115611a4057611a40614278565b14611a5d5760405162461bcd60e51b81526004016108b6906143d3565b60608101516001600160a01b0316611aaf5760405162461bcd60e51b8152602060048201526015602482015274496e76616c696420746f6b656e206164647265737360581b60448201526064016108b6565b600081602001516006811115611ac757611ac7614278565b14611ae45760405162461bcd60e51b81526004016108b690614400565b606081015160016020808401829052336101008501526000858152600b90915260409020835181548593839160ff191690836002811115611b2757611b27614278565b021790555060208201518154829061ff001916610100836006811115611b4f57611b4f614278565b02179055506040820151600182015560608201516002820180546001600160a01b039283166001600160a01b0319918216179091556080840151600384015560a084015160048401805491841691831691909117905560c0840151600584015560e08401516006840155610100840151600784018054919093169116179055610120820151600882015561014082015160098201556101608201518051611c0091600a840191602090910190613ef9565b5050506080820151611c20906001600160a01b038316903390309061313b565b604051339084907f0f677e757a26065149e7e39feec4c3ebeb510107f74d8931d95f67fdb59b245390600090a3505050565b6000818152600b6020526040808220815161018081019092528054829060ff166002811115611c8357611c83614278565b6002811115611c9457611c94614278565b81528154602090910190610100900460ff166006811115611cb757611cb7614278565b6006811115611cc857611cc8614278565b8152600182015460208083019190915260028301546001600160a01b0390811660408085019190915260038501546060850152600485015482166080850152600585015460a0850152600685015460c0850152600785015490911660e084015260088401546101008401526009840154610120840152600a84018054825181850281018501909352808352610140909401939192909190830182828015611d9857602002820191906000526020600020905b81546001600160a01b03168152600190910190602001808311611d7a575b505050505081525050905060016002811115611db657611db6614278565b81516002811115611dc957611dc9614278565b14611de65760405162461bcd60e51b81526004016108b6906143d3565b600081602001516006811115611dfe57611dfe614278565b14611e1b5760405162461bcd60e51b81526004016108b690614400565b80608001513414611e675760405162461bcd60e51b8152602060048201526016602482015275125b9d985b1a590819195c1bdcda5d08185b5bdd5b9d60521b60448201526064016108b6565b60016020828101829052336101008401526000848152600b90915260409020825181548493839160ff191690836002811115611ea557611ea5614278565b021790555060208201518154829061ff001916610100836006811115611ecd57611ecd614278565b02179055506040820151600182015560608201516002820180546001600160a01b039283166001600160a01b0319918216179091556080840151600384015560a084015160048401805491841691831691909117905560c0840151600584015560e08401516006840155610100840151600784018054919093169116179055610120820151600882015561014082015160098201556101608201518051611f7e91600a840191602090910190613ef9565b505060405133915083907f0f677e757a26065149e7e39feec4c3ebeb510107f74d8931d95f67fdb59b245390600090a35050565b6000611fbd81612de8565b50600e80546001600160a01b0319166001600160a01b0392909216919091179055565b6000918252602082815260408084206001600160a01b0393909316845291905290205460ff1690565b336001600160a01b037f000000000000000000000000000000000000000000000000000000000000000016146120815760405162461bcd60e51b815260206004820152601f60248201527f4f6e6c7920565246436f6f7264696e61746f722063616e2066756c66696c6c0060448201526064016108b6565b610a7f8282613193565b612093612d8f565b6000805160206146b78339815191526120ab81612de8565b6000828152600b6020526040902060058154610100900460ff1660068111156120d6576120d6614278565b141580156120ff575060038154610100900460ff1660068111156120fc576120fc614278565b14155b8015612126575060028154610100900460ff16600681111561212357612123614278565b14155b801561214d575060048154610100900460ff16600681111561214a5761214a614278565b14155b8015612174575060068154610100900460ff16600681111561217157612171614278565b14155b6121af5760405162461bcd60e51b815260206004820152600c60248201526b57726f6e672073746174757360a01b60448201526064016108b6565b60018154610100900460ff1660068111156121cc576121cc614278565b03612247576002810154600782015460038301546040516323b872dd60e01b81526001600160a01b039384169384936323b872dd936122139330939092169160040161442c565b600060405180830381600087803b15801561222d57600080fd5b505af1158015612241573d6000803e3d6000fd5b50505050505b805461ff0019166106001781554260098201556006810154604080519182525184917fb0d756bc39086b9284e5d4678f72c54bd62b72be9b54b6bd569268782ef513da919081900360200190a250506109d860018055565b6000818152600b602090815260408083206008835292819020815180830190925280548252600101549181019190915260078201546001600160a01b0316331461231c5760405162461bcd60e51b815260206004820152600e60248201526d2737ba103a34329039b2b63632b960911b60448201526064016108b6565b60018254610100900460ff16600681111561233957612339614278565b146123865760405162461bcd60e51b815260206004820152601d60248201527f526166666c65206e6f7420696e2061636365707465642073746174757300000060448201526064016108b6565b8051600683015410156123d55760405162461bcd60e51b8152602060048201526017602482015276139bdd08195b9bdd59da08199d5b991cc81c985a5cd959604a1b60448201526064016108b6565b815461ff0019166102001782556000838152600960205260409020546123fc908490612df2565b50827f1049d6c7b583f85350ce271821bd9b90f3016a28d3ab1c1c5b5debe5647c5918836006015460405161243391815260200190565b60405180910390a2505050565b60008061244d8484613250565b6000858152600a6020908152604080832093835292905220600101546001600160a01b031691505092915050565b60008281526020819052604090206001015461249681612de8565b610a008383612fac565b6000818152600b6020526040808220815161018081019092528054829060ff1660028111156124d1576124d1614278565b60028111156124e2576124e2614278565b81528154602090910190610100900460ff16600681111561250557612505614278565b600681111561251657612516614278565b8152600182015460208083019190915260028301546001600160a01b0390811660408085019190915260038501546060850152600485015482166080850152600585015460a0850152600685015460c0850152600785015490911660e084015260088401546101008401526009840154610120840152600a840180548251818502810185019093528083526101409094019391929091908301828280156125e657602002820191906000526020600020905b81546001600160a01b031681526001909101906020018083116125c8575b50505050508152505090506000600281111561260457612604614278565b8151600281111561261757612617614278565b146126345760405162461bcd60e51b81526004016108b6906143d3565b60608101516001600160a01b03166126845760405162461bcd60e51b8152602060048201526013602482015272496e76616c6964206e6674206164647265737360681b60448201526064016108b6565b60008160200151600681111561269c5761269c614278565b146126b95760405162461bcd60e51b81526004016108b690614400565b606081015160808201516040516331a9108f60e11b815233916001600160a01b03841691636352211e916126f39160040190815260200190565b602060405180830381865afa158015612710573d6000803e3d6000fd5b505050506040513d601f19601f820116820180604052508101906127349190614390565b6001600160a01b03161461278a5760405162461bcd60e51b815260206004820152601a60248201527f4e4654206973206e6f74206f776e65642062792063616c6c657200000000000060448201526064016108b6565b60016020838101829052336101008501526000858152600b90915260409020835181548593839160ff1916908360028111156127c8576127c8614278565b021790555060208201518154829061ff0019166101008360068111156127f0576127f0614278565b02179055506040820151600182015560608201516002820180546001600160a01b039283166001600160a01b0319918216179091556080840151600384015560a084015160048401805491841691831691909117905560c0840151600584015560e084015160068401556101008401516007840180549190931691161790556101208201516008820155610140820151600982015561016082015180516128a191600a840191602090910190613ef9565b50505060808201516040516323b872dd60e01b81526001600160a01b038316916323b872dd916128d891339130919060040161442c565b600060405180830381600087803b1580156128f257600080fd5b505af1158015612906573d6000803e3d6000fd5b50506040513392508591507f0f677e757a26065149e7e39feec4c3ebeb510107f74d8931d95f67fdb59b245390600090a3505050565b612944612d8f565b6000805160206146b783398151915261295c81612de8565b60016000848152600b6020526040902054610100900460ff16600681111561298657612986614278565b146129cf5760405162461bcd60e51b8152602060048201526019602482015278149859999b19481a5cc81b9bdd081a5b881858d8d95c1d1959603a1b60448201526064016108b6565b815160005b81811015612b555760008482815181106129f0576129f061433d565b60200260200101519050600b600087815260200190815260200160002060010154600c60008389604051602001612a3c9291906001600160a01b03929092168252602082015260400190565b604051602081830303815290604052805190602001208152602001908152602001600020600001546001612a7091906143ad565b11612b425760408051808201825260008881526009602081815284832080548086526001600160a01b038881168488019081528e8752600a8552888720928752918452968520865181559051600190910180546001600160a01b03191691909716179095558a8352528254919290612ae783614369565b9091555050604080516001600160a01b0384166020808301919091528183018a9052825180830384018152606090920183528151918101919091206000908152600c909152908120805491612b3b83614369565b9190505550505b5080612b4d81614369565b9150506129d4565b50837ff385f0c0aec044723ffd6cd8336500928b78b74d11836f934775110ee686c42e84836001600960008a815260200190815260200160002054612b9a91906143c0565b604051612ba993929190614450565b60405180910390a25050610a7f60018055565b612bc4612d8f565b6000805160206146b7833981519152612bdc81612de8565b6000828152600b6020526040902060068154610100900460ff166006811115612c0757612c07614278565b14612c435760405162461bcd60e51b815260206004820152600c60248201526b57726f6e672073746174757360a01b60448201526064016108b6565b6009810154612c559062278d006143ad565b4211612c945760405162461bcd60e51b815260206004820152600e60248201526d31b630b4b6903a37b79039b7b7b760911b60448201526064016108b6565b805461ff001916610300178155600e5460068201546040516000926001600160a01b031691908381818185875af1925050503d8060008114612cf2576040519150601f19603f3d011682016040523d82523d6000602084013e612cf7565b606091505b5050905080612d3e5760405162461bcd60e51b81526020600482015260136024820152724661696c2073656e642045746820746f204d5760681b60448201526064016108b6565b837f32959d1c815772f6bcf658a6cb1f04a9f1a98e41efbe542d9ec590f5244b8bef8360060154604051612d7491815260200190565b60405180910390a2506000600690910155506109d860018055565b600260015403612de15760405162461bcd60e51b815260206004820152601f60248201527f5265656e7472616e637947756172643a207265656e7472616e742063616c6c0060448201526064016108b6565b6002600155565b6109d8813361332c565b600480546040516370a0823160e01b815230928101929092526000917f00000000000000000000000000000000000000000000000000000000000000006001600160a01b0316906370a0823190602401602060405180830381865afa158015612e5f573d6000803e3d6000fd5b505050506040513d601f19601f82011682018060405250810190612e8391906144a6565b11612ee45760405162461bcd60e51b815260206004820152602b60248201527f4e6f7420656e6f756768204c494e4b202d2066696c6c20636f6e74726163742060448201526a1dda5d1a0819985d58d95d60aa1b60648201526084016108b6565b6000612ef4600354600454613385565b6040805180820182529586526020808701958652600083815260069091522094518555925160019094019390935550919050565b612f328282611fe0565b610a7f576000828152602081815260408083206001600160a01b03851684529091529020805460ff19166001179055612f683390565b6001600160a01b0316816001600160a01b0316837f2f8788117e7eff1d82e926ec794901d17c78024a50270940304540a733656f0d60405160405180910390a45050565b612fb68282611fe0565b15610a7f576000828152602081815260408083206001600160a01b0385168085529252808320805460ff1916905551339285917ff6391f5c32d9c69d2a47ea670b442974b53935d1edc7fd64eb21e047a839171b9190a45050565b60008160000151826060015183608001514360405160200161303694939291906144bf565b604051602081830303815290604052805190602001209050919050565b61307760405180606001604052806000815260200160008152602001600081525090565b60005b6005811015613114576000848152600760205260409020839082600581106130a4576130a461433d565b60030201540361310257600084815260076020526040902081600581106130cd576130cd61433d565b600302016040518060600160405290816000820154815260200160018201548152602001600282015481525050915050610818565b8061310c81614369565b91505061307a565b50604051806060016040528060008152602001600081526020016000815250905092915050565b611674846323b872dd60e01b85858560405160240161315c9392919061442c565b60408051601f198184030181529190526020810180516001600160e01b03166001600160e01b031990931692909217909152613509565b60008281526006602090815260408083208151808301909252805482526001015491810182905291906131c6908461451a565b6131d19060016143ad565b60408051808201825285815260208082018481528651600090815260058352849020835181559051600190910155855183518881529182018590529394509092917fff486f05d067208b7216d632d19c54cb41186fe61068eaeeacfb06210805e01c910160405180910390a2825161324990836135db565b5050505050565b600082815260096020526040812054810361326d57506000610818565b6000838152600960205260408120545b808210156132d15760006132918383613b71565b6000878152600a602090815260408083208484529091529020549091508510156132bd578091506132cb565b6132c88160016143ad565b92505b5061327d565b60008211801561330b57506000858152600a6020526040812085916132f76001866143c0565b815260200190815260200160002060000154145b156133245761331b6001836143c0565b92505050610818565b509050610818565b6133368282611fe0565b610a7f5761334381613b93565b61334e836020613ba5565b60405160200161335f929190614552565b60408051601f198184030181529082905262461bcd60e51b82526108b6916004016145f3565b60007f00000000000000000000000000000000000000000000000000000000000000006001600160a01b0316634000aea07f0000000000000000000000000000000000000000000000000000000000000000848660006040516020016133f5929190918252602082015260400190565b6040516020818303038152906040526040518463ffffffff1660e01b815260040161342293929190614606565b6020604051808303816000875af1158015613441573d6000803e3d6000fd5b505050506040513d601f19601f820116820180604052508101906134659190614636565b50600083815260026020818152604080842054815180840189905280830186905230606082015260808082018390528351808303909101815260a0909101909252815191830191909120938790529190526134c19060016143ad565b6000858152600260205260409020556135018482604080516020808201949094528082019290925280518083038201815260609092019052805191012090565b949350505050565b600061355e826040518060400160405280602081526020017f5361666545524332303a206c6f772d6c6576656c2063616c6c206661696c6564815250856001600160a01b0316613d419092919063ffffffff16565b805190915015610a00578080602001905181019061357c9190614636565b610a005760405162461bcd60e51b815260206004820152602a60248201527f5361666545524332303a204552433230206f7065726174696f6e20646964206e6044820152691bdd081cdd58d8d9595960b21b60648201526084016108b6565b6135e3612d8f565b6000828152600b6020526040808220815161018081019092528054829060ff16600281111561361457613614614278565b600281111561362557613625614278565b81528154602090910190610100900460ff16600681111561364857613648614278565b600681111561365957613659614278565b8152600182015460208083019190915260028301546001600160a01b0390811660408085019190915260038501546060850152600485015482166080850152600585015460a0850152600685015460c0850152600785015490911660e084015260088401546101008401526009840154610120840152600a8401805482518185028101850190935280835261014090940193919290919083018282801561372957602002820191906000526020600020905b81546001600160a01b0316815260019091019060200180831161370b575b50505050508152505090506002600681111561374757613747614278565b8160200151600681111561375d5761375d614278565b148061377e575060048160200151600681111561377c5761377c614278565b145b6137c35760405162461bcd60e51b8152602060048201526016602482015275526166666c6520696e2077726f6e672073746174757360501b60448201526064016108b6565b60c081018290526137d48383612440565b6001600160a01b031660a082015260056020820152805160009060028111156137ff576137ff614278565b0361387957606081015160a082015160808301516040516323b872dd60e01b81526001600160a01b038416926323b872dd92613841923092919060040161442c565b600060405180830381600087803b15801561385b57600080fd5b505af115801561386f573d6000803e3d6000fd5b5050505050613960565b60028151600281111561388e5761388e614278565b036138bc57606081015160a082015160808301516138b6916001600160a01b03841691613d50565b50613960565b60008160a001516001600160a01b0316826080015160405160006040518083038185875af1925050503d8060008114613911576040519150601f19603f3d011682016040523d82523d6000602084013e613916565b606091505b505090508061395e5760405162461bcd60e51b81526020600482015260146024820152732330b4b632b2103a379039b2b7321022ba3432b960611b60448201526064016108b6565b505b60006127108261012001518360e0015161397a9190614658565b613984919061466f565b90506000818360e0015161399891906143c0565b905060008361010001516001600160a01b03168260405160006040518083038185875af1925050503d80600081146139ec576040519150601f19603f3d011682016040523d82523d6000602084013e6139f1565b606091505b5050905080613a395760405162461bcd60e51b81526020600482015260146024820152732330b4b632b2103a379039b2b7321022ba3432b960611b60448201526064016108b6565b600e546040516000916001600160a01b03169085908381818185875af1925050503d8060008114613a86576040519150601f19603f3d011682016040523d82523d6000602084013e613a8b565b606091505b5050905080613ad45760405162461bcd60e51b81526020600482015260156024820152744661696c65642073656e642045746820746f204d5760581b60448201526064016108b6565b867f3104eff20ec1a7cebcdc5b1ec674d0ce059761a56f6aab472652c327d9b61b5c85604051613b0691815260200190565b60405180910390a28460a001516001600160a01b0316877fddef822e4f86942c2bd4737756efdcd1f22d2284eededd92b39955451df3dad78760e0015189604051613b5b929190918252602082015260400190565b60405180910390a35050505050610a7f60018055565b6000613b80600284841861466f565b613b8c908484166143ad565b9392505050565b60606108186001600160a01b03831660145b60606000613bb4836002614658565b613bbf9060026143ad565b67ffffffffffffffff811115613bd757613bd7614191565b6040519080825280601f01601f191660200182016040528015613c01576020820181803683370190505b509050600360fc1b81600081518110613c1c57613c1c61433d565b60200101906001600160f81b031916908160001a905350600f60fb1b81600181518110613c4b57613c4b61433d565b60200101906001600160f81b031916908160001a9053506000613c6f846002614658565b613c7a9060016143ad565b90505b6001811115613cf2576f181899199a1a9b1b9c1cb0b131b232b360811b85600f1660108110613cae57613cae61433d565b1a60f81b828281518110613cc457613cc461433d565b60200101906001600160f81b031916908160001a90535060049490941c93613ceb81614683565b9050613c7d565b508315613b8c5760405162461bcd60e51b815260206004820181905260248201527f537472696e67733a20686578206c656e67746820696e73756666696369656e7460448201526064016108b6565b60606135018484600085613d80565b6040516001600160a01b038316602482015260448101829052610a0090849063a9059cbb60e01b9060640161315c565b606082471015613de15760405162461bcd60e51b815260206004820152602660248201527f416464726573733a20696e73756666696369656e742062616c616e636520666f6044820152651c8818d85b1b60d21b60648201526084016108b6565b600080866001600160a01b03168587604051613dfd919061469a565b60006040518083038185875af1925050503d8060008114613e3a576040519150601f19603f3d011682016040523d82523d6000602084013e613e3f565b606091505b5091509150613e5087838387613e5b565b979650505050505050565b60608315613eca578251600003613ec3576001600160a01b0385163b613ec35760405162461bcd60e51b815260206004820152601d60248201527f416464726573733a2063616c6c20746f206e6f6e2d636f6e747261637400000060448201526064016108b6565b5081613501565b6135018383815115613edf5781518083602001fd5b8060405162461bcd60e51b81526004016108b691906145f3565b828054828255906000526020600020908101928215613f4e579160200282015b82811115613f4e57825182546001600160a01b0319166001600160a01b03909116178255602090920191600190910190613f19565b50613f5a929150613f5e565b5090565b5b80821115613f5a5760008155600101613f5f565b600060208284031215613f8557600080fd5b81356001600160e01b031981168114613b8c57600080fd5b600060208284031215613faf57600080fd5b5035919050565b6001600160a01b03811681146109d857600080fd5b8035613fd681613fb6565b919050565b60008060408385031215613fee57600080fd5b82359150602083013561400081613fb6565b809150509250929050565b60008083601f84011261401d57600080fd5b50813567ffffffffffffffff81111561403557600080fd5b6020830191508360208260051b850101111561405057600080fd5b9250929050565b600080600080600085870361012081121561407157600080fd5b60e081121561407f57600080fd5b5085945060e086013567ffffffffffffffff8082111561409e57600080fd5b818801915088601f8301126140b257600080fd5b8135818111156140c157600080fd5b8960206060830285010111156140d657600080fd5b602083019650809550506101008801359150808211156140f557600080fd5b506141028882890161400b565b969995985093965092949392505050565b6000806040838503121561412657600080fd5b50508035926020909101359150565b6000806000806080858703121561414b57600080fd5b8435935060208501359250604085013561416481613fb6565b9396929550929360600135925050565b60006020828403121561418657600080fd5b8135613b8c81613fb6565b634e487b7160e01b600052604160045260246000fd5b600080604083850312156141ba57600080fd5b8235915060208084013567ffffffffffffffff808211156141da57600080fd5b818601915086601f8301126141ee57600080fd5b81358181111561420057614200614191565b8060051b604051601f19603f8301168101818110858211171561422557614225614191565b60405291825284820192508381018501918983111561424357600080fd5b938501935b828510156142685761425985613fcb565b84529385019392850192614248565b8096505050505050509250929050565b634e487b7160e01b600052602160045260246000fd5b6003811061429e5761429e614278565b9052565b61016081016142b1828e61428e565b60078c106142c1576142c1614278565b602082019b909b5260408101999099526001600160a01b0397881660608a0152608089019690965293861660a088015260c087019290925260e086015290921661010084015261012083019190915261014090910152919050565b60006020828403121561432e57600080fd5b813560038110613b8c57600080fd5b634e487b7160e01b600052603260045260246000fd5b634e487b7160e01b600052601160045260246000fd5b60006001820161437b5761437b614353565b5060010190565b60208101610818828461428e565b6000602082840312156143a257600080fd5b8151613b8c81613fb6565b8082018082111561081857610818614353565b8181038181111561081857610818614353565b602080825260139082015272496e76616c696420726166666c65207479706560681b604082015260600190565b602080825260129082015271149859999b19481b9bdd0810d4915055115160721b604082015260600190565b6001600160a01b039384168152919092166020820152604081019190915260600190565b606080825284519082018190526000906020906080840190828801845b828110156144925781516001600160a01b03168452928401929084019060010161446d565b505050908301949094525060400152919050565b6000602082840312156144b857600080fd5b5051919050565b6000600386106144d1576144d1614278565b5060f89490941b845260609290921b6bffffffffffffffffffffffff191660018401526015830152603582015260550190565b634e487b7160e01b600052601260045260246000fd5b60008261452957614529614504565b500690565b60005b83811015614549578181015183820152602001614531565b50506000910152565b7f416363657373436f6e74726f6c3a206163636f756e742000000000000000000081526000835161458a81601785016020880161452e565b7001034b99036b4b9b9b4b733903937b6329607d1b60179184019182015283516145bb81602884016020880161452e565b01602801949350505050565b600081518084526145df81602086016020860161452e565b601f01601f19169290920160200192915050565b602081526000613b8c60208301846145c7565b60018060a01b038416815282602082015260606040820152600061462d60608301846145c7565b95945050505050565b60006020828403121561464857600080fd5b81518015158114613b8c57600080fd5b808202811582820484141761081857610818614353565b60008261467e5761467e614504565b500490565b60008161469257614692614353565b506000190190565b600082516146ac81846020870161452e565b919091019291505056fe523a704056dcd17bcf83bed8b68c59416dac1119be77755efe3bde0a64e46e0ca2646970667358221220cc7c02d34b70f16f6da047108bbd9be57ba3f07433dc262619514d6c6551c32964736f6c63430008130033",
  "devdoc": {
    "details": "It saves in an ordered array the player wallet and the current entries count. So buying entries has a complexity of O(1) For calculating the winner, from the huge random number generated by Chainlink a normalized random is generated by using the module method, adding 1 to have a random from 1 to entriesCount. So next step is to perform a binary search on the ordered array to get the player O(log n) Example: 0 -> { 1, player1} as player1 buys 1 entry 1 -> {51, player2} as player2 buys 50 entries 2 -> {52, player3} as player3 buys 1 entry 3 -> {53, player4} as player4 buys 1 entry 4 -> {153, player5} as player5 buys 100 entries So the setWinner method performs a binary search on that sorted array to get the upper bound. If the random number generated is 150, the winner is player5. If the random number is 20, winner is player2",
    "events": {
      "RoleAdminChanged(bytes32,bytes32,bytes32)": {
        "details": "Emitted when `newAdminRole` is set as ``role``'s admin role, replacing `previousAdminRole` `DEFAULT_ADMIN_ROLE` is the starting admin for all roles, despite {RoleAdminChanged} not being emitted signaling this. _Available since v3.1._"
      },
      "RoleGranted(bytes32,address,address)": {
        "details": "Emitted when `account` is granted `role`. `sender` is the account that originated the contract call, an admin role bearer except when using {AccessControl-_setupRole}."
      },
      "RoleRevoked(bytes32,address,address)": {
        "details": "Emitted when `account` is revoked `role`. `sender` is the account that originated the contract call:   - if using `revokeRole`, it is the admin role bearer   - if using `renounceRole`, it is the role bearer (i.e. `account`)"
      }
    },
    "kind": "dev",
    "methods": {
      "buyEntry(bytes32,uint256,address,uint256)": {
        "details": "callable by players. Depending on the number of entries assigned to the price structure the player buys (_id parameter) one or more entries will be assigned to the player. Also it is checked the maximum number of entries per user is not reached As the method is payable, in msg.value there will be the amount paid by the user",
        "params": {
          "_collection": ": collection of the tokenId used. Not used if there is no required nft on the raffle",
          "_id": ": id of the price structure",
          "_raffleId": ": id of the raffle",
          "_tokenIdUsed": ": id of the token used in private raffles (to avoid abuse can not be reused on the same raffle)"
        }
      },
      "cancelRaffle(bytes32)": {
        "details": "The operator can cancel the raffle. The NFT is sent back to the seller The raised funds are send to the destination wallet. The buyers will be refunded offchain in the metawin wallet",
        "params": {
          "_raffleId": "Id of the raffle"
        }
      },
      "claimRefund(bytes32)": {
        "details": "The player can claim a refund during the first 30 days after the raffle was cancelled in the map \"ClaimsData\" it is saves how much the player spent on that raffle, as they could have bought several entries",
        "params": {
          "_raffleId": "Id of the raffle"
        }
      },
      "createRaffle((uint8,uint256,uint256,address,uint256,uint256,uint256),(uint256,uint256,uint256)[],address[])": {
        "details": "creates a raffle struct and push it to the raffles array. Some data is stored in the funding data structure sends an event when finished",
        "params": {
          "_collectionWhitelist": "array with the required collections to participate in the raffle. Empty if there is no collection",
          "_params": "params to create raffle",
          "_prices": "Array of prices and amount of entries the customer could purchase"
        },
        "returns": {
          "_0": "raffleId"
        }
      },
      "earlyCashOut(bytes32)": {
        "details": "it triggers Chainlink VRF1 consumer, and generates a random number that is normalized and checked that corresponds to a MW player",
        "params": {
          "_raffleId": "Id of the raffle"
        }
      },
      "getClaimData(bytes32,address)": {
        "params": {
          "_player": "wallet of the player",
          "_raffleId": "Id of the raffle"
        },
        "returns": {
          "_0": "Claims data of the player on that raffle"
        }
      },
      "getRoleAdmin(bytes32)": {
        "details": "Returns the admin role that controls `role`. See {grantRole} and {revokeRole}. To change a role's admin, use {_setRoleAdmin}."
      },
      "getWinnerAddressFromRandom(bytes32,uint256)": {
        "details": "Uses a binary search on the sorted array to retreive the winner",
        "params": {
          "_normalizedRandomNumber": "Generated by chainlink",
          "_raffleId": "Id of the raffle"
        },
        "returns": {
          "_0": "the wallet that won the raffle"
        }
      },
      "giveBatchEntriesForFree(bytes32,address[])": {
        "details": "only operator can make this call. Assigns a single entry per user, except if that user already reached the max limit of entries per user",
        "params": {
          "_freePlayers": "array of addresses corresponding to the wallet of the users that won a free entrie",
          "_raffleId": "Id of the raffle"
        }
      },
      "grantRole(bytes32,address)": {
        "details": "Grants `role` to `account`. If `account` had not been already granted `role`, emits a {RoleGranted} event. Requirements: - the caller must have ``role``'s admin role. May emit a {RoleGranted} event."
      },
      "hasRole(bytes32,address)": {
        "details": "Returns `true` if `account` has been granted `role`."
      },
      "renounceRole(bytes32,address)": {
        "details": "Revokes `role` from the calling account. Roles are often managed via {grantRole} and {revokeRole}: this function's purpose is to provide a mechanism for accounts to lose their privileges if they are compromised (such as when a trusted device is misplaced). If the calling account had been revoked `role`, emits a {RoleRevoked} event. Requirements: - the caller must be `account`. May emit a {RoleRevoked} event."
      },
      "revokeRole(bytes32,address)": {
        "details": "Revokes `role` from `account`. If `account` had been granted `role`, emits a {RoleRevoked} event. Requirements: - the caller must have ``role``'s admin role. May emit a {RoleRevoked} event."
      },
      "setDestinationAddress(address)": {
        "details": "Change the wallet of the platform. The one that will receive the platform fee when the raffle is closed. Only the admin can change this",
        "params": {
          "_newAddress": "new address of the platform"
        }
      },
      "setWinner(bytes32)": {
        "details": "it triggers Chainlink VRF1 consumer, and generates a random number that is normalized and checked that corresponds to a MW player",
        "params": {
          "_raffleId": "Id of the raffle"
        }
      },
      "stakeERC20(bytes32)": {
        "details": "the owner must have approved this contract before. Otherwise will revert when transferring from the owner",
        "params": {
          "_raffleId": "Id of the raffle"
        }
      },
      "stakeETH(bytes32)": {
        "details": "the owner must have approved this contract before. Otherwise will revert when transferring from the owner",
        "params": {
          "_raffleId": "Id of the raffle"
        }
      },
      "stakeNFT(bytes32)": {
        "details": "the owner must have approved this contract before. Otherwise will revert when transferring from the owner",
        "params": {
          "_raffleId": "Id of the raffle"
        }
      },
      "supportsInterface(bytes4)": {
        "details": "See {IERC165-supportsInterface}."
      },
      "transferRemainingFunds(bytes32)": {
        "details": "after 30 days after cancelling passes, the operator can transfer to destinationWallet the remaining funds",
        "params": {
          "_raffleId": "Id of the raffle"
        }
      }
    },
    "title": "Raffles manager",
    "version": 1
  },
  "userdoc": {
    "kind": "user",
    "methods": {
      "buyEntry(bytes32,uint256,address,uint256)": {
        "notice": "If the operator set requiredNFTs when creating the raffle, only the owners of nft on that collection can make a call to this method. This will be used for special raffles"
      },
      "createRaffle((uint8,uint256,uint256,address,uint256,uint256,uint256),(uint256,uint256,uint256)[],address[])": {
        "notice": "Creates a raffle with NFT"
      },
      "earlyCashOut(bytes32)": {
        "notice": "the seller of the nft, if the minimum amount has been reached, can call an early cashout, finishing the raffle"
      },
      "setWinner(bytes32)": {
        "notice": "the operator finish the raffle, if the desired funds has been reached"
      },
      "stakeERC20(bytes32)": {
        "notice": "The owner of the ERC20 can stake it on the raffle. At this moment the raffle starts and can sell entries to players"
      },
      "stakeETH(bytes32)": {
        "notice": "The owner of the ETH can stake it on the raffle. At this moment the raffle starts and can sell entries to players"
      },
      "stakeNFT(bytes32)": {
        "notice": "The owner of the NFT can stake it on the raffle. At this moment the raffle starts and can sell entries to players"
      }
    },
    "notice": "It consumes VRF v1 from Chainlink. It has the role \"operator\" that is the one used by a backend app to make some calls",
    "version": 1
  },
  "storageLayout": {
    "storage": [
      {
        "astId": 409,
        "contract": "contracts/core/Manager.sol:Manager",
        "label": "_roles",
        "offset": 0,
        "slot": "0",
        "type": "t_mapping(t_bytes32,t_struct(RoleData)404_storage)"
      },
      {
        "astId": 784,
        "contract": "contracts/core/Manager.sol:Manager",
        "label": "_status",
        "offset": 0,
        "slot": "1",
        "type": "t_uint256"
      },
      {
        "astId": 79,
        "contract": "contracts/core/Manager.sol:Manager",
        "label": "nonces",
        "offset": 0,
        "slot": "2",
        "type": "t_mapping(t_bytes32,t_uint256)"
      },
      {
        "astId": 4372,
        "contract": "contracts/core/Manager.sol:Manager",
        "label": "keyHash",
        "offset": 0,
        "slot": "3",
        "type": "t_bytes32"
      },
      {
        "astId": 4374,
        "contract": "contracts/core/Manager.sol:Manager",
        "label": "fee",
        "offset": 0,
        "slot": "4",
        "type": "t_uint256"
      },
      {
        "astId": 4397,
        "contract": "contracts/core/Manager.sol:Manager",
        "label": "requests",
        "offset": 0,
        "slot": "5",
        "type": "t_mapping(t_bytes32,t_struct(RandomResult)4379_storage)"
      },
      {
        "astId": 4402,
        "contract": "contracts/core/Manager.sol:Manager",
        "label": "chainlinkRaffleInfo",
        "offset": 0,
        "slot": "6",
        "type": "t_mapping(t_bytes32,t_struct(RaffleInfo)4392_storage)"
      },
      {
        "astId": 4518,
        "contract": "contracts/core/Manager.sol:Manager",
        "label": "prices",
        "offset": 0,
        "slot": "7",
        "type": "t_mapping(t_bytes32,t_array(t_struct(PriceStructure)4511_storage)5_storage)"
      },
      {
        "astId": 4528,
        "contract": "contracts/core/Manager.sol:Manager",
        "label": "fundingList",
        "offset": 0,
        "slot": "8",
        "type": "t_mapping(t_bytes32,t_struct(FundingStructure)4523_storage)"
      },
      {
        "astId": 4537,
        "contract": "contracts/core/Manager.sol:Manager",
        "label": "entriesCount",
        "offset": 0,
        "slot": "9",
        "type": "t_mapping(t_bytes32,t_uint256)"
      },
      {
        "astId": 4544,
        "contract": "contracts/core/Manager.sol:Manager",
        "label": "entries",
        "offset": 0,
        "slot": "10",
        "type": "t_mapping(t_bytes32,t_mapping(t_uint256,t_struct(EntriesBought)4533_storage))"
      },
      {
        "astId": 4593,
        "contract": "contracts/core/Manager.sol:Manager",
        "label": "raffles",
        "offset": 0,
        "slot": "11",
        "type": "t_mapping(t_bytes32,t_struct(RaffleStruct)4588_storage)"
      },
      {
        "astId": 4605,
        "contract": "contracts/core/Manager.sol:Manager",
        "label": "claimsData",
        "offset": 0,
        "slot": "12",
        "type": "t_mapping(t_bytes32,t_struct(ClaimStruct)4600_storage)"
      },
      {
        "astId": 4609,
        "contract": "contracts/core/Manager.sol:Manager",
        "label": "requiredNFTWallets",
        "offset": 0,
        "slot": "13",
        "type": "t_mapping(t_bytes32,t_address)"
      },
      {
        "astId": 4632,
        "contract": "contracts/core/Manager.sol:Manager",
        "label": "destinationWallet",
        "offset": 0,
        "slot": "14",
        "type": "t_address_payable"
      }
    ],
    "types": {
      "t_address": {
        "encoding": "inplace",
        "label": "address",
        "numberOfBytes": "20"
      },
      "t_address_payable": {
        "encoding": "inplace",
        "label": "address payable",
        "numberOfBytes": "20"
      },
      "t_array(t_address)dyn_storage": {
        "base": "t_address",
        "encoding": "dynamic_array",
        "label": "address[]",
        "numberOfBytes": "32"
      },
      "t_array(t_struct(PriceStructure)4511_storage)5_storage": {
        "base": "t_struct(PriceStructure)4511_storage",
        "encoding": "inplace",
        "label": "struct Manager.PriceStructure[5]",
        "numberOfBytes": "480"
      },
      "t_bool": {
        "encoding": "inplace",
        "label": "bool",
        "numberOfBytes": "1"
      },
      "t_bytes32": {
        "encoding": "inplace",
        "label": "bytes32",
        "numberOfBytes": "32"
      },
      "t_enum(RAFFLETYPE)4613": {
        "encoding": "inplace",
        "label": "enum Manager.RAFFLETYPE",
        "numberOfBytes": "1"
      },
      "t_enum(STATUS)4621": {
        "encoding": "inplace",
        "label": "enum Manager.STATUS",
        "numberOfBytes": "1"
      },
      "t_mapping(t_address,t_bool)": {
        "encoding": "mapping",
        "key": "t_address",
        "label": "mapping(address => bool)",
        "numberOfBytes": "32",
        "value": "t_bool"
      },
      "t_mapping(t_bytes32,t_address)": {
        "encoding": "mapping",
        "key": "t_bytes32",
        "label": "mapping(bytes32 => address)",
        "numberOfBytes": "32",
        "value": "t_address"
      },
      "t_mapping(t_bytes32,t_array(t_struct(PriceStructure)4511_storage)5_storage)": {
        "encoding": "mapping",
        "key": "t_bytes32",
        "label": "mapping(bytes32 => struct Manager.PriceStructure[5])",
        "numberOfBytes": "32",
        "value": "t_array(t_struct(PriceStructure)4511_storage)5_storage"
      },
      "t_mapping(t_bytes32,t_mapping(t_uint256,t_struct(EntriesBought)4533_storage))": {
        "encoding": "mapping",
        "key": "t_bytes32",
        "label": "mapping(bytes32 => mapping(uint256 => struct Manager.EntriesBought))",
        "numberOfBytes": "32",
        "value": "t_mapping(t_uint256,t_struct(EntriesBought)4533_storage)"
      },
      "t_mapping(t_bytes32,t_struct(ClaimStruct)4600_storage)": {
        "encoding": "mapping",
        "key": "t_bytes32",
        "label": "mapping(bytes32 => struct Manager.ClaimStruct)",
        "numberOfBytes": "32",
        "value": "t_struct(ClaimStruct)4600_storage"
      },
      "t_mapping(t_bytes32,t_struct(FundingStructure)4523_storage)": {
        "encoding": "mapping",
        "key": "t_bytes32",
        "label": "mapping(bytes32 => struct Manager.FundingStructure)",
        "numberOfBytes": "32",
        "value": "t_struct(FundingStructure)4523_storage"
      },
      "t_mapping(t_bytes32,t_struct(RaffleInfo)4392_storage)": {
        "encoding": "mapping",
        "key": "t_bytes32",
        "label": "mapping(bytes32 => struct Manager.RaffleInfo)",
        "numberOfBytes": "32",
        "value": "t_struct(RaffleInfo)4392_storage"
      },
      "t_mapping(t_bytes32,t_struct(RaffleStruct)4588_storage)": {
        "encoding": "mapping",
        "key": "t_bytes32",
        "label": "mapping(bytes32 => struct Manager.RaffleStruct)",
        "numberOfBytes": "32",
        "value": "t_struct(RaffleStruct)4588_storage"
      },
      "t_mapping(t_bytes32,t_struct(RandomResult)4379_storage)": {
        "encoding": "mapping",
        "key": "t_bytes32",
        "label": "mapping(bytes32 => struct Manager.RandomResult)",
        "numberOfBytes": "32",
        "value": "t_struct(RandomResult)4379_storage"
      },
      "t_mapping(t_bytes32,t_struct(RoleData)404_storage)": {
        "encoding": "mapping",
        "key": "t_bytes32",
        "label": "mapping(bytes32 => struct AccessControl.RoleData)",
        "numberOfBytes": "32",
        "value": "t_struct(RoleData)404_storage"
      },
      "t_mapping(t_bytes32,t_uint256)": {
        "encoding": "mapping",
        "key": "t_bytes32",
        "label": "mapping(bytes32 => uint256)",
        "numberOfBytes": "32",
        "value": "t_uint256"
      },
      "t_mapping(t_uint256,t_struct(EntriesBought)4533_storage)": {
        "encoding": "mapping",
        "key": "t_uint256",
        "label": "mapping(uint256 => struct Manager.EntriesBought)",
        "numberOfBytes": "32",
        "value": "t_struct(EntriesBought)4533_storage"
      },
      "t_struct(ClaimStruct)4600_storage": {
        "encoding": "inplace",
        "label": "struct Manager.ClaimStruct",
        "members": [
          {
            "astId": 4595,
            "contract": "contracts/core/Manager.sol:Manager",
            "label": "numEntriesPerUser",
            "offset": 0,
            "slot": "0",
            "type": "t_uint256"
          },
          {
            "astId": 4597,
            "contract": "contracts/core/Manager.sol:Manager",
            "label": "amountSpentInWeis",
            "offset": 0,
            "slot": "1",
            "type": "t_uint256"
          },
          {
            "astId": 4599,
            "contract": "contracts/core/Manager.sol:Manager",
            "label": "claimed",
            "offset": 0,
            "slot": "2",
            "type": "t_bool"
          }
        ],
        "numberOfBytes": "96"
      },
      "t_struct(EntriesBought)4533_storage": {
        "encoding": "inplace",
        "label": "struct Manager.EntriesBought",
        "members": [
          {
            "astId": 4530,
            "contract": "contracts/core/Manager.sol:Manager",
            "label": "currentEntriesLength",
            "offset": 0,
            "slot": "0",
            "type": "t_uint256"
          },
          {
            "astId": 4532,
            "contract": "contracts/core/Manager.sol:Manager",
            "label": "player",
            "offset": 0,
            "slot": "1",
            "type": "t_address"
          }
        ],
        "numberOfBytes": "64"
      },
      "t_struct(FundingStructure)4523_storage": {
        "encoding": "inplace",
        "label": "struct Manager.FundingStructure",
        "members": [
          {
            "astId": 4520,
            "contract": "contracts/core/Manager.sol:Manager",
            "label": "minimumFundsInWeis",
            "offset": 0,
            "slot": "0",
            "type": "t_uint256"
          },
          {
            "astId": 4522,
            "contract": "contracts/core/Manager.sol:Manager",
            "label": "desiredFundsInWeis",
            "offset": 0,
            "slot": "1",
            "type": "t_uint256"
          }
        ],
        "numberOfBytes": "64"
      },
      "t_struct(PriceStructure)4511_storage": {
        "encoding": "inplace",
        "label": "struct Manager.PriceStructure",
        "members": [
          {
            "astId": 4506,
            "contract": "contracts/core/Manager.sol:Manager",
            "label": "id",
            "offset": 0,
            "slot": "0",
            "type": "t_uint256"
          },
          {
            "astId": 4508,
            "contract": "contracts/core/Manager.sol:Manager",
            "label": "numEntries",
            "offset": 0,
            "slot": "1",
            "type": "t_uint256"
          },
          {
            "astId": 4510,
            "contract": "contracts/core/Manager.sol:Manager",
            "label": "price",
            "offset": 0,
            "slot": "2",
            "type": "t_uint256"
          }
        ],
        "numberOfBytes": "96"
      },
      "t_struct(RaffleInfo)4392_storage": {
        "encoding": "inplace",
        "label": "struct Manager.RaffleInfo",
        "members": [
          {
            "astId": 4389,
            "contract": "contracts/core/Manager.sol:Manager",
            "label": "id",
            "offset": 0,
            "slot": "0",
            "type": "t_bytes32"
          },
          {
            "astId": 4391,
            "contract": "contracts/core/Manager.sol:Manager",
            "label": "size",
            "offset": 0,
            "slot": "1",
            "type": "t_uint256"
          }
        ],
        "numberOfBytes": "64"
      },
      "t_struct(RaffleStruct)4588_storage": {
        "encoding": "inplace",
        "label": "struct Manager.RaffleStruct",
        "members": [
          {
            "astId": 4563,
            "contract": "contracts/core/Manager.sol:Manager",
            "label": "raffleType",
            "offset": 0,
            "slot": "0",
            "type": "t_enum(RAFFLETYPE)4613"
          },
          {
            "astId": 4566,
            "contract": "contracts/core/Manager.sol:Manager",
            "label": "status",
            "offset": 1,
            "slot": "0",
            "type": "t_enum(STATUS)4621"
          },
          {
            "astId": 4568,
            "contract": "contracts/core/Manager.sol:Manager",
            "label": "maxEntries",
            "offset": 0,
            "slot": "1",
            "type": "t_uint256"
          },
          {
            "astId": 4570,
            "contract": "contracts/core/Manager.sol:Manager",
            "label": "collateralAddress",
            "offset": 0,
            "slot": "2",
            "type": "t_address"
          },
          {
            "astId": 4572,
            "contract": "contracts/core/Manager.sol:Manager",
            "label": "collateralParam",
            "offset": 0,
            "slot": "3",
            "type": "t_uint256"
          },
          {
            "astId": 4574,
            "contract": "contracts/core/Manager.sol:Manager",
            "label": "winner",
            "offset": 0,
            "slot": "4",
            "type": "t_address"
          },
          {
            "astId": 4576,
            "contract": "contracts/core/Manager.sol:Manager",
            "label": "randomNumber",
            "offset": 0,
            "slot": "5",
            "type": "t_uint256"
          },
          {
            "astId": 4578,
            "contract": "contracts/core/Manager.sol:Manager",
            "label": "amountRaised",
            "offset": 0,
            "slot": "6",
            "type": "t_uint256"
          },
          {
            "astId": 4580,
            "contract": "contracts/core/Manager.sol:Manager",
            "label": "seller",
            "offset": 0,
            "slot": "7",
            "type": "t_address"
          },
          {
            "astId": 4582,
            "contract": "contracts/core/Manager.sol:Manager",
            "label": "platformPercentage",
            "offset": 0,
            "slot": "8",
            "type": "t_uint256"
          },
          {
            "astId": 4584,
            "contract": "contracts/core/Manager.sol:Manager",
            "label": "cancellingDate",
            "offset": 0,
            "slot": "9",
            "type": "t_uint256"
          },
          {
            "astId": 4587,
            "contract": "contracts/core/Manager.sol:Manager",
            "label": "collectionWhitelist",
            "offset": 0,
            "slot": "10",
            "type": "t_array(t_address)dyn_storage"
          }
        ],
        "numberOfBytes": "352"
      },
      "t_struct(RandomResult)4379_storage": {
        "encoding": "inplace",
        "label": "struct Manager.RandomResult",
        "members": [
          {
            "astId": 4376,
            "contract": "contracts/core/Manager.sol:Manager",
            "label": "randomNumber",
            "offset": 0,
            "slot": "0",
            "type": "t_uint256"
          },
          {
            "astId": 4378,
            "contract": "contracts/core/Manager.sol:Manager",
            "label": "nomalizedRandomNumber",
            "offset": 0,
            "slot": "1",
            "type": "t_uint256"
          }
        ],
        "numberOfBytes": "64"
      },
      "t_struct(RoleData)404_storage": {
        "encoding": "inplace",
        "label": "struct AccessControl.RoleData",
        "members": [
          {
            "astId": 401,
            "contract": "contracts/core/Manager.sol:Manager",
            "label": "members",
            "offset": 0,
            "slot": "0",
            "type": "t_mapping(t_address,t_bool)"
          },
          {
            "astId": 403,
            "contract": "contracts/core/Manager.sol:Manager",
            "label": "adminRole",
            "offset": 0,
            "slot": "1",
            "type": "t_bytes32"
          }
        ],
        "numberOfBytes": "64"
      },
      "t_uint256": {
        "encoding": "inplace",
        "label": "uint256",
        "numberOfBytes": "32"
      }
    }
  }
}