{
  "address": "0x5535571359b4bfd8535c6e5583a9be54b2784402",
  "abi": [
    {
      "inputs": [
        {
          "internalType": "address",
          "name": "_vault",
          "type": "address"
        },
        {
          "internalType": "address",
          "name": "_signer",
          "type": "address"
        },
        {
          "internalType": "address",
          "name": "_vrfCoordinator",
          "type": "address"
        },
        {
          "internalType": "address",
          "name": "_linkToken",
          "type": "address"
        },
        {
          "internalType": "bytes32",
          "name": "_keyHash",
          "type": "bytes32"
        },
        {
          "internalType": "uint256",
          "name": "_fee",
          "type": "uint256"
        }
      ],
      "stateMutability": "nonpayable",
      "type": "constructor"
    },
    {
      "anonymous": false,
      "inputs": [
        {
          "indexed": true,
          "internalType": "bytes32",
          "name": "raffleId",
          "type": "bytes32"
        },
        {
          "indexed": false,
          "internalType": "uint256",
          "name": "amountRaised",
          "type": "uint256"
        }
      ],
      "name": "EarlyCashoutTriggered",
      "type": "event"
    },
    {
      "anonymous": false,
      "inputs": [
        {
          "indexed": true,
          "internalType": "bytes32",
          "name": "raffleId",
          "type": "bytes32"
        },
        {
          "indexed": true,
          "internalType": "address",
          "name": "buyer",
          "type": "address"
        },
        {
          "indexed": false,
          "internalType": "uint256",
          "name": "numTickets",
          "type": "uint256"
        },
        {
          "indexed": false,
          "internalType": "uint256",
          "name": "soldEntries",
          "type": "uint256"
        },
        {
          "indexed": false,
          "internalType": "uint256",
          "name": "price",
          "type": "uint256"
        }
      ],
      "name": "EntrySold",
      "type": "event"
    },
    {
      "anonymous": false,
      "inputs": [
        {
          "indexed": true,
          "internalType": "bytes32",
          "name": "raffleId",
          "type": "bytes32"
        },
        {
          "indexed": false,
          "internalType": "uint256",
          "name": "amountTransferred",
          "type": "uint256"
        }
      ],
      "name": "FeeTransferredToPlatform",
      "type": "event"
    },
    {
      "anonymous": false,
      "inputs": [
        {
          "indexed": true,
          "internalType": "bytes32",
          "name": "raffleId",
          "type": "bytes32"
        },
        {
          "indexed": false,
          "internalType": "address[]",
          "name": "buyer",
          "type": "address[]"
        },
        {
          "indexed": false,
          "internalType": "uint256",
          "name": "amount",
          "type": "uint256"
        },
        {
          "indexed": false,
          "internalType": "uint256",
          "name": "soldEntries",
          "type": "uint256"
        }
      ],
      "name": "FreeEntry",
      "type": "event"
    },
    {
      "anonymous": false,
      "inputs": [
        {
          "indexed": true,
          "internalType": "bytes32",
          "name": "raffleId",
          "type": "bytes32"
        },
        {
          "indexed": false,
          "internalType": "uint256",
          "name": "amountRaised",
          "type": "uint256"
        }
      ],
      "name": "RaffleCancelled",
      "type": "event"
    },
    {
      "anonymous": false,
      "inputs": [
        {
          "indexed": true,
          "internalType": "bytes32",
          "name": "raffleId",
          "type": "bytes32"
        },
        {
          "indexed": true,
          "internalType": "address",
          "name": "collateralAddress",
          "type": "address"
        },
        {
          "indexed": true,
          "internalType": "uint256",
          "name": "collateralParam",
          "type": "uint256"
        },
        {
          "indexed": false,
          "internalType": "uint256",
          "name": "endTime",
          "type": "uint256"
        },
        {
          "indexed": false,
          "internalType": "uint256",
          "name": "ticketSupply",
          "type": "uint256"
        },
        {
          "indexed": false,
          "internalType": "address",
          "name": "seller",
          "type": "address"
        },
        {
          "indexed": false,
          "internalType": "enum Manager.RAFFLETYPE",
          "name": "raffleType",
          "type": "uint8"
        },
        {
          "indexed": false,
          "internalType": "bool",
          "name": "operatorCreated",
          "type": "bool"
        }
      ],
      "name": "RaffleCreated",
      "type": "event"
    },
    {
      "anonymous": false,
      "inputs": [
        {
          "indexed": true,
          "internalType": "bytes32",
          "name": "raffleId",
          "type": "bytes32"
        },
        {
          "indexed": true,
          "internalType": "address",
          "name": "winner",
          "type": "address"
        },
        {
          "indexed": false,
          "internalType": "uint256",
          "name": "amountRaised",
          "type": "uint256"
        },
        {
          "indexed": false,
          "internalType": "uint256",
          "name": "randomNumber",
          "type": "uint256"
        }
      ],
      "name": "RaffleEnded",
      "type": "event"
    },
    {
      "anonymous": false,
      "inputs": [
        {
          "indexed": true,
          "internalType": "bytes32",
          "name": "id",
          "type": "bytes32"
        },
        {
          "indexed": false,
          "internalType": "uint256",
          "name": "randomNumber",
          "type": "uint256"
        },
        {
          "indexed": false,
          "internalType": "uint256",
          "name": "normalizedRandomNumber",
          "type": "uint256"
        }
      ],
      "name": "RandomNumberCreated",
      "type": "event"
    },
    {
      "anonymous": false,
      "inputs": [
        {
          "indexed": true,
          "internalType": "bytes32",
          "name": "raffleId",
          "type": "bytes32"
        },
        {
          "indexed": false,
          "internalType": "uint256",
          "name": "amountInWeis",
          "type": "uint256"
        },
        {
          "indexed": true,
          "internalType": "address",
          "name": "player",
          "type": "address"
        }
      ],
      "name": "Refund",
      "type": "event"
    },
    {
      "anonymous": false,
      "inputs": [
        {
          "indexed": true,
          "internalType": "bytes32",
          "name": "raffleId",
          "type": "bytes32"
        },
        {
          "indexed": false,
          "internalType": "uint256",
          "name": "amountInWeis",
          "type": "uint256"
        }
      ],
      "name": "RemainingFundsTransferred",
      "type": "event"
    },
    {
      "anonymous": false,
      "inputs": [
        {
          "indexed": true,
          "internalType": "bytes32",
          "name": "role",
          "type": "bytes32"
        },
        {
          "indexed": true,
          "internalType": "bytes32",
          "name": "previousAdminRole",
          "type": "bytes32"
        },
        {
          "indexed": true,
          "internalType": "bytes32",
          "name": "newAdminRole",
          "type": "bytes32"
        }
      ],
      "name": "RoleAdminChanged",
      "type": "event"
    },
    {
      "anonymous": false,
      "inputs": [
        {
          "indexed": true,
          "internalType": "bytes32",
          "name": "role",
          "type": "bytes32"
        },
        {
          "indexed": true,
          "internalType": "address",
          "name": "account",
          "type": "address"
        },
        {
          "indexed": true,
          "internalType": "address",
          "name": "sender",
          "type": "address"
        }
      ],
      "name": "RoleGranted",
      "type": "event"
    },
    {
      "anonymous": false,
      "inputs": [
        {
          "indexed": true,
          "internalType": "bytes32",
          "name": "role",
          "type": "bytes32"
        },
        {
          "indexed": true,
          "internalType": "address",
          "name": "account",
          "type": "address"
        },
        {
          "indexed": true,
          "internalType": "address",
          "name": "sender",
          "type": "address"
        }
      ],
      "name": "RoleRevoked",
      "type": "event"
    },
    {
      "anonymous": false,
      "inputs": [
        {
          "indexed": true,
          "internalType": "bytes32",
          "name": "raffleId",
          "type": "bytes32"
        },
        {
          "indexed": false,
          "internalType": "uint256",
          "name": "amountRaised",
          "type": "uint256"
        }
      ],
      "name": "SetWinnerTriggered",
      "type": "event"
    },
    {
      "inputs": [],
      "name": "DEFAULT_ADMIN_ROLE",
      "outputs": [
        {
          "internalType": "bytes32",
          "name": "",
          "type": "bytes32"
        }
      ],
      "stateMutability": "view",
      "type": "function"
    },
    {
      "inputs": [],
      "name": "OPERATOR_ROLE",
      "outputs": [
        {
          "internalType": "bytes32",
          "name": "",
          "type": "bytes32"
        }
      ],
      "stateMutability": "view",
      "type": "function"
    },
    {
      "inputs": [
        {
          "internalType": "bytes32",
          "name": "_raffleId",
          "type": "bytes32"
        },
        {
          "internalType": "uint256",
          "name": "_idOrTicketCount",
          "type": "uint256"
        },
        {
          "internalType": "address",
          "name": "_collection",
          "type": "address"
        },
        {
          "internalType": "uint256",
          "name": "_tokenIdUsed",
          "type": "uint256"
        }
      ],
      "name": "buyEntry",
      "outputs": [],
      "stateMutability": "payable",
      "type": "function"
    },
    {
      "inputs": [
        {
          "internalType": "bytes32",
          "name": "_raffleId",
          "type": "bytes32"
        }
      ],
      "name": "cancelRaffle",
      "outputs": [],
      "stateMutability": "nonpayable",
      "type": "function"
    },
    {
      "inputs": [
        {
          "internalType": "bytes32",
          "name": "",
          "type": "bytes32"
        }
      ],
      "name": "chainlinkRaffleInfo",
      "outputs": [
        {
          "internalType": "bytes32",
          "name": "id",
          "type": "bytes32"
        },
        {
          "internalType": "uint256",
          "name": "size",
          "type": "uint256"
        }
      ],
      "stateMutability": "view",
      "type": "function"
    },
    {
      "inputs": [
        {
          "internalType": "bytes32",
          "name": "_raffleId",
          "type": "bytes32"
        }
      ],
      "name": "claimRefund",
      "outputs": [],
      "stateMutability": "nonpayable",
      "type": "function"
    },
    {
      "inputs": [
        {
          "internalType": "bytes32",
          "name": "",
          "type": "bytes32"
        }
      ],
      "name": "claimsData",
      "outputs": [
        {
          "internalType": "uint256",
          "name": "numTicketsPerUser",
          "type": "uint256"
        },
        {
          "internalType": "uint256",
          "name": "amountSpentInWeis",
          "type": "uint256"
        },
        {
          "internalType": "bool",
          "name": "claimed",
          "type": "bool"
        }
      ],
      "stateMutability": "view",
      "type": "function"
    },
    {
      "inputs": [
        {
          "internalType": "bytes32",
          "name": "",
          "type": "bytes32"
        },
        {
          "internalType": "uint256",
          "name": "",
          "type": "uint256"
        }
      ],
      "name": "entries",
      "outputs": [
        {
          "internalType": "uint256",
          "name": "currentEntriesLength",
          "type": "uint256"
        },
        {
          "internalType": "address",
          "name": "player",
          "type": "address"
        }
      ],
      "stateMutability": "view",
      "type": "function"
    },
    {
      "inputs": [
        {
          "internalType": "bytes32",
          "name": "",
          "type": "bytes32"
        }
      ],
      "name": "entriesCount",
      "outputs": [
        {
          "internalType": "uint256",
          "name": "",
          "type": "uint256"
        }
      ],
      "stateMutability": "view",
      "type": "function"
    },
    {
      "inputs": [
        {
          "internalType": "bytes32",
          "name": "",
          "type": "bytes32"
        }
      ],
      "name": "fundingList",
      "outputs": [
        {
          "internalType": "uint256",
          "name": "minTicketCount",
          "type": "uint256"
        },
        {
          "internalType": "uint256",
          "name": "maxTicketCount",
          "type": "uint256"
        }
      ],
      "stateMutability": "view",
      "type": "function"
    },
    {
      "inputs": [
        {
          "internalType": "bytes32",
          "name": "_raffleId",
          "type": "bytes32"
        },
        {
          "internalType": "address",
          "name": "_player",
          "type": "address"
        }
      ],
      "name": "getClaimData",
      "outputs": [
        {
          "components": [
            {
              "internalType": "uint256",
              "name": "numTicketsPerUser",
              "type": "uint256"
            },
            {
              "internalType": "uint256",
              "name": "amountSpentInWeis",
              "type": "uint256"
            },
            {
              "internalType": "bool",
              "name": "claimed",
              "type": "bool"
            }
          ],
          "internalType": "struct Manager.ClaimStruct",
          "name": "",
          "type": "tuple"
        }
      ],
      "stateMutability": "view",
      "type": "function"
    },
    {
      "inputs": [
        {
          "internalType": "bytes32",
          "name": "role",
          "type": "bytes32"
        }
      ],
      "name": "getRoleAdmin",
      "outputs": [
        {
          "internalType": "bytes32",
          "name": "",
          "type": "bytes32"
        }
      ],
      "stateMutability": "view",
      "type": "function"
    },
    {
      "inputs": [
        {
          "internalType": "bytes32",
          "name": "_raffleId",
          "type": "bytes32"
        },
        {
          "internalType": "uint256",
          "name": "_normalizedRandomNumber",
          "type": "uint256"
        }
      ],
      "name": "getWinnerAddressFromRandom",
      "outputs": [
        {
          "internalType": "address",
          "name": "",
          "type": "address"
        }
      ],
      "stateMutability": "view",
      "type": "function"
    },
    {
      "inputs": [
        {
          "internalType": "bytes32",
          "name": "role",
          "type": "bytes32"
        },
        {
          "internalType": "address",
          "name": "account",
          "type": "address"
        }
      ],
      "name": "grantRole",
      "outputs": [],
      "stateMutability": "nonpayable",
      "type": "function"
    },
    {
      "inputs": [
        {
          "internalType": "bytes32",
          "name": "role",
          "type": "bytes32"
        },
        {
          "internalType": "address",
          "name": "account",
          "type": "address"
        }
      ],
      "name": "hasRole",
      "outputs": [
        {
          "internalType": "bool",
          "name": "",
          "type": "bool"
        }
      ],
      "stateMutability": "view",
      "type": "function"
    },
    {
      "inputs": [
        {
          "components": [
            {
              "internalType": "enum Manager.RAFFLETYPE",
              "name": "raffleType",
              "type": "uint8"
            },
            {
              "internalType": "address",
              "name": "collateralAddress",
              "type": "address"
            },
            {
              "internalType": "uint256",
              "name": "collateralParam",
              "type": "uint256"
            },
            {
              "internalType": "uint256",
              "name": "minTicketCount",
              "type": "uint256"
            },
            {
              "internalType": "uint256",
              "name": "maxTicketCount",
              "type": "uint256"
            },
            {
              "internalType": "uint256",
              "name": "endTime",
              "type": "uint256"
            }
          ],
          "internalType": "struct Manager.OperatorCreateParam",
          "name": "_params",
          "type": "tuple"
        },
        {
          "components": [
            {
              "internalType": "uint256",
              "name": "id",
              "type": "uint256"
            },
            {
              "internalType": "uint256",
              "name": "numTickets",
              "type": "uint256"
            },
            {
              "internalType": "uint256",
              "name": "price",
              "type": "uint256"
            }
          ],
          "internalType": "struct Manager.PriceStructure[]",
          "name": "_prices",
          "type": "tuple[]"
        },
        {
          "internalType": "address[]",
          "name": "_collectionWhitelist",
          "type": "address[]"
        }
      ],
      "name": "operatorCreateRaffle",
      "outputs": [
        {
          "internalType": "bytes32",
          "name": "",
          "type": "bytes32"
        }
      ],
      "stateMutability": "payable",
      "type": "function"
    },
    {
      "inputs": [
        {
          "internalType": "bytes32",
          "name": "",
          "type": "bytes32"
        },
        {
          "internalType": "uint256",
          "name": "",
          "type": "uint256"
        }
      ],
      "name": "prices",
      "outputs": [
        {
          "internalType": "uint256",
          "name": "id",
          "type": "uint256"
        },
        {
          "internalType": "uint256",
          "name": "numTickets",
          "type": "uint256"
        },
        {
          "internalType": "uint256",
          "name": "price",
          "type": "uint256"
        }
      ],
      "stateMutability": "view",
      "type": "function"
    },
    {
      "inputs": [
        {
          "internalType": "bytes32",
          "name": "",
          "type": "bytes32"
        }
      ],
      "name": "raffles",
      "outputs": [
        {
          "internalType": "enum Manager.RAFFLETYPE",
          "name": "raffleType",
          "type": "uint8"
        },
        {
          "internalType": "enum Manager.STATUS",
          "name": "status",
          "type": "uint8"
        },
        {
          "internalType": "bool",
          "name": "operatorCreated",
          "type": "bool"
        },
        {
          "internalType": "address",
          "name": "collateralAddress",
          "type": "address"
        },
        {
          "internalType": "uint256",
          "name": "collateralParam",
          "type": "uint256"
        },
        {
          "internalType": "address",
          "name": "winner",
          "type": "address"
        },
        {
          "internalType": "uint256",
          "name": "randomNumber",
          "type": "uint256"
        },
        {
          "internalType": "uint256",
          "name": "amountRaised",
          "type": "uint256"
        },
        {
          "internalType": "address",
          "name": "seller",
          "type": "address"
        },
        {
          "internalType": "uint256",
          "name": "endTime",
          "type": "uint256"
        },
        {
          "internalType": "uint256",
          "name": "cancellingDate",
          "type": "uint256"
        },
        {
          "internalType": "uint256",
          "name": "ticketPrice",
          "type": "uint256"
        }
      ],
      "stateMutability": "view",
      "type": "function"
    },
    {
      "inputs": [
        {
          "internalType": "bytes32",
          "name": "requestId",
          "type": "bytes32"
        },
        {
          "internalType": "uint256",
          "name": "randomness",
          "type": "uint256"
        }
      ],
      "name": "rawFulfillRandomness",
      "outputs": [],
      "stateMutability": "nonpayable",
      "type": "function"
    },
    {
      "inputs": [
        {
          "internalType": "bytes32",
          "name": "role",
          "type": "bytes32"
        },
        {
          "internalType": "address",
          "name": "account",
          "type": "address"
        }
      ],
      "name": "renounceRole",
      "outputs": [],
      "stateMutability": "nonpayable",
      "type": "function"
    },
    {
      "inputs": [
        {
          "internalType": "bytes32",
          "name": "",
          "type": "bytes32"
        }
      ],
      "name": "requests",
      "outputs": [
        {
          "internalType": "uint256",
          "name": "randomNumber",
          "type": "uint256"
        },
        {
          "internalType": "uint256",
          "name": "nomalizedRandomNumber",
          "type": "uint256"
        }
      ],
      "stateMutability": "view",
      "type": "function"
    },
    {
      "inputs": [
        {
          "internalType": "bytes32",
          "name": "",
          "type": "bytes32"
        }
      ],
      "name": "requiredNFTWallets",
      "outputs": [
        {
          "internalType": "address",
          "name": "",
          "type": "address"
        }
      ],
      "stateMutability": "view",
      "type": "function"
    },
    {
      "inputs": [
        {
          "internalType": "bytes32",
          "name": "role",
          "type": "bytes32"
        },
        {
          "internalType": "address",
          "name": "account",
          "type": "address"
        }
      ],
      "name": "revokeRole",
      "outputs": [],
      "stateMutability": "nonpayable",
      "type": "function"
    },
    {
      "inputs": [
        {
          "internalType": "address payable",
          "name": "_newAddress",
          "type": "address"
        }
      ],
      "name": "setSignerAddress",
      "outputs": [],
      "stateMutability": "nonpayable",
      "type": "function"
    },
    {
      "inputs": [
        {
          "internalType": "bytes32",
          "name": "_raffleId",
          "type": "bytes32"
        }
      ],
      "name": "setWinner",
      "outputs": [],
      "stateMutability": "nonpayable",
      "type": "function"
    },
    {
      "inputs": [],
      "name": "signer",
      "outputs": [
        {
          "internalType": "address",
          "name": "",
          "type": "address"
        }
      ],
      "stateMutability": "view",
      "type": "function"
    },
    {
      "inputs": [
        {
          "internalType": "bytes32",
          "name": "",
          "type": "bytes32"
        }
      ],
      "name": "soldTicketCount",
      "outputs": [
        {
          "internalType": "uint256",
          "name": "",
          "type": "uint256"
        }
      ],
      "stateMutability": "view",
      "type": "function"
    },
    {
      "inputs": [
        {
          "internalType": "bytes4",
          "name": "interfaceId",
          "type": "bytes4"
        }
      ],
      "name": "supportsInterface",
      "outputs": [
        {
          "internalType": "bool",
          "name": "",
          "type": "bool"
        }
      ],
      "stateMutability": "view",
      "type": "function"
    },
    {
      "inputs": [
        {
          "internalType": "address",
          "name": "to",
          "type": "address"
        }
      ],
      "name": "transferOwnership",
      "outputs": [],
      "stateMutability": "nonpayable",
      "type": "function"
    },
    {
      "inputs": [
        {
          "internalType": "bytes32",
          "name": "_raffleId",
          "type": "bytes32"
        }
      ],
      "name": "transferRemainingFunds",
      "outputs": [],
      "stateMutability": "nonpayable",
      "type": "function"
    },
    {
      "inputs": [
        {
          "components": [
            {
              "internalType": "enum Manager.RAFFLETYPE",
              "name": "raffleType",
              "type": "uint8"
            },
            {
              "internalType": "address",
              "name": "collateralAddress",
              "type": "address"
            },
            {
              "internalType": "uint256",
              "name": "collateralParam",
              "type": "uint256"
            },
            {
              "internalType": "uint256",
              "name": "ticketSupply",
              "type": "uint256"
            },
            {
              "internalType": "uint256",
              "name": "ticketPrice",
              "type": "uint256"
            },
            {
              "internalType": "uint256",
              "name": "endTime",
              "type": "uint256"
            }
          ],
          "internalType": "struct Manager.UserCreateParam",
          "name": "_params",
          "type": "tuple"
        },
        {
          "internalType": "address[]",
          "name": "_collectionWhitelist",
          "type": "address[]"
        },
        {
          "components": [
            {
              "internalType": "bytes32",
              "name": "r",
              "type": "bytes32"
            },
            {
              "internalType": "bytes32",
              "name": "s",
              "type": "bytes32"
            },
            {
              "internalType": "uint8",
              "name": "v",
              "type": "uint8"
            }
          ],
          "internalType": "struct Manager.Sig",
          "name": "_sig",
          "type": "tuple"
        }
      ],
      "name": "userCreateRaffle",
      "outputs": [
        {
          "internalType": "bytes32",
          "name": "",
          "type": "bytes32"
        }
      ],
      "stateMutability": "payable",
      "type": "function"
    },
    {
      "inputs": [],
      "name": "vault",
      "outputs": [
        {
          "internalType": "address",
          "name": "",
          "type": "address"
        }
      ],
      "stateMutability": "view",
      "type": "function"
    }
  ],
  "transactionHash": "0x790a1b3c14decaf4a50c4a29041e566d3131ba867fca3f457c97f31861940434",
  "args": [
    "0x2C9633bd4c03A61C3a5F521F54d807eEb7fF9b0c",
    "0x6933E63B7786769E4f21F6015566569DBd450cFC",
    "0x2bce784e69d2Ff36c71edcB9F88358dB0DfB55b4",
    "0x326C977E6efc84E512bB9C30f76E30c160eD06FB",
    "0x0476f9a745b61ea5c0ab224d3a6e4c99f0b02fce4da01143a4f70aa80ae76e8a",
    "200000000000000000"
  ],
  "numDeployments": 10,
  "solcInputHash": "dda750130b405b2f274a7b31493167ce",
  "bytecode": "0x60e06040523480156200001157600080fd5b506040516200493b3803806200493b83398101604081905262000034916200015d565b600180556001600160a01b0380851660a05283166080526200005860003362000090565b6001600160a01b0395861660c052600f80546001600160a01b03191695909616949094179094555050600391909155600455620001cc565b6200009c8282620000a0565b5050565b6000828152602081815260408083206001600160a01b038516845290915290205460ff166200009c576000828152602081815260408083206001600160a01b03851684529091529020805460ff19166001179055620000fc3390565b6001600160a01b0316816001600160a01b0316837f2f8788117e7eff1d82e926ec794901d17c78024a50270940304540a733656f0d60405160405180910390a45050565b80516001600160a01b03811681146200015857600080fd5b919050565b60008060008060008060c087890312156200017757600080fd5b620001828762000140565b9550620001926020880162000140565b9450620001a26040880162000140565b9350620001b26060880162000140565b92506080870151915060a087015190509295509295509295565b60805160a05160c05161471c6200021f600039600081816107bf01528181612853015281816139000152613a85015260008181611ab501526131ec015260008181612b2301526131bd015261471c6000f3fe6080604052600436106101e35760003560e01c80639349073511610102578063d4ea07c011610095578063e31ef12c11610064578063e31ef12c146106c4578063f2fde38b1461076b578063f5b541a61461078b578063fbfa77cf146107ad57600080fd5b8063d4ea07c014610644578063d547741f14610671578063dbb19e2114610691578063de72b5f2146106a457600080fd5b8063a217fddf116100d1578063a217fddf14610593578063aa1d8d77146105a8578063b967ed46146105c8578063baf02905146105e857600080fd5b806393490735146104ad57806394985ddd146104da578063969be233146104fa5780639d8669851461055f57600080fd5b806336568abe1161017a57806365f8d3af1161014957806365f8d3af1461041f57806371ace6891461045a57806371de2ffc1461046d57806391d148541461048d57600080fd5b806336568abe1461037457806342c8fa4214610394578063585acad4146103c85780635e320e08146103db57600080fd5b8063248a9ca3116101b6578063248a9ca3146102ad5780632a596800146102eb5780632b39bc46146103345780632f2ff15d1461035457600080fd5b806301ffc9a7146101e8578063046dc1661461021d5780631a0187f51461023f578063238ac9331461028d575b600080fd5b3480156101f457600080fd5b50610208610203366004613fdc565b6107e1565b60405190151581526020015b60405180910390f35b34801561022957600080fd5b5061023d61023836600461401b565b610818565b005b34801561024b57600080fd5b5061027561025a366004614038565b600e602052600090815260409020546001600160a01b031681565b6040516001600160a01b039091168152602001610214565b34801561029957600080fd5b50600f54610275906001600160a01b031681565b3480156102b957600080fd5b506102dd6102c8366004614038565b60009081526020819052604090206001015490565b604051908152602001610214565b3480156102f757600080fd5b5061031f610306366004614038565b6006602052600090815260409020805460019091015482565b60408051928352602083019190915201610214565b34801561034057600080fd5b5061023d61034f366004614038565b610846565b34801561036057600080fd5b5061023d61036f366004614051565b6109f6565b34801561038057600080fd5b5061023d61038f366004614051565b610a20565b3480156103a057600080fd5b5061031f6103af366004614038565b6008602052600090815260409020805460019091015482565b6102dd6103d63660046140e5565b610a9e565b3480156103e757600080fd5b506103fb6103f6366004614051565b610fb5565b60408051825181526020808401519082015291810151151590820152606001610214565b34801561042b57600080fd5b5061043f61043a366004614155565b61104a565b60408051938452602084019290925290820152606001610214565b61023d610468366004614177565b611080565b34801561047957600080fd5b5061023d610488366004614038565b611831565b34801561049957600080fd5b506102086104a8366004614051565b611a81565b3480156104b957600080fd5b506102dd6104c8366004614038565b600a6020526000908152604090205481565b3480156104e657600080fd5b5061023d6104f5366004614155565b611aaa565b34801561050657600080fd5b50610542610515366004614155565b600b602090815260009283526040808420909152908252902080546001909101546001600160a01b031682565b604080519283526001600160a01b03909116602083015201610214565b34801561056b57600080fd5b5061031f61057a366004614038565b6005602052600090815260409020805460019091015482565b34801561059f57600080fd5b506102dd600081565b3480156105b457600080fd5b5061023d6105c3366004614038565b611b2c565b3480156105d457600080fd5b506102756105e3366004614155565b612016565b3480156105f457600080fd5b50610627610603366004614038565b600d6020526000908152604090208054600182015460029092015490919060ff1683565b604080519384526020840192909252151590820152606001610214565b34801561065057600080fd5b506102dd61065f366004614038565b60096020526000908152604090205481565b34801561067d57600080fd5b5061023d61068c366004614051565b612051565b6102dd61069f3660046141b6565b612076565b3480156106b057600080fd5b5061023d6106bf366004614038565b612606565b3480156106d057600080fd5b506107536106df366004614038565b600c6020526000908152604090208054600182015460028301546003840154600485015460058601546006870154600788015460089098015460ff808916996101008a04821699620100008104909216986001600160a01b036301000000909304831698909790831696909590949216928c565b6040516102149c9b9a99989796959493929190614294565b34801561077757600080fd5b5061023d61078636600461401b565b612a8c565b34801561079757600080fd5b506102dd6000805160206146c783398151915281565b3480156107b957600080fd5b506102757f000000000000000000000000000000000000000000000000000000000000000081565b60006001600160e01b03198216637965db0b60e01b148061081257506301ffc9a760e01b6001600160e01b03198316145b92915050565b600061082381612aa2565b50600f80546001600160a01b0319166001600160a01b0392909216919091179055565b61084e612aac565b6000818152600c6020908152604080832060088352928190208151808301909252805482526001015491810191909152600682015442116108d65760405162461bcd60e51b815260206004820152601a60248201527f526166666c65206973206e6f742066696e69736865642079657400000000000060448201526064015b60405180910390fd5b60008254610100900460ff1660058111156108f3576108f361426a565b146109105760405162461bcd60e51b81526004016108cd90614328565b815462010000900460ff1615806109365750805160008481526009602052604090205410155b6109825760405162461bcd60e51b815260206004820152601760248201527f4e6f7420656e6f7567682066756e64732072616973656400000000000000000060448201526064016108cd565b815461ff0019166103001782556000838152600a60205260409020546109a9908490612b05565b50827f83862d9f9127159f912dd9234a8048bca91595db69928e52e7f9c07d66b1edfa83600401546040516109e091815260200190565b60405180910390a250506109f360018055565b50565b600082815260208190526040902060010154610a1181612aa2565b610a1b8383612c3b565b505050565b6001600160a01b0381163314610a905760405162461bcd60e51b815260206004820152602f60248201527f416363657373436f6e74726f6c3a2063616e206f6e6c792072656e6f756e636560448201526e103937b632b9903337b91039b2b63360891b60648201526084016108cd565b610a9a8282612cbf565b5050565b6000610aad426201518061438a565b8560a0013510158015610ad05750610ac8426212750061438a565b8560a0013511155b610b335760405162461bcd60e51b815260206004820152602e60248201527f496e76616c696420656e642074696d65202d204d696e3a20323420686f75727360448201526d2c204d61783a203134206461797360901b60648201526084016108cd565b610b4c610b46604087016020880161401b565b83612d24565b610ba35760405162461bcd60e51b815260206004820152602260248201527f5468697320636f6c6c656374696f6e206973206e6f742077686974656c697374604482015261195960f21b60648201526084016108cd565b604080516101a0810190915260009080610bc0602089018961439d565b6002811115610bd157610bd161426a565b815260200160008152602001600015158152602001876020016020810190610bf9919061401b565b6001600160a01b031681526020018760400135815260200160006001600160a01b031681526020016000815260200160008152602001336001600160a01b031681526020018760a0013581526020016000815260200187608001358152602001868680806020026020016040519081016040528093929190818152602001838360200280828437600092018290525093909452509293509150610c9d905082612e45565b6000818152600c60205260409020835181549293508492829060ff19166001836002811115610cce57610cce61426a565b021790555060208201518154829061ff001916610100836005811115610cf657610cf661426a565b02179055506040820151815460608401516001600160a01b039081166301000000026301000000600160b81b031993151562010000029390931662010000600160b81b0319909216919091179190911782556080830151600183015560a08301516002830180549183166001600160a01b031992831617905560c0840151600384015560e084015160048401556101008401516005840180549190931691161790556101208201516006820155610140820151600782015561016082015160088201556101808201518051610dd5916009840191602090910190613f62565b5050604080518082018252600080825260608b01356020808401918252868352600890529281209151825591516001909101559050610e17602089018961439d565b6002811115610e2857610e2861426a565b03610e9e57606082015160808301516040516323b872dd60e01b81526001600160a01b038316916323b872dd91610e669133913091906004016143be565b600060405180830381600087803b158015610e8057600080fd5b505af1158015610e94573d6000803e3d6000fd5b5050505050610f37565b6002610ead602089018961439d565b6002811115610ebe57610ebe61426a565b03610eeb5760608201516080830151610ee5906001600160a01b0383169033903090612e87565b50610f37565b81608001513414610f375760405162461bcd60e51b8152602060048201526016602482015275125b9d985b1a590819195c1bdcda5d08185b5bdd5b9d60521b60448201526064016108cd565b60408701803590610f4b9060208a0161401b565b6001600160a01b0316827fab068483950284f4fb92edeea9431ef136ac49257a25b748d423c4901baed1d060a08b013560608c013533610f8e60208f018f61439d565b6001604051610fa19594939291906143e2565b60405180910390a49150505b949350505050565b610fdb604051806060016040528060008152602001600081526020016000151581525090565b50604080516001600160a01b039290921660208084019190915282820193909352805180830382018152606083018083528151918501919091206000908152600d9094529281902060c0830190915280548352600181015460808301526002015460ff16151560a09091015290565b6007602052816000526040600020816005811061106657600080fd5b600302018054600182015460029092015490935090915083565b611088612aac565b6000848152600c60205260409020600601544211156110e95760405162461bcd60e51b815260206004820152601760248201527f526166666c6520616c72656164792066696e697368656400000000000000000060448201526064016108cd565b6000848152600c602052604090205462010000900460ff168061110c5750600083115b6111625760405162461bcd60e51b815260206004820152602160248201527f5469636b657420636f756e742073686f756c6420626967676572207468616e206044820152600360fc1b60648201526084016108cd565b6000848152600c6020526040902060090154156113e7576000805b6000868152600c60205260409020600901548110156111fa576000868152600c6020526040902060090180546001600160a01b0386169190839081106111c5576111c561441e565b6000918252602090912001546001600160a01b0316036111e857600191506111fa565b806111f281614434565b91505061117d565b5060018115151461124d5760405162461bcd60e51b815260206004820152601a60248201527f4e6f7420696e20726571756972656420636f6c6c656374696f6e00000000000060448201526064016108cd565b6040516331a9108f60e11b815260048101839052839033906001600160a01b03831690636352211e90602401602060405180830381865afa158015611296573d6000803e3d6000fd5b505050506040513d601f19601f820116820180604052508101906112ba919061444d565b6001600160a01b0316146113105760405162461bcd60e51b815260206004820152601860248201527f4e6f7420746865206f776e6572206f6620746f6b656e4964000000000000000060448201526064016108cd565b604080516001600160a01b03861660208201529081018790526060810184905260009060800160408051601f1981840301815291815281516020928301206000818152600e9093529120549091506001600160a01b031661138e576000818152600e6020526040902080546001600160a01b031916331790556113e3565b6000818152600e60205260409020546001600160a01b031633146113e35760405162461bcd60e51b815260206004820152600c60248201526b1d1bdad95b9259081d5cd95960a21b60448201526064016108cd565b5050505b336114295760405162461bcd60e51b81526020600482015260126024820152711b5cd9cb9cd95b99195c881a5cc81b9d5b1b60721b60448201526064016108cd565b600080858152600c6020526040902054610100900460ff1660058111156114525761145261426a565b1461146f5760405162461bcd60e51b81526004016108cd90614328565b6000848152600c6020526040812054819062010000900460ff16156114f757600061149a8787612edf565b905060008160200151116114e35760405162461bcd60e51b815260206004820152601060248201526f1a59081b9bdd081cdd5c1c1bdc9d195960821b60448201526064016108cd565b80602001519250806040015191505061151a565b6000868152600c602052604090206008015485925061151790839061446a565b90505b604080513360208201529081018790526000906060016040516020818303038152906040528051906020012090508134146115a35760405162461bcd60e51b8152602060048201526024808201527f6d73672e76616c7565206d75737420626520657175616c20746f2074686520706044820152637269636560e01b60648201526084016108cd565b6000878152600c602052604090205462010000900460ff16806115fc57506000878152600860205260409020600101546115df90600590614497565b6000828152600d60205260409020546115f990859061438a565b11155b6116485760405162461bcd60e51b815260206004820152601960248201527f426f7567687420746f6f206d616e7920656e747269657328290000000000000060448201526064016108cd565b60008781526008602090815260408083206001015460099092529091205461167190859061438a565b11156116bf5760405162461bcd60e51b815260206004820152601860248201527f4d6178207469636b657420616d6f756e7420657863656564000000000000000060448201526064016108cd565b600087815260096020526040812080548592906116dd90849061438a565b90915550506000878152600a602052604081208054916116fc83614434565b90915550506040805180820182526000898152600a602090815283822054808452338285019081528c8452600b8352858420918452908252848320845181559051600190910180546001600160a01b0319166001600160a01b039092169190911790558a8252600c905291822060040180549192349261177d90849061438a565b90915550506000828152600d6020526040812080548692906117a090849061438a565b90915550506000828152600d6020526040812060010180543492906117c690849061438a565b90915550506000888152600a602090815260409182902054825187815291820152908101849052339089907f2b6e2ac0f1dd5b1efc9eedda61fa733184aeec619f0b8359452b9aaef93c7aca9060600160405180910390a35050505061182b60018055565b50505050565b611839612aac565b6000818152600c6020526040902060058154610100900460ff1660058111156118645761186461426a565b146118a05760405162461bcd60e51b815260206004820152600c60248201526b77726f6e672073746174757360a01b60448201526064016108cd565b60078101546118b29062278d0061438a565b4211156118f65760405162461bcd60e51b815260206004820152601260248201527118db185a5b481d1a5b5948195e1c1a5c995960721b60448201526064016108cd565b6040805133602080830191909152818301859052825180830384018152606090920183528151918101919091206000908152600d90915220600281015460ff16156119765760405162461bcd60e51b815260206004820152601060248201526f185b1c9958591e481c99599d5b99195960821b60448201526064016108cd565b8060010154826004015461198a91906144ab565b600483015560028101805460ff1916600190811790915581015460405160009133918381818185875af1925050503d80600081146119e4576040519150601f19603f3d011682016040523d82523d6000602084013e6119e9565b606091505b5050905080611a2d5760405162461bcd60e51b815260206004820152601060248201526f11985a5b081cd95b99081c99599d5b9960821b60448201526064016108cd565b336001600160a01b0316847f9fcdf5658d5b646297a256c6996784bb11a370781b3fcf998145c309588796a18460010154604051611a6d91815260200190565b60405180910390a35050506109f360018055565b6000918252602082815260408084206001600160a01b0393909316845291905290205460ff1690565b336001600160a01b037f00000000000000000000000000000000000000000000000000000000000000001614611b225760405162461bcd60e51b815260206004820152601f60248201527f4f6e6c7920565246436f6f7264696e61746f722063616e2066756c66696c6c0060448201526064016108cd565b610a9a8282612fc7565b611b34612aac565b6000805160206146c7833981519152611b4c81612aa2565b6000828152600c602052604080822081516101a081019092528054829060ff166002811115611b7d57611b7d61426a565b6002811115611b8e57611b8e61426a565b81528154602090910190610100900460ff166005811115611bb157611bb161426a565b6005811115611bc257611bc261426a565b8152815460ff6201000082041615156020808401919091526001600160a01b036301000000909204821660408085019190915260018501546060850152600285015483166080850152600385015460a0850152600485015460c0850152600585015490921660e0840152600684015461010084015260078401546101208401526008840154610140840152600984018054835181840281018401909452808452610160909401939091830182828015611ca457602002820191906000526020600020905b81546001600160a01b03168152600190910190602001808311611c86575b505050505081525050905060046005811115611cc257611cc261426a565b81602001516005811115611cd857611cd861426a565b14158015611cfc5750600281602001516005811115611cf957611cf961426a565b14155b8015611d1e5750600181602001516005811115611d1b57611d1b61426a565b14155b8015611d405750600381602001516005811115611d3d57611d3d61426a565b14155b8015611d625750600581602001516005811115611d5f57611d5f61426a565b14155b611d9d5760405162461bcd60e51b815260206004820152600c60248201526b57726f6e672073746174757360a01b60448201526064016108cd565b6101008101516001600160a01b03163314611e055760405162461bcd60e51b815260206004820152602260248201527f596f7520617265206e6f742063726561746f72206f66207468697320726166666044820152616c6560f01b60648201526084016108cd565b600081602001516005811115611e1d57611e1d61426a565b03611e9457606081015161010082015160808301516040516323b872dd60e01b81526001600160a01b038416926323b872dd92611e6092309291906004016143be565b600060405180830381600087803b158015611e7a57600080fd5b505af1158015611e8e573d6000803e3d6000fd5b50505050505b60056020820181905250426101408201526000838152600c602052604090208151815483929190829060ff19166001836002811115611ed557611ed561426a565b021790555060208201518154829061ff001916610100836005811115611efd57611efd61426a565b02179055506040820151815460608401516001600160a01b039081166301000000026301000000600160b81b031993151562010000029390931662010000600160b81b0319909216919091179190911782556080830151600183015560a08301516002830180549183166001600160a01b031992831617905560c0840151600384015560e084015160048401556101008401516005840180549190931691161790556101208201516006820155610140820151600782015561016082015160088201556101808201518051611fdc916009840191602090910190613f62565b50905050827fb0d756bc39086b9284e5d4678f72c54bd62b72be9b54b6bd569268782ef513da8260e001516040516109e091815260200190565b6000806120238484613084565b6000858152600b6020908152604080832093835292905220600101546001600160a01b031691505092915050565b60008281526020819052604090206001015461206c81612aa2565b610a1b8383612cbf565b60006000805160206146c783398151915261209081612aa2565b428760a00135116120d65760405162461bcd60e51b815260206004820152601060248201526f496e76616c696420656e642074696d6560801b60448201526064016108cd565b604080516101a08101909152600090806120f360208b018b61439d565b60028111156121045761210461426a565b81526020016000815260200160011515815260200189602001602081019061212c919061401b565b6001600160a01b031681526020018960400135815260200160006001600160a01b031681526020016000815260200160008152602001336001600160a01b031681526020018960a00135815260200160008152602001600081526020018686808060200260200160405190810160405280939291908181526020018383602002808284376000920182905250939094525092935091506121cd905082612e45565b6000818152600c60205260409020835181549293508492829060ff191660018360028111156121fe576121fe61426a565b021790555060208201518154829061ff0019166101008360058111156122265761222661426a565b02179055506040820151815460608401516001600160a01b039081166301000000026301000000600160b81b031993151562010000029390931662010000600160b81b0319909216919091179190911782556080830151600183015560a08301516002830180549183166001600160a01b031992831617905560c0840151600384015560e084015160048401556101008401516005840180549190931691161790556101208201516006820155610140820151600782015561016082015160088201556101808201518051612305916009840191602090910190613f62565b505050866123415760405162461bcd60e51b81526020600482015260096024820152684e6f2070726963657360b81b60448201526064016108cd565b60005b8781101561241f5760008989838181106123605761236061441e565b90506060020160200135116123a95760405162461bcd60e51b815260206004820152600f60248201526e06e756d5469636b657473206973203608c1b60448201526064016108cd565b8888828181106123bb576123bb61441e565b9050606002016007600084815260200190815260200160002082600581106123e5576123e561441e565b6003020161240a82828135815560208201356001820155604082013560028201555050565b5081905061241781614434565b915050612344565b5060408051808201825260608b0135815260808b0135602080830191825260008581526008909152928320915182555160019091015561246260208b018b61439d565b60028111156124735761247361426a565b036124e957606082015160808301516040516323b872dd60e01b81526001600160a01b038316916323b872dd916124b19133913091906004016143be565b600060405180830381600087803b1580156124cb57600080fd5b505af11580156124df573d6000803e3d6000fd5b5050505050612582565b60026124f860208b018b61439d565b60028111156125095761250961426a565b036125365760608201516080830151612530906001600160a01b0383169033903090612e87565b50612582565b816080015134146125825760405162461bcd60e51b8152602060048201526016602482015275125b9d985b1a590819195c1bdcda5d08185b5bdd5b9d60521b60448201526064016108cd565b604089018035906125969060208c0161401b565b6001600160a01b0316827fab068483950284f4fb92edeea9431ef136ac49257a25b748d423c4901baed1d08c60a001358d60800135338f60000160208101906125df919061439d565b60016040516125f29594939291906143e2565b60405180910390a498975050505050505050565b61260e612aac565b6000805160206146c783398151915261262681612aa2565b6000828152600c602052604080822081516101a081019092528054829060ff1660028111156126575761265761426a565b60028111156126685761266861426a565b81528154602090910190610100900460ff16600581111561268b5761268b61426a565b600581111561269c5761269c61426a565b8152815460ff6201000082041615156020808401919091526001600160a01b036301000000909204821660408085019190915260018501546060850152600285015483166080850152600385015460a0850152600485015460c0850152600585015490921660e084015260068401546101008401526007840154610120840152600884015461014084015260098401805483518184028101840190945280845261016090940193909183018282801561277e57602002820191906000526020600020905b81546001600160a01b03168152600190910190602001808311612760575b505050505081525050905060058081111561279b5761279b61426a565b816020015160058111156127b1576127b161426a565b146127ed5760405162461bcd60e51b815260206004820152600c60248201526b57726f6e672073746174757360a01b60448201526064016108cd565b6101408101516128009062278d0061438a565b421161283f5760405162461bcd60e51b815260206004820152600e60248201526d31b630b4b6903a37b79039b7b7b760911b60448201526064016108cd565b6002602082015260e08101516040516000917f00000000000000000000000000000000000000000000000000000000000000006001600160a01b0316918381818185875af1925050503d80600081146128b4576040519150601f19603f3d011682016040523d82523d6000602084013e6128b9565b606091505b50509050806129005760405162461bcd60e51b81526020600482015260136024820152724661696c2073656e642045746820746f204d5760681b60448201526064016108cd565b837f32959d1c815772f6bcf658a6cb1f04a9f1a98e41efbe542d9ec590f5244b8bef8360e0015160405161293691815260200190565b60405180910390a2600060e08301819052848152600c602052604090208251815484929190829060ff191660018360028111156129755761297561426a565b021790555060208201518154829061ff00191661010083600581111561299d5761299d61426a565b02179055506040820151815460608401516001600160a01b039081166301000000026301000000600160b81b031993151562010000029390931662010000600160b81b0319909216919091179190911782556080830151600183015560a08301516002830180549183166001600160a01b031992831617905560c0840151600384015560e084015160048401556101008401516005840180549190931691161790556101208201516006820155610140820151600782015561016082015160088201556101808201518051612a7c916009840191602090910190613f62565b509050505050506109f360018055565b6000612a9781612aa2565b610a9a6000836109f6565b6109f38133613160565b600260015403612afe5760405162461bcd60e51b815260206004820152601f60248201527f5265656e7472616e637947756172643a207265656e7472616e742063616c6c0060448201526064016108cd565b6002600155565b600480546040516370a0823160e01b815230928101929092526000917f00000000000000000000000000000000000000000000000000000000000000006001600160a01b0316906370a0823190602401602060405180830381865afa158015612b72573d6000803e3d6000fd5b505050506040513d601f19601f82011682018060405250810190612b9691906144be565b11612bf75760405162461bcd60e51b815260206004820152602b60248201527f4e6f7420656e6f756768204c494e4b202d2066696c6c20636f6e74726163742060448201526a1dda5d1a0819985d58d95d60aa1b60648201526084016108cd565b6000612c076003546004546131b9565b6040805180820182529586526020808701958652600083815260069091522094518555925160019094019390935550919050565b612c458282611a81565b610a9a576000828152602081815260408083206001600160a01b03851684529091529020805460ff19166001179055612c7b3390565b6001600160a01b0316816001600160a01b0316837f2f8788117e7eff1d82e926ec794901d17c78024a50270940304540a733656f0d60405160405180910390a45050565b612cc98282611a81565b15610a9a576000828152602081815260408083206001600160a01b0385168085529252808320805460ff1916905551339285917ff6391f5c32d9c69d2a47ea670b442974b53935d1edc7fd64eb21e047a839171b9190a45050565b6040805133606090811b6bffffffffffffffffffffffff199081166020808501919091529186901b166034830152825160288184030181526048830190935282519201919091207f19457468657265756d205369676e6564204d6573736167653a0a333200000000606883015260848201819052600091829060a401604051602081830303815290604052805190602001209050600181856040016020810190612dce91906144d7565b604080516000815260208181018084529490945260ff909216908201528635606082015290860135608082015260a0016020604051602081039080840390855afa158015612e20573d6000803e3d6000fd5b5050604051601f190151600f546001600160a01b039182169116149695505050505050565b600081600001518260600151836080015143604051602001612e6a94939291906144fa565b604051602081830303815290604052805190602001209050919050565b61182b846323b872dd60e01b858585604051602401612ea8939291906143be565b60408051601f198184030181529190526020810180516001600160e01b03166001600160e01b031990931692909217909152613335565b612f0360405180606001604052806000815260200160008152602001600081525090565b60005b6005811015612fa057600084815260076020526040902083908260058110612f3057612f3061441e565b600302015403612f8e5760008481526007602052604090208160058110612f5957612f5961441e565b600302016040518060600160405290816000820154815260200160018201548152602001600282015481525050915050610812565b80612f9881614434565b915050612f06565b50604051806060016040528060008152602001600081526020016000815250905092915050565b6000828152600660209081526040808320815180830190925280548252600101549181018290529190612ffa908461453f565b61300590600161438a565b60408051808201825285815260208082018481528651600090815260058352849020835181559051600190910155855183518881529182018590529394509092917fff486f05d067208b7216d632d19c54cb41186fe61068eaeeacfb06210805e01c910160405180910390a2825161307d9083613407565b5050505050565b6000828152600a602052604081205481036130a157506000610812565b6000838152600a60205260408120545b808210156131055760006130c58383613bda565b6000878152600b602090815260408083208484529091529020549091508510156130f1578091506130ff565b6130fc81600161438a565b92505b506130b1565b60008211801561313f57506000858152600b60205260408120859161312b6001866144ab565b815260200190815260200160002060000154145b156131585761314f6001836144ab565b92505050610812565b509050610812565b61316a8282611a81565b610a9a5761317781613bfc565b613182836020613c0e565b604051602001613193929190614577565b60408051601f198184030181529082905262461bcd60e51b82526108cd91600401614618565b60007f00000000000000000000000000000000000000000000000000000000000000006001600160a01b0316634000aea07f000000000000000000000000000000000000000000000000000000000000000084866000604051602001613229929190918252602082015260400190565b6040516020818303038152906040526040518463ffffffff1660e01b81526004016132569392919061462b565b6020604051808303816000875af1158015613275573d6000803e3d6000fd5b505050506040513d601f19601f82011682018060405250810190613299919061465b565b50600083815260026020818152604080842054815180840189905280830186905230606082015260808082018390528351808303909101815260a0909101909252815191830191909120938790529190526132f590600161438a565b600085815260026020526040902055610fad8482604080516020808201949094528082019290925280518083038201815260609092019052805191012090565b600061338a826040518060400160405280602081526020017f5361666545524332303a206c6f772d6c6576656c2063616c6c206661696c6564815250856001600160a01b0316613daa9092919063ffffffff16565b805190915015610a1b57808060200190518101906133a8919061465b565b610a1b5760405162461bcd60e51b815260206004820152602a60248201527f5361666545524332303a204552433230206f7065726174696f6e20646964206e6044820152691bdd081cdd58d8d9595960b21b60648201526084016108cd565b61340f612aac565b6000828152600c602052604080822081516101a081019092528054829060ff1660028111156134405761344061426a565b60028111156134515761345161426a565b81528154602090910190610100900460ff1660058111156134745761347461426a565b60058111156134855761348561426a565b8152815460ff6201000082041615156020808401919091526001600160a01b036301000000909204821660408085019190915260018501546060850152600285015483166080850152600385015460a0850152600485015460c0850152600585015490921660e084015260068401546101008401526007840154610120840152600884015461014084015260098401805483518184028101840190945280845261016090940193909183018282801561356757602002820191906000526020600020905b81546001600160a01b03168152600190910190602001808311613549575b5050505050815250509050600160058111156135855761358561426a565b8160200151600581111561359b5761359b61426a565b14806135bc57506003816020015160058111156135ba576135ba61426a565b145b6136015760405162461bcd60e51b8152602060048201526016602482015275526166666c6520696e2077726f6e672073746174757360501b60448201526064016108cd565b60c081018290526136128383612016565b6001600160a01b031660a0820152600460208201819052506000838152600c602052604090208151815483929190829060ff1916600183600281111561365a5761365a61426a565b021790555060208201518154829061ff0019166101008360058111156136825761368261426a565b02179055506040820151815460608401516001600160a01b039081166301000000026301000000600160b81b031993151562010000029390931662010000600160b81b0319909216919091179190911782556080830151600183015560a08301516002830180549183166001600160a01b031992831617905560c0840151600384015560e084015160048401556101008401516005840180549190931691161790556101208201516006820155610140820151600782015561016082015160088201556101808201518051613761916009840191602090910190613f62565b506000915061376d9050565b815160028111156137805761378061426a565b036137fa57606081015160a082015160808301516040516323b872dd60e01b81526001600160a01b038416926323b872dd926137c292309291906004016143be565b600060405180830381600087803b1580156137dc57600080fd5b505af11580156137f0573d6000803e3d6000fd5b50505050506138e1565b60028151600281111561380f5761380f61426a565b0361383d57606081015160a08201516080830151613837916001600160a01b03841691613db9565b506138e1565b60008160a001516001600160a01b0316826080015160405160006040518083038185875af1925050503d8060008114613892576040519150601f19603f3d011682016040523d82523d6000602084013e613897565b606091505b50509050806138df5760405162461bcd60e51b81526020600482015260146024820152732330b4b632b2103a379039b2b7321022ba3432b960611b60448201526064016108cd565b505b8060400151156139ad5760e08101516040516000916001600160a01b037f000000000000000000000000000000000000000000000000000000000000000016918381818185875af1925050503d8060008114613959576040519150601f19603f3d011682016040523d82523d6000602084013e61395e565b606091505b50509050806139a75760405162461bcd60e51b81526020600482015260156024820152744661696c65642073656e642045746820746f204d5760581b60448201526064016108cd565b50613b7b565b600060648260e0015160056139c2919061446a565b6139cc9190614497565b90506000818360e001516139e091906144ab565b905060008361010001516001600160a01b03168260405160006040518083038185875af1925050503d8060008114613a34576040519150601f19603f3d011682016040523d82523d6000602084013e613a39565b606091505b5050905080613a815760405162461bcd60e51b81526020600482015260146024820152732330b4b632b2103a379039b2b7321022ba3432b960611b60448201526064016108cd565b60007f00000000000000000000000000000000000000000000000000000000000000006001600160a01b03168460405160006040518083038185875af1925050503d8060008114613aee576040519150601f19603f3d011682016040523d82523d6000602084013e613af3565b606091505b5050905080613b3c5760405162461bcd60e51b81526020600482015260156024820152744661696c65642073656e642045746820746f204d5760581b60448201526064016108cd565b867f3104eff20ec1a7cebcdc5b1ec674d0ce059761a56f6aab472652c327d9b61b5c85604051613b6e91815260200190565b60405180910390a2505050505b8060a001516001600160a01b0316837fddef822e4f86942c2bd4737756efdcd1f22d2284eededd92b39955451df3dad78360e0015185604051613bc8929190918252602082015260400190565b60405180910390a350610a9a60018055565b6000613be96002848418614497565b613bf59084841661438a565b9392505050565b60606108126001600160a01b03831660145b60606000613c1d83600261446a565b613c2890600261438a565b67ffffffffffffffff811115613c4057613c4061467d565b6040519080825280601f01601f191660200182016040528015613c6a576020820181803683370190505b509050600360fc1b81600081518110613c8557613c8561441e565b60200101906001600160f81b031916908160001a905350600f60fb1b81600181518110613cb457613cb461441e565b60200101906001600160f81b031916908160001a9053506000613cd884600261446a565b613ce390600161438a565b90505b6001811115613d5b576f181899199a1a9b1b9c1cb0b131b232b360811b85600f1660108110613d1757613d1761441e565b1a60f81b828281518110613d2d57613d2d61441e565b60200101906001600160f81b031916908160001a90535060049490941c93613d5481614693565b9050613ce6565b508315613bf55760405162461bcd60e51b815260206004820181905260248201527f537472696e67733a20686578206c656e67746820696e73756666696369656e7460448201526064016108cd565b6060610fad8484600085613de9565b6040516001600160a01b038316602482015260448101829052610a1b90849063a9059cbb60e01b90606401612ea8565b606082471015613e4a5760405162461bcd60e51b815260206004820152602660248201527f416464726573733a20696e73756666696369656e742062616c616e636520666f6044820152651c8818d85b1b60d21b60648201526084016108cd565b600080866001600160a01b03168587604051613e6691906146aa565b60006040518083038185875af1925050503d8060008114613ea3576040519150601f19603f3d011682016040523d82523d6000602084013e613ea8565b606091505b5091509150613eb987838387613ec4565b979650505050505050565b60608315613f33578251600003613f2c576001600160a01b0385163b613f2c5760405162461bcd60e51b815260206004820152601d60248201527f416464726573733a2063616c6c20746f206e6f6e2d636f6e747261637400000060448201526064016108cd565b5081610fad565b610fad8383815115613f485781518083602001fd5b8060405162461bcd60e51b81526004016108cd9190614618565b828054828255906000526020600020908101928215613fb7579160200282015b82811115613fb757825182546001600160a01b0319166001600160a01b03909116178255602090920191600190910190613f82565b50613fc3929150613fc7565b5090565b5b80821115613fc35760008155600101613fc8565b600060208284031215613fee57600080fd5b81356001600160e01b031981168114613bf557600080fd5b6001600160a01b03811681146109f357600080fd5b60006020828403121561402d57600080fd5b8135613bf581614006565b60006020828403121561404a57600080fd5b5035919050565b6000806040838503121561406457600080fd5b82359150602083013561407681614006565b809150509250929050565b600060c0828403121561409357600080fd5b50919050565b60008083601f8401126140ab57600080fd5b50813567ffffffffffffffff8111156140c357600080fd5b6020830191508360208260051b85010111156140de57600080fd5b9250929050565b6000806000808486036101408112156140fd57600080fd5b6141078787614081565b945060c086013567ffffffffffffffff81111561412357600080fd5b61412f88828901614099565b909550935050606060df198201121561414757600080fd5b5092959194509260e0019150565b6000806040838503121561416857600080fd5b50508035926020909101359150565b6000806000806080858703121561418d57600080fd5b843593506020850135925060408501356141a681614006565b9396929550929360600135925050565b600080600080600061010086880312156141cf57600080fd5b6141d98787614081565b945060c086013567ffffffffffffffff808211156141f657600080fd5b818801915088601f83011261420a57600080fd5b81358181111561421957600080fd5b89602060608302850101111561422e57600080fd5b6020830196508095505060e088013591508082111561424c57600080fd5b5061425988828901614099565b969995985093965092949392505050565b634e487b7160e01b600052602160045260246000fd5b600381106142905761429061426a565b9052565b61018081016142a3828f614280565b60068d106142b3576142b361426a565b602082018d90528b151560408301526001600160a01b038b81166060840152608083018b9052891660a08301528760c08301528660e08301526143026101008301876001600160a01b03169052565b8461012083015283610140830152826101608301529d9c50505050505050505050505050565b6020808252602c908201527f526166666c65206973206e6f7420696e2063726561746564206f7220616c726560408201526b18591e48199a5b9a5cda195960a21b606082015260800190565b634e487b7160e01b600052601160045260246000fd5b8082018082111561081257610812614374565b6000602082840312156143af57600080fd5b813560038110613bf557600080fd5b6001600160a01b039384168152919092166020820152604081019190915260600190565b858152602081018590526001600160a01b038416604082015260a0810161440c6060830185614280565b82151560808301529695505050505050565b634e487b7160e01b600052603260045260246000fd5b60006001820161444657614446614374565b5060010190565b60006020828403121561445f57600080fd5b8151613bf581614006565b808202811582820484141761081257610812614374565b634e487b7160e01b600052601260045260246000fd5b6000826144a6576144a6614481565b500490565b8181038181111561081257610812614374565b6000602082840312156144d057600080fd5b5051919050565b6000602082840312156144e957600080fd5b813560ff81168114613bf557600080fd5b60006003861061450c5761450c61426a565b5060f89490941b845260609290921b6bffffffffffffffffffffffff191660018401526015830152603582015260550190565b60008261454e5761454e614481565b500690565b60005b8381101561456e578181015183820152602001614556565b50506000910152565b7f416363657373436f6e74726f6c3a206163636f756e74200000000000000000008152600083516145af816017850160208801614553565b7001034b99036b4b9b9b4b733903937b6329607d1b60179184019182015283516145e0816028840160208801614553565b01602801949350505050565b60008151808452614604816020860160208601614553565b601f01601f19169290920160200192915050565b602081526000613bf560208301846145ec565b60018060a01b038416815282602082015260606040820152600061465260608301846145ec565b95945050505050565b60006020828403121561466d57600080fd5b81518015158114613bf557600080fd5b634e487b7160e01b600052604160045260246000fd5b6000816146a2576146a2614374565b506000190190565b600082516146bc818460208701614553565b919091019291505056fe523a704056dcd17bcf83bed8b68c59416dac1119be77755efe3bde0a64e46e0ca2646970667358221220c9d7680c815426fbbf33fcc9c6022a3a2cd0e6696721e0a2cf0624b92cae21b364736f6c63430008130033",
  "devdoc": {
    "details": "It saves in an ordered array the player wallet and the current entries count. So buying entries has a complexity of O(1) For calculating the winner, from the huge random number generated by Chainlink a normalized random is generated by using the module method, adding 1 to have a random from 1 to entriesCount. So next step is to perform a binary search on the ordered array to get the player O(log n) Example: 0 -> { 1, player1} as player1 buys 1 entry 1 -> {51, player2} as player2 buys 50 entries 2 -> {52, player3} as player3 buys 1 entry 3 -> {53, player4} as player4 buys 1 entry 4 -> {153, player5} as player5 buys 100 entries So the setWinner method performs a binary search on that sorted array to get the upper bound. If the random number generated is 150, the winner is player5. If the random number is 20, winner is player2",
    "events": {
      "RoleAdminChanged(bytes32,bytes32,bytes32)": {
        "details": "Emitted when `newAdminRole` is set as ``role``'s admin role, replacing `previousAdminRole` `DEFAULT_ADMIN_ROLE` is the starting admin for all roles, despite {RoleAdminChanged} not being emitted signaling this. _Available since v3.1._"
      },
      "RoleGranted(bytes32,address,address)": {
        "details": "Emitted when `account` is granted `role`. `sender` is the account that originated the contract call, an admin role bearer except when using {AccessControl-_setupRole}."
      },
      "RoleRevoked(bytes32,address,address)": {
        "details": "Emitted when `account` is revoked `role`. `sender` is the account that originated the contract call:   - if using `revokeRole`, it is the admin role bearer   - if using `renounceRole`, it is the role bearer (i.e. `account`)"
      }
    },
    "kind": "dev",
    "methods": {
      "buyEntry(bytes32,uint256,address,uint256)": {
        "details": "callable by players. Depending on the number of entries assigned to the price structure the player buys (_id parameter) one or more entries will be assigned to the player. Also it is checked the maximum number of entries per user is not reached As the method is payable, in msg.value there will be the amount paid by the user",
        "params": {
          "_collection": ": collection of the tokenId used. Not used if there is no required nft on the raffle",
          "_idOrTicketCount": ": id of the price structure if raffle is admin raffle, else count of entry",
          "_raffleId": ": id of the raffle",
          "_tokenIdUsed": ": id of the token used in private raffles (to avoid abuse can not be reused on the same raffle)"
        }
      },
      "cancelRaffle(bytes32)": {
        "details": "The operator can cancel the raffle. The NFT is sent back to the seller The raised funds are send to the destination wallet. The buyers will be refunded offchain in the metawin wallet",
        "params": {
          "_raffleId": "Id of the raffle"
        }
      },
      "claimRefund(bytes32)": {
        "details": "The player can claim a refund during the first 30 days after the raffle was cancelled in the map \"ClaimsData\" it is saves how much the player spent on that raffle, as they could have bought several entries",
        "params": {
          "_raffleId": "Id of the raffle"
        }
      },
      "getClaimData(bytes32,address)": {
        "params": {
          "_player": "wallet of the player",
          "_raffleId": "Id of the raffle"
        },
        "returns": {
          "_0": "Claims data of the player on that raffle"
        }
      },
      "getRoleAdmin(bytes32)": {
        "details": "Returns the admin role that controls `role`. See {grantRole} and {revokeRole}. To change a role's admin, use {_setRoleAdmin}."
      },
      "getWinnerAddressFromRandom(bytes32,uint256)": {
        "details": "Uses a binary search on the sorted array to retreive the winner",
        "params": {
          "_normalizedRandomNumber": "Generated by chainlink",
          "_raffleId": "Id of the raffle"
        },
        "returns": {
          "_0": "the wallet that won the raffle"
        }
      },
      "grantRole(bytes32,address)": {
        "details": "Grants `role` to `account`. If `account` had not been already granted `role`, emits a {RoleGranted} event. Requirements: - the caller must have ``role``'s admin role. May emit a {RoleGranted} event."
      },
      "hasRole(bytes32,address)": {
        "details": "Returns `true` if `account` has been granted `role`."
      },
      "operatorCreateRaffle((uint8,address,uint256,uint256,uint256,uint256),(uint256,uint256,uint256)[],address[])": {
        "details": "creates a raffle struct and push it to the raffles array. Some data is stored in the funding data structure sends an event when finished",
        "params": {
          "_collectionWhitelist": "array with the required collections to participate in the raffle. Empty if there is no collection",
          "_params": "params to create raffle",
          "_prices": "Array of prices and amount of entries the customer could purchase"
        },
        "returns": {
          "_0": "raffleId"
        }
      },
      "renounceRole(bytes32,address)": {
        "details": "Revokes `role` from the calling account. Roles are often managed via {grantRole} and {revokeRole}: this function's purpose is to provide a mechanism for accounts to lose their privileges if they are compromised (such as when a trusted device is misplaced). If the calling account had been revoked `role`, emits a {RoleRevoked} event. Requirements: - the caller must be `account`. May emit a {RoleRevoked} event."
      },
      "revokeRole(bytes32,address)": {
        "details": "Revokes `role` from `account`. If `account` had been granted `role`, emits a {RoleRevoked} event. Requirements: - the caller must have ``role``'s admin role. May emit a {RoleRevoked} event."
      },
      "setSignerAddress(address)": {
        "details": "Change the wallet of the platform signer",
        "params": {
          "_newAddress": "new address of the platform signer"
        }
      },
      "setWinner(bytes32)": {
        "details": "it triggers Chainlink VRF1 consumer, and generates a random number that is normalized and checked that corresponds to a MW player",
        "params": {
          "_raffleId": "Id of the raffle"
        }
      },
      "supportsInterface(bytes4)": {
        "details": "See {IERC165-supportsInterface}."
      },
      "transferOwnership(address)": {
        "details": "updates owner of manager contract",
        "params": {
          "to": "address of new admin"
        }
      },
      "transferRemainingFunds(bytes32)": {
        "details": "after 30 days after cancelling passes, the operator can transfer to vault the remaining funds",
        "params": {
          "_raffleId": "Id of the raffle"
        }
      },
      "userCreateRaffle((uint8,address,uint256,uint256,uint256,uint256),address[],(bytes32,bytes32,uint8))": {
        "details": "creates a raffle struct and push it to the raffles array. Some data is stored in the funding data structure sends an event when finished",
        "params": {
          "_collectionWhitelist": "array with the required collections to participate in the raffle. Empty if there is no collection",
          "_params": "params to create raffle",
          "_sig": "sigature of signer to validate collection"
        },
        "returns": {
          "_0": "raffleId"
        }
      }
    },
    "title": "Raffles Manager",
    "version": 1
  },
  "userdoc": {
    "kind": "user",
    "methods": {
      "buyEntry(bytes32,uint256,address,uint256)": {
        "notice": "If the operator set requiredNFTs when creating the raffle, only the owners of nft on that collection can make a call to this method. This will be used for special raffles"
      },
      "operatorCreateRaffle((uint8,address,uint256,uint256,uint256,uint256),(uint256,uint256,uint256)[],address[])": {
        "notice": "Creates a raffle"
      },
      "setWinner(bytes32)": {
        "notice": "the operator finish the raffle, if the desired funds has been reached"
      },
      "userCreateRaffle((uint8,address,uint256,uint256,uint256,uint256),address[],(bytes32,bytes32,uint8))": {
        "notice": "Creates a raffle"
      }
    },
    "notice": "It consumes VRF v1 from Chainlink. It has the role There are two type of roles - operator and user Operator can create admin raffles and users can care user raffles Raffle can use 3 type of assets - NFT, ETH and ERC20 token",
    "version": 1
  },
  "storageLayout": {
    "storage": [
      {
        "astId": 409,
        "contract": "contracts/core/Manager.sol:Manager",
        "label": "_roles",
        "offset": 0,
        "slot": "0",
        "type": "t_mapping(t_bytes32,t_struct(RoleData)404_storage)"
      },
      {
        "astId": 897,
        "contract": "contracts/core/Manager.sol:Manager",
        "label": "_status",
        "offset": 0,
        "slot": "1",
        "type": "t_uint256"
      },
      {
        "astId": 79,
        "contract": "contracts/core/Manager.sol:Manager",
        "label": "nonces",
        "offset": 0,
        "slot": "2",
        "type": "t_mapping(t_bytes32,t_uint256)"
      },
      {
        "astId": 4485,
        "contract": "contracts/core/Manager.sol:Manager",
        "label": "keyHash",
        "offset": 0,
        "slot": "3",
        "type": "t_bytes32"
      },
      {
        "astId": 4487,
        "contract": "contracts/core/Manager.sol:Manager",
        "label": "fee",
        "offset": 0,
        "slot": "4",
        "type": "t_uint256"
      },
      {
        "astId": 4510,
        "contract": "contracts/core/Manager.sol:Manager",
        "label": "requests",
        "offset": 0,
        "slot": "5",
        "type": "t_mapping(t_bytes32,t_struct(RandomResult)4492_storage)"
      },
      {
        "astId": 4515,
        "contract": "contracts/core/Manager.sol:Manager",
        "label": "chainlinkRaffleInfo",
        "offset": 0,
        "slot": "6",
        "type": "t_mapping(t_bytes32,t_struct(RaffleInfo)4505_storage)"
      },
      {
        "astId": 4630,
        "contract": "contracts/core/Manager.sol:Manager",
        "label": "prices",
        "offset": 0,
        "slot": "7",
        "type": "t_mapping(t_bytes32,t_array(t_struct(PriceStructure)4623_storage)5_storage)"
      },
      {
        "astId": 4640,
        "contract": "contracts/core/Manager.sol:Manager",
        "label": "fundingList",
        "offset": 0,
        "slot": "8",
        "type": "t_mapping(t_bytes32,t_struct(FundingStructure)4635_storage)"
      },
      {
        "astId": 4649,
        "contract": "contracts/core/Manager.sol:Manager",
        "label": "soldTicketCount",
        "offset": 0,
        "slot": "9",
        "type": "t_mapping(t_bytes32,t_uint256)"
      },
      {
        "astId": 4653,
        "contract": "contracts/core/Manager.sol:Manager",
        "label": "entriesCount",
        "offset": 0,
        "slot": "10",
        "type": "t_mapping(t_bytes32,t_uint256)"
      },
      {
        "astId": 4660,
        "contract": "contracts/core/Manager.sol:Manager",
        "label": "entries",
        "offset": 0,
        "slot": "11",
        "type": "t_mapping(t_bytes32,t_mapping(t_uint256,t_struct(EntriesBought)4645_storage))"
      },
      {
        "astId": 4730,
        "contract": "contracts/core/Manager.sol:Manager",
        "label": "raffles",
        "offset": 0,
        "slot": "12",
        "type": "t_mapping(t_bytes32,t_struct(RaffleStruct)4725_storage)"
      },
      {
        "astId": 4742,
        "contract": "contracts/core/Manager.sol:Manager",
        "label": "claimsData",
        "offset": 0,
        "slot": "13",
        "type": "t_mapping(t_bytes32,t_struct(ClaimStruct)4737_storage)"
      },
      {
        "astId": 4746,
        "contract": "contracts/core/Manager.sol:Manager",
        "label": "requiredNFTWallets",
        "offset": 0,
        "slot": "14",
        "type": "t_mapping(t_bytes32,t_address)"
      },
      {
        "astId": 4755,
        "contract": "contracts/core/Manager.sol:Manager",
        "label": "signer",
        "offset": 0,
        "slot": "15",
        "type": "t_address"
      }
    ],
    "types": {
      "t_address": {
        "encoding": "inplace",
        "label": "address",
        "numberOfBytes": "20"
      },
      "t_array(t_address)dyn_storage": {
        "base": "t_address",
        "encoding": "dynamic_array",
        "label": "address[]",
        "numberOfBytes": "32"
      },
      "t_array(t_struct(PriceStructure)4623_storage)5_storage": {
        "base": "t_struct(PriceStructure)4623_storage",
        "encoding": "inplace",
        "label": "struct Manager.PriceStructure[5]",
        "numberOfBytes": "480"
      },
      "t_bool": {
        "encoding": "inplace",
        "label": "bool",
        "numberOfBytes": "1"
      },
      "t_bytes32": {
        "encoding": "inplace",
        "label": "bytes32",
        "numberOfBytes": "32"
      },
      "t_enum(RAFFLETYPE)4519": {
        "encoding": "inplace",
        "label": "enum Manager.RAFFLETYPE",
        "numberOfBytes": "1"
      },
      "t_enum(STATUS)4526": {
        "encoding": "inplace",
        "label": "enum Manager.STATUS",
        "numberOfBytes": "1"
      },
      "t_mapping(t_address,t_bool)": {
        "encoding": "mapping",
        "key": "t_address",
        "label": "mapping(address => bool)",
        "numberOfBytes": "32",
        "value": "t_bool"
      },
      "t_mapping(t_bytes32,t_address)": {
        "encoding": "mapping",
        "key": "t_bytes32",
        "label": "mapping(bytes32 => address)",
        "numberOfBytes": "32",
        "value": "t_address"
      },
      "t_mapping(t_bytes32,t_array(t_struct(PriceStructure)4623_storage)5_storage)": {
        "encoding": "mapping",
        "key": "t_bytes32",
        "label": "mapping(bytes32 => struct Manager.PriceStructure[5])",
        "numberOfBytes": "32",
        "value": "t_array(t_struct(PriceStructure)4623_storage)5_storage"
      },
      "t_mapping(t_bytes32,t_mapping(t_uint256,t_struct(EntriesBought)4645_storage))": {
        "encoding": "mapping",
        "key": "t_bytes32",
        "label": "mapping(bytes32 => mapping(uint256 => struct Manager.EntriesBought))",
        "numberOfBytes": "32",
        "value": "t_mapping(t_uint256,t_struct(EntriesBought)4645_storage)"
      },
      "t_mapping(t_bytes32,t_struct(ClaimStruct)4737_storage)": {
        "encoding": "mapping",
        "key": "t_bytes32",
        "label": "mapping(bytes32 => struct Manager.ClaimStruct)",
        "numberOfBytes": "32",
        "value": "t_struct(ClaimStruct)4737_storage"
      },
      "t_mapping(t_bytes32,t_struct(FundingStructure)4635_storage)": {
        "encoding": "mapping",
        "key": "t_bytes32",
        "label": "mapping(bytes32 => struct Manager.FundingStructure)",
        "numberOfBytes": "32",
        "value": "t_struct(FundingStructure)4635_storage"
      },
      "t_mapping(t_bytes32,t_struct(RaffleInfo)4505_storage)": {
        "encoding": "mapping",
        "key": "t_bytes32",
        "label": "mapping(bytes32 => struct Manager.RaffleInfo)",
        "numberOfBytes": "32",
        "value": "t_struct(RaffleInfo)4505_storage"
      },
      "t_mapping(t_bytes32,t_struct(RaffleStruct)4725_storage)": {
        "encoding": "mapping",
        "key": "t_bytes32",
        "label": "mapping(bytes32 => struct Manager.RaffleStruct)",
        "numberOfBytes": "32",
        "value": "t_struct(RaffleStruct)4725_storage"
      },
      "t_mapping(t_bytes32,t_struct(RandomResult)4492_storage)": {
        "encoding": "mapping",
        "key": "t_bytes32",
        "label": "mapping(bytes32 => struct Manager.RandomResult)",
        "numberOfBytes": "32",
        "value": "t_struct(RandomResult)4492_storage"
      },
      "t_mapping(t_bytes32,t_struct(RoleData)404_storage)": {
        "encoding": "mapping",
        "key": "t_bytes32",
        "label": "mapping(bytes32 => struct AccessControl.RoleData)",
        "numberOfBytes": "32",
        "value": "t_struct(RoleData)404_storage"
      },
      "t_mapping(t_bytes32,t_uint256)": {
        "encoding": "mapping",
        "key": "t_bytes32",
        "label": "mapping(bytes32 => uint256)",
        "numberOfBytes": "32",
        "value": "t_uint256"
      },
      "t_mapping(t_uint256,t_struct(EntriesBought)4645_storage)": {
        "encoding": "mapping",
        "key": "t_uint256",
        "label": "mapping(uint256 => struct Manager.EntriesBought)",
        "numberOfBytes": "32",
        "value": "t_struct(EntriesBought)4645_storage"
      },
      "t_struct(ClaimStruct)4737_storage": {
        "encoding": "inplace",
        "label": "struct Manager.ClaimStruct",
        "members": [
          {
            "astId": 4732,
            "contract": "contracts/core/Manager.sol:Manager",
            "label": "numTicketsPerUser",
            "offset": 0,
            "slot": "0",
            "type": "t_uint256"
          },
          {
            "astId": 4734,
            "contract": "contracts/core/Manager.sol:Manager",
            "label": "amountSpentInWeis",
            "offset": 0,
            "slot": "1",
            "type": "t_uint256"
          },
          {
            "astId": 4736,
            "contract": "contracts/core/Manager.sol:Manager",
            "label": "claimed",
            "offset": 0,
            "slot": "2",
            "type": "t_bool"
          }
        ],
        "numberOfBytes": "96"
      },
      "t_struct(EntriesBought)4645_storage": {
        "encoding": "inplace",
        "label": "struct Manager.EntriesBought",
        "members": [
          {
            "astId": 4642,
            "contract": "contracts/core/Manager.sol:Manager",
            "label": "currentEntriesLength",
            "offset": 0,
            "slot": "0",
            "type": "t_uint256"
          },
          {
            "astId": 4644,
            "contract": "contracts/core/Manager.sol:Manager",
            "label": "player",
            "offset": 0,
            "slot": "1",
            "type": "t_address"
          }
        ],
        "numberOfBytes": "64"
      },
      "t_struct(FundingStructure)4635_storage": {
        "encoding": "inplace",
        "label": "struct Manager.FundingStructure",
        "members": [
          {
            "astId": 4632,
            "contract": "contracts/core/Manager.sol:Manager",
            "label": "minTicketCount",
            "offset": 0,
            "slot": "0",
            "type": "t_uint256"
          },
          {
            "astId": 4634,
            "contract": "contracts/core/Manager.sol:Manager",
            "label": "maxTicketCount",
            "offset": 0,
            "slot": "1",
            "type": "t_uint256"
          }
        ],
        "numberOfBytes": "64"
      },
      "t_struct(PriceStructure)4623_storage": {
        "encoding": "inplace",
        "label": "struct Manager.PriceStructure",
        "members": [
          {
            "astId": 4618,
            "contract": "contracts/core/Manager.sol:Manager",
            "label": "id",
            "offset": 0,
            "slot": "0",
            "type": "t_uint256"
          },
          {
            "astId": 4620,
            "contract": "contracts/core/Manager.sol:Manager",
            "label": "numTickets",
            "offset": 0,
            "slot": "1",
            "type": "t_uint256"
          },
          {
            "astId": 4622,
            "contract": "contracts/core/Manager.sol:Manager",
            "label": "price",
            "offset": 0,
            "slot": "2",
            "type": "t_uint256"
          }
        ],
        "numberOfBytes": "96"
      },
      "t_struct(RaffleInfo)4505_storage": {
        "encoding": "inplace",
        "label": "struct Manager.RaffleInfo",
        "members": [
          {
            "astId": 4502,
            "contract": "contracts/core/Manager.sol:Manager",
            "label": "id",
            "offset": 0,
            "slot": "0",
            "type": "t_bytes32"
          },
          {
            "astId": 4504,
            "contract": "contracts/core/Manager.sol:Manager",
            "label": "size",
            "offset": 0,
            "slot": "1",
            "type": "t_uint256"
          }
        ],
        "numberOfBytes": "64"
      },
      "t_struct(RaffleStruct)4725_storage": {
        "encoding": "inplace",
        "label": "struct Manager.RaffleStruct",
        "members": [
          {
            "astId": 4698,
            "contract": "contracts/core/Manager.sol:Manager",
            "label": "raffleType",
            "offset": 0,
            "slot": "0",
            "type": "t_enum(RAFFLETYPE)4519"
          },
          {
            "astId": 4701,
            "contract": "contracts/core/Manager.sol:Manager",
            "label": "status",
            "offset": 1,
            "slot": "0",
            "type": "t_enum(STATUS)4526"
          },
          {
            "astId": 4703,
            "contract": "contracts/core/Manager.sol:Manager",
            "label": "operatorCreated",
            "offset": 2,
            "slot": "0",
            "type": "t_bool"
          },
          {
            "astId": 4705,
            "contract": "contracts/core/Manager.sol:Manager",
            "label": "collateralAddress",
            "offset": 3,
            "slot": "0",
            "type": "t_address"
          },
          {
            "astId": 4707,
            "contract": "contracts/core/Manager.sol:Manager",
            "label": "collateralParam",
            "offset": 0,
            "slot": "1",
            "type": "t_uint256"
          },
          {
            "astId": 4709,
            "contract": "contracts/core/Manager.sol:Manager",
            "label": "winner",
            "offset": 0,
            "slot": "2",
            "type": "t_address"
          },
          {
            "astId": 4711,
            "contract": "contracts/core/Manager.sol:Manager",
            "label": "randomNumber",
            "offset": 0,
            "slot": "3",
            "type": "t_uint256"
          },
          {
            "astId": 4713,
            "contract": "contracts/core/Manager.sol:Manager",
            "label": "amountRaised",
            "offset": 0,
            "slot": "4",
            "type": "t_uint256"
          },
          {
            "astId": 4715,
            "contract": "contracts/core/Manager.sol:Manager",
            "label": "seller",
            "offset": 0,
            "slot": "5",
            "type": "t_address"
          },
          {
            "astId": 4717,
            "contract": "contracts/core/Manager.sol:Manager",
            "label": "endTime",
            "offset": 0,
            "slot": "6",
            "type": "t_uint256"
          },
          {
            "astId": 4719,
            "contract": "contracts/core/Manager.sol:Manager",
            "label": "cancellingDate",
            "offset": 0,
            "slot": "7",
            "type": "t_uint256"
          },
          {
            "astId": 4721,
            "contract": "contracts/core/Manager.sol:Manager",
            "label": "ticketPrice",
            "offset": 0,
            "slot": "8",
            "type": "t_uint256"
          },
          {
            "astId": 4724,
            "contract": "contracts/core/Manager.sol:Manager",
            "label": "collectionWhitelist",
            "offset": 0,
            "slot": "9",
            "type": "t_array(t_address)dyn_storage"
          }
        ],
        "numberOfBytes": "320"
      },
      "t_struct(RandomResult)4492_storage": {
        "encoding": "inplace",
        "label": "struct Manager.RandomResult",
        "members": [
          {
            "astId": 4489,
            "contract": "contracts/core/Manager.sol:Manager",
            "label": "randomNumber",
            "offset": 0,
            "slot": "0",
            "type": "t_uint256"
          },
          {
            "astId": 4491,
            "contract": "contracts/core/Manager.sol:Manager",
            "label": "nomalizedRandomNumber",
            "offset": 0,
            "slot": "1",
            "type": "t_uint256"
          }
        ],
        "numberOfBytes": "64"
      },
      "t_struct(RoleData)404_storage": {
        "encoding": "inplace",
        "label": "struct AccessControl.RoleData",
        "members": [
          {
            "astId": 401,
            "contract": "contracts/core/Manager.sol:Manager",
            "label": "members",
            "offset": 0,
            "slot": "0",
            "type": "t_mapping(t_address,t_bool)"
          },
          {
            "astId": 403,
            "contract": "contracts/core/Manager.sol:Manager",
            "label": "adminRole",
            "offset": 0,
            "slot": "1",
            "type": "t_bytes32"
          }
        ],
        "numberOfBytes": "64"
      },
      "t_uint256": {
        "encoding": "inplace",
        "label": "uint256",
        "numberOfBytes": "32"
      }
    }
  }
}